:020000040000FA
:100000000C943F010C9470010C9470010C947001DD
:100010000C9470010C9470010C9470010C9470019C
:100020000C9470010C9470010C9470010C9470018C
:100030000C9470010C9470010C9470010C9470017C
:100040000C9470010C9470010C9470010C9470016C
:100050000C9470010C9470010C9470010C9446087F
:100060000C9470010C9470010C9470010C9470014C
:100070000C9470010C9470010C9470010C9470013C
:100080000C9470010C9470010C9470010C9470012C
:100090000C9470010C9470010C9470010C949008F5
:1000A0000C9470010C9470010C9470010C9470010C
:1000B0000C9470010C9470010C9470010C947001FC
:1000C0000C9470010C9470010C9470010C947001EC
:1000D0000C9470010C9470010C9470010C947001DC
:1000E0000C9470010C949A030C9409030C94C701AE
:1000F0000C94D6050C94C3010C94B9010C94B50171
:100100000C9480030C94AB010C94C7030C94D001A5
:100110000C9490010C94DA020C94D1010C94AF0170
:100120000C94D5010C94B4090C949A010C94CB0155
:100130000C9496010C94DC020C94A5010C949E0185
:100140000C9470030C9493030C94DD040C94BD0187
:100150000C94DB020C9471030C94A20100002100AA
:10016000240027002A002D00300033000101000088
:10017000040107010A0100002200250028002B00CD
:100180002E003100340002010000050108010B01BE
:10019000000020002300260029002C002F00320040
:1001A0000001000003010601090105050505070519
:1001B00008080808020202020A0A080804040404E3
:1001C000010101010101010103030303030303030F
:1001D000040707070C0C0C0C0C0C0C0C020202029E
:1001E00006060606060606060B0B0B0B0B0B0B0B87
:1001F0000102102020080810204010204080020139
:10020000020108040201010204081020408080401D
:10021000201008040201800402018040201008041C
:1002200002010804020101020408102040800102BA
:1002300004081020408000000A0B02090C0D0E0873
:10024000070304010000000000000000000000009F
:10025000000000000000000000000000000000009E
:10026000000012111000000000000000000000005B
:10027000000000000000000000000000B40911248C
:100280001FBECFEFD1E2DEBFCDBF00E00CBF13E059
:10029000A0E0B2E0E8E7FCE100E00BBF02C007909D
:1002A0000D92AE37B107D9F724E0AEE7B3E001C055
:1002B0001D92A935B207E1F711E0CFE3D1E000E0EC
:1002C00006C021970109802FFE010E942B0ECE331C
:1002D000D10780E00807A9F70E94D4090C943A0ED0
:1002E0000C9400008150823108F05AC0E82FF0E0F1
:1002F0008827E258FE4F8F4F0C942B0E9E01A201CF
:10030000900196019A01D001A501AB01AF01B501A1
:10031000B901BD01C301C701D001CB01D101D50194
:10032000809180008F778093800008958091800075
:100330008F7DF9CF80918000877FF5CF84B58F774F
:1003400084BD089584B58F7DFBCF8091B0008F77F9
:100350008093B00008958091B0008F7DF9CF809197
:1003600090008F77809390000895809190008F7D0A
:10037000F9CF80919000877FF5CF8091A0008F7793
:100380008093A00008958091A0008F7DF9CF809187
:10039000A000877FF5CF809120018F778093200187
:1003A0000895809120018F7DF9CF80912001877F72
:1003B000F5CFCF93DF93282F30E0F901EA5CFD4FB2
:1003C0008491F901E051FE4FD491F901E655FE4FB9
:1003D000C491CC23A1F081110E947201EC2FF0E0B6
:1003E000EE0FFF1FE057FE4FA591B491EC91ED2366
:1003F00081E090E009F480E0DF91CF91089580E002
:1004000090E0FACF1F93CF93DF93282F30E0F901CC
:10041000EA5CFD4F8491F901E051FE4FD491F9015E
:10042000E655FE4FC491CC23A9F0162F81110E94EE
:100430007201EC2FF0E0EE0FFF1FEA58FE4FA5917E
:10044000B4918FB7F894EC91111108C0D095DE23C8
:10045000DC938FBFDF91CF911F910895DE2BF8CFF2
:10046000CF93DF9390E0FC01E051FE4F249186553D
:100470009E4FFC0184918823C9F090E0880F991F5A
:10048000FC01E45AFE4FA591B491FC01EA58FE4FDD
:10049000C591D49161110DC09FB7F8948C912095AE
:1004A00082238C938881282328839FBFDF91CF915B
:1004B0000895623051F49FB7F8943C91822F809553
:1004C00083238C93E8812E2BEFCF8FB7F894EC9198
:1004D0002E2B2C938FBFEACF90917B00977F909328
:1004E0007B008653806480937C0080917A008064D6
:1004F00080937A0080917A0086FDFCCF809178000D
:100500009091790008953FB7F89480913D049091BF
:100510003E04A0913F04B091400426B5A89B05C0BD
:100520002F3F19F00196A11DB11D3FBFBA2FA92F72
:10053000982F8827BC01CD01620F711D811D911D6F
:1005400042E0660F771F881F991F4A95D1F70895DB
:100550008F929F92AF92BF92CF92DF92EF92FF92D3
:100560004B015C010E9483026B017C010E948302AB
:100570006C197D098E099F09683E734081059105BC
:10058000A8F321E0821A9108A108B10888EEC80EEC
:1005900083E0D81EE11CF11C81149104A104B10474
:1005A00029F7FF90EF90DF90CF90BF90AF909F9092
:1005B0008F90089508950895AF92BF92CF92DF92E1
:1005C000EF92FF920F931F93CF93DF936C017B0108
:1005D0008B01040F151FEB015E01AE18BF08C01799
:1005E000D10759F06991D601ED91FC910190F0810C
:1005F000E02DC6011995892B79F7C501DF91CF91BF
:100600001F910F91FF90EF90DF90CF90BF90AF9030
:10061000089508952091BF03260F3327331F2132F9
:100620003105ECF420910804FC0190E080E02430D6
:1006300069F082E00895A091BF032191AC01415679
:100640005C4FA40FB52FB11D2C930196861798F31C
:100650008091BF03680F6093BF0380E0089581E03D
:1006600008951092080481E0809307041092E20339
:1006700061E084E10E94020261E085E10E940202E1
:10068000E9EBF0E080818E7F808380818D7F8083A5
:1006900088E48093B80085E48093BC000895CF93EC
:1006A000DF9391E090939E038823B9F0C091B80046
:1006B000D091BA008091BC008A7B8093BC0060E03E
:1006C00084E10E94020260E085E10E9402020E9431
:1006D0003103D093BA00C093B800DF91CF91089551
:1006E0000895E091370480913604E81730F4F0E083
:1006F000E258FC4F808190E008958FEF9FEF0895BE
:1007000090913704809136042FEF3FEF981748F40B
:10071000E92FF0E0E258FC4F208130E09F5F90939A
:100720003704C90108958091360490913704891BDC
:10073000990B0895CF92DF92EF92FF920F931F9340
:10074000CF93DF937C01CB018A0120910E042223F9
:1007500089F0EB016B01C40ED51ECC15DD0569F0E7
:100760006991D701ED91FC910190F081E02DC701D5
:100770001995F3CF642F0E940A03C801DF91CF912E
:100780001F910F91FF90EF90DF90CF900895CF933E
:10079000DF931F92CDB7DEB7698320910E04222329
:1007A000F9F020913404203258F021E030E0FC01CF
:1007B0003383228390E080E00F90DF91CF91089502
:1007C00080913504E82FF0E0E15FFB4F9981908341
:1007D0008F5F809335048093340481E090E0ECCF08
:1007E00061E0CE0101960E940A03F7CFCF92DF921B
:1007F000EF92FF920F931F93CF93DF93FC01C4817D
:1008000021E020930E04C0932F041092350410921F
:1008100034048385682B81E494E00E94C703D0915F
:100820003404D13208F092C00E9483026B017C0133
:1008300080910804811165C082E08093080481E002
:10084000809307048FEF8093060410920504D093E1
:100850000404AFE0B4E0E4EEF3E080E0D81385C038
:100860001092E3038091E303CC0FC82BC093E30302
:100870008091E203813009F07CC01092E2030E9473
:1008800083026B017C018091E3038093BB00809124
:100890000A0490910B04A0910C04B0910D04892BD3
:1008A0008A2B8B2B99F00E94830200910A041091ED
:1008B0000B0420910C0430910D046C197D098E09F4
:1008C0009F090617170728073907E0F18091BC0038
:1008D00083FDD9CF85EC8093BC000E9483026B011D
:1008E0007C0180910804823009F445C0809106049F
:1008F0008F3F61F180910604803241F180910604BE
:1009000025C080910A0490910B04A0910C04B09131
:100910000D04892B8A2B8B2B09F48ACF0E9483022A
:1009200000910A0410910B0420910C0430910D04E5
:100930006C197D098E099F090617170728073907C3
:1009400008F076CF809109040E944F03109235047D
:100950001092340410920E04DF91CF911F910F91E9
:10096000FF90EF90DF90CF9008959D9191938F5FCE
:1009700075CF85EEB0CF80910A0490910B04A091C1
:100980000C04B0910D04892B8A2B8B2B09F4A9CF71
:100990000E94830200910A0410910B0420910C0420
:1009A00030910D046C197D098E099F0906171707F0
:1009B0002807390708F095CFC5CF90E080E008956B
:1009C000FC0101900020E9F73197AF01481B590B5A
:1009D000BC018DE494E00C94DC028F929F92AF9264
:1009E000BF920F931F93CF93DF93CDB7DEB7A1973D
:1009F0000FB6F894DEBF0FBECDBF19A2423008F487
:100A00004AE08E010F5D1F4F842E912CB12CA12C3A
:100A1000A50194010E94BE0BE62FB901CA01EA307C
:100A2000F4F4E05DD801EE938D01232B242B252BCC
:100A300079F790E080E0109719F0CD010E94E00472
:100A4000A1960FB6F894DEBF0FBECDBFDF91CF9158
:100A50001F910F91BF90AF909F908F900895E95C88
:100A6000E1CF0C94E0040F931F93CF938C01C62F1A
:100A70000E94F6036C2F6460C8010E94F6036C2F7D
:100A80006B7FC8010E94F60383EC90E00197F1F7B9
:100A9000CF911F910F9108950F931F93CF93DF93E1
:100AA0008C01D62FC42F607F642B0E94330580E118
:100AB000D89FB00111246C2BC801DF91CF911F91F9
:100AC0000F910C943305CF93DF9300D000D01F9289
:100AD0001F92CDB7DEB798E0E3E0F2E0DE011196B9
:100AE00001900D929A95E1F790915504961710F4A4
:100AF0006FEF690F262F30E0220F331F41E050E0E7
:100B00004C0F5D1F240F351FF9016081680F60686D
:100B100040E08DE494E028960FB6F894DEBF0FBE57
:100B2000CDBFDF91CF910C944C0540E061E08DE4A6
:100B300094E00E944C058BE39FE10197F1F7089543
:100B40000E94950560E080E00E94630589E292E0E2
:100B50000E94310589E20E94D9010197E1F461E028
:100B600088E20E94020261E080E00E94630587E360
:100B700092E00E94310562E080E00E94630581E41A
:100B800092E00E94310563E080E00E9463058DE4FD
:100B900092E00C94310560E088E20E94020261E07C
:100BA00080E00E9463058DE592E0F3CF41E00E9472
:100BB0004C0581E090E008954F925F926F927F9292
:100BC0008F929F92AF92BF92CF92DF92EF92FF925D
:100BD0000F931F93CF936B017C01742EAC019B018B
:100BE0000E94260E882399F080E792E0CF911F9112
:100BF0000F91FF90EF90DF90CF90BF90AF909F90BC
:100C00008F907F906F905F904F900C94E00446011E
:100C10005701E894B7F82FEF3FEF4FE75FE7C501C3
:100C2000B4010E94260E81110DC02FEF3FEF4FE758
:100C30005FE7C501B4010E945C0C18161CF484E740
:100C400092E0D4CF2FEF3FEF4FE75FE4C701B6014B
:100C50000E94B40D18161CF488E792E0C7CF2FEF5E
:100C60003FEF4FE75FECC701B6010E945C0C87FDC8
:100C7000F3CF20E030E0A901C701B6010E945C0C6F
:100C800010E000E087FF0CC041E06DE28DE494E0ED
:100C90000E944C05F7FAF094F7F8F09401E010E0A8
:100CA000C0E060E070E080E09FE37C1641F020E06F
:100CB00030E040E251E40E94610CCF5FF6CFA70123
:100CC00096010E94F00B4B015C010E94D30C2B019A
:100CD0003C014AE00E94ED04080F191FCC23C9F122
:100CE000C301B2010E94020D9B01AC01C501B40118
:100CF0000E94EF0B4B015C0141E06EE28DE494E059
:100D00000E944C050F5F1F4FC15018F120E030E0EA
:100D100040E251E4C501B4010E94B90D2B013C0130
:100D20000E94D30C4B01B12CA12C4AE0C501B401A7
:100D30000E94ED04080F191FC501B4010E94020DA5
:100D40009B01AC01C301B2010E94EF0B4B015C019E
:100D5000DBCFC801CF911F910F91FF90EF90DF90F3
:100D6000CF90BF90AF909F908F907F906F905F904B
:100D70004F900895CF92DF92EF92FF9289E00E9408
:100D8000D901BC01990F880B990B0E94040D6B01CE
:100D90007C010E94950560E080E00E9463058CE77D
:100DA00092E00E94310542E0C701B6010E94DC05D5
:100DB00020E030E040E85FE3C701B6010E945C0C30
:100DC00061E0811130C00E9463058CE892E00E94CE
:100DD000310562E080E00E94630586E992E00E94AE
:100DE000310563E080E00E94630581EA92E00E94A1
:100DF000310561E085E30E94020261E083E30E9425
:100E0000020260E084E30E94020261E08CE10E9441
:100E1000020264E670E080E090E0FF90EF90DF90E7
:100E2000CF900C94A80280E00E9463058DEA92E0C6
:100E30000E94310562E080E00E94630589EB92E048
:100E40000E94310563E080E00E94630585EC92E03A
:100E50000E94310560E085E30E94020260E08CE1BF
:100E6000FF90EF90DF90CF900C940202CF92DF9230
:100E7000EF92FF9287E30E946C02BC01990F880BEE
:100E8000990B0E94040D20E030E040EA50E40E94FB
:100E9000B90D20E030EC4FE754E40E94610C2AE0E9
:100EA00037ED43E25CE30E94610C6B017C010E9420
:100EB000950560E080E00E94630582ED92E00E946B
:100EC000310542E0C701B6010E94DC0520E030E0B8
:100ED00040EF51E4C701B6010E94B40D61E018165D
:100EE000FCF480E00E94630589ED92E00E943105E8
:100EF00062E080E00E9463058AEE92E00E94310584
:100F000061E080E30E94020261E081E30E9402024C
:100F100060E082E3FF90EF90DF90CF900C940202AC
:100F200080E00E94630584EF92E00E94310562E058
:100F300080E00E94630588E093E00E94310560E054
:100F400080E3E8CFCF92DF92EF92FF9286E30E9498
:100F50006C0224E630E0DC010E94330E2FEF33E018
:100F600040E050E00E949F0BCA01B9010E94040DAD
:100F70006B017C010E94950560E080E00E946305A2
:100F800083E193E00E94310542E0C701B6010E946F
:100F9000DC058EE193E00E94310520E030E040E284
:100FA00052E4C701B6010E945C0C87FF24C061E0D7
:100FB00087E00E94300261E087E00E94020261E067
:100FC00089E10E94020260E08AE10E94020261E07F
:100FD00080E00E94630580E293E00E94310562E0B8
:100FE00080E00E9463058CE293E0FF90EF90DF9039
:100FF000CF900C94310560E087E00E94020261E02E
:1010000080E00E94630588E393E00E94310562E07E
:1010100080E00E94630587E493E0E7CF85ED80934D
:10102000BC0080910A0490910B04A0910C04B09133
:101030000D040796A11DB11D23E0B695A7959795C0
:1010400087952A95D1F72091BC0024FD03C010920A
:101050000804089540910A0450910B0460910C0417
:1010600070910D04452B462B472B69F30097A10582
:10107000B10541F02AE22A95F1F700C00197A109D4
:10108000B109E1CF809109040C944F031F920F9294
:101090000FB60F9211242F933F938F939F93AF938B
:1010A000BF938091390490913A04A0913B04B09190
:1010B0003C043091380423E0230F2D3758F5019676
:1010C000A11DB11D209338048093390490933A04F4
:1010D000A0933B04B0933C0480913D0490913E0466
:1010E000A0913F04B09140040196A11DB11D8093D1
:1010F0003D0490933E04A0933F04B0934004BF91FD
:10110000AF919F918F913F912F910F900FBE0F90B4
:101110001F90189526E8230F0296A11DB11DD2CF6E
:101120001F920F920FB60F9211240BB60F922F93AE
:101130003F934F935F936F937F938F939F93AF935F
:10114000BF93EF93FF938091B900887F803609F4B5
:101150004DC008F040C0883209F4A9C028F580319C
:1011600009F49DC0C8F4882309F4FBC0883009F451
:1011700096C0FF91EF91BF91AF919F918F917F9119
:101180006F915F914F913F912F910F900BBE0F90F8
:101190000FBE0F901F901895883109F488C08032D7
:1011A00041F78093060414C0803409F49DC040F4D4
:1011B0008033B9F38833E9F68093060485ECB0C038
:1011C000803509F485C0883509F496C0883489F6DD
:1011D0000E940E08CECF883909F48CC038F58837C4
:1011E00029F050F4883611F0803719F683E08093A7
:1011F00008041092E10357C0883809F47BC0803995
:1012000019F0803809F0B5CF8091E103803208F001
:1012100071C0E091E10381E08E0F8093E103809142
:10122000BB00F0E0EF53FC4F80833DC0803B39F0C2
:10123000E0F4803A09F479C0883A09F09ACF84E062
:10124000809308041092C0031092BF03E09132040F
:10125000F091330419958091BF0381110FC081E093
:101260008093BF0310929F0309C0803C09F4A6CF6E
:10127000883C09F4A3CF883B09F07BCFE091C00301
:1012800081E08E0F8093C003F0E0E156FC4F808137
:101290008093BB009091C0038091BF0329C08091CF
:1012A000E3038093BB0085EC8093BC0062CF9091F8
:1012B000050480910404981758F5E091050481E035
:1012C0008E0F80930504F0E0EC51FC4F8081E9CF54
:1012D000E091050481E08E0F809305048091BB00AE
:1012E000F0E0EC51FC4F8083909105048091040460
:1012F0009817C8F285E8D8CFE091050481E08E0FF9
:10130000809305048091BB00F0E0EC51FC4F80839A
:101310008091070481115CCF81E08093E20384EA2D
:101320008093BC001092080424CF85EC8093BC000D
:10133000109208048091E103803230F4E091E103DF
:10134000F0E0EF53FC4F10826091E10370E0E09118
:101350003004F091310481EC93E019951092E1038F
:1013600008CF1092060434CFE1E4F4E01382128235
:1013700088EE93E0A0E0B0E084839583A683B783F2
:101380008FE092E091838083EDE4F4E01382128297
:1013900081E292E09183808387E2848384E1818784
:1013A00084E0828713860895789484B5826084BD32
:1013B00084B5816084BD85B5826085BD85B5816059
:1013C00085BD80916E00816080936E0010928100D7
:1013D0008091810082608093810080918100816092
:1013E0008093810080918000816080938000809153
:1013F000B10084608093B1008091B00081608093DF
:10140000B000809191008260809391008091910062
:101410008160809391008091900081608093900022
:101420008091A10082608093A1008091A1008160E1
:101430008093A1008091A00081608093A0008091A2
:10144000210182608093210180912101816080933C
:1014500021018091200181608093200180917A0098
:10146000846080937A0080917A00826080937A0011
:1014700080917A00816080937A0080917A00806800
:1014800080937A001092C1001092370410923604B3
:1014900010923504109234040E9431038AED92E0D8
:1014A00090933304809332048BED92E09093310457
:1014B000809330041092520480915704823018F0C7
:1014C00098E0909352048093550462E370E080E0CA
:1014D00090E00E94A802609158048DE494E00E947C
:1014E000F60368EE73E080E090E00E94A80260E3FB
:1014F0008DE494E00E943305CBE4D6E4CE0101975D
:10150000F1F760E38DE494E00E9433052197F1F751
:1015100060E38DE494E00E94330583E592E0019757
:10152000F1F760E28DE494E00E943305609152048B
:10153000606240E08DE494E00E944C0584E080937A
:10154000530440E06CE08DE494E00E944C050E945E
:10155000950582E08093540440E066E08DE494E0D9
:101560000E944C0540E062E08DE494E00E944C054E
:101570008BE39FE10197F1F788E08093580460E0E6
:101580008DE494E00E94F60360E081E00E94630530
:1015900084E593E00E94310561E082E00E946305EA
:1015A00085E693E00E94310562E083E00E946305D6
:1015B00087E793E00E94310564EF71E080E090E0FE
:1015C0000E94A8020E94950560E086E30E94300216
:1015D00060E087E30E94300260E089E00E94300210
:1015E00061E08CE10E94300261E087E00E943002FD
:1015F00061E089E10E94300261E08AE10E943002EC
:1016000061E080E30E94300261E081E30E943002E9
:1016100061E082E30E94300261E085E30E943002D3
:1016200061E083E30E94300261E084E30E943002C3
:1016300062E086E10E94300262E087E10E943002AF
:1016400061E088E20E943002C0E0D0E011E084E076
:10165000E82EF12C86E10E94D901892B59F51093CF
:10166000020280910202882341F10E94A20764EFE6
:1016700071E080E090E00E94A8020E94360764EFCB
:1016800071E080E090E00E94A8020E94BA0664EF38
:1016900071E080E090E00E94A8020E94A00564EF43
:1016A00071E080E090E00E94A802209799F20E94E9
:1016B0000000D0CF10920202D4CF8091000290910E
:1016C00001028430910529F50E94A2076AEF70E0BB
:1016D00080E090E00E94A80287E10E94D901892B56
:1016E00021F78091000290910102019718161906C6
:1016F0000CF5909301028093000287E10E94D901CA
:10170000892B99F66AE070E080E090E00E94A802E0
:10171000F4CF8330910519F40E943607D7CF823079
:10172000910519F40E94BA06D1CF019779F60E946B
:10173000A005CCCFF0920102E0920002DECF052E90
:1017400097FB1EF400940E94B60B57FD07D00E9431
:10175000BE0B07FC03D04EF40C94B60B509540958D
:10176000309521953F4F4F4F5F4F0895909580954D
:10177000709561957F4F8F4F9F4F0895A1E21A2E6C
:10178000AA1BBB1BFD010DC0AA1FBB1FEE1FFF1F25
:10179000A217B307E407F50720F0A21BB30BE40B75
:1017A000F50B661F771F881F991F1A9469F76095BC
:1017B0007095809590959B01AC01BD01CF01089576
:1017C000A29FB001B39FC001A39F700D811D112482
:1017D000911DB29F700D811D1124911D08955058C7
:1017E000BB27AA270E94070C0C947A0D0E946C0D4F
:1017F00038F00E94730D20F039F49F3F19F426F45D
:101800000C94690D0EF4E095E7FB0C94630DE92F41
:101810000E948B0D58F3BA17620773078407950768
:1018200020F079F4A6F50C94AD0D0EF4E0950B2E96
:10183000BA2FA02D0B01B90190010C01CA01A00122
:101840001124FF27591B99F0593F50F4503E68F17D
:101850001A16F040A22F232F342F4427585FF3CFBE
:10186000469537952795A795F0405395C9F77EF48F
:101870001F16BA0B620B730B840BBAF09150A1F0D8
:10188000FF0FBB1F661F771F881FC2F70EC0BA0F5E
:10189000621F731F841F48F4879577956795B795E6
:1018A000F7959E3F08F0B0CF9395880F08F09927E1
:1018B000EE0F9795879508950E943F0D08F481E0FB
:1018C00008950E94750C0C947A0D0E94730D58F0C7
:1018D0000E946C0D40F029F45F3F29F00C94630DD9
:1018E00051110C94AE0D0C94690D0E948B0D68F390
:1018F0009923B1F3552391F3951B550BBB27AA27C9
:1019000062177307840738F09F5F5F4F220F331F02
:10191000441FAA1FA9F335D00E2E3AF0E0E832D0CA
:1019200091505040E695001CCAF72BD0FE2F29D0CD
:10193000660F771F881FBB1F261737074807AB079F
:10194000B0E809F0BB0B802DBF01FF2793585F4F14
:101950003AF09E3F510578F00C94630D0C94AE0D57
:101960005F3FE4F3983ED4F3869577956795B795F6
:10197000F7959F5FC9F7880F911D9695879597F901
:101980000895E1E0660F771F881FBB1F621773077A
:101990008407BA0720F0621B730B840BBA0BEE1F8F
:1019A00088F7E09508950E94930D88F09F5798F06E
:1019B000B92F9927B751B0F0E1F0660F771F881F54
:1019C000991F1AF0BA95C9F714C0B13091F00E946E
:1019D000AD0DB1E008950C94AD0D672F782F8827D9
:1019E000B85F39F0B93FCCF3869577956795B39595
:1019F000D9F73EF490958095709561957F4F8F4F04
:101A00009F4F0895E89409C097FB3EF49095809508
:101A1000709561957F4F8F4F9F4F9923A9F0F92FB4
:101A200096E9BB279395F695879577956795B79532
:101A3000F111F8CFFAF4BB0F11F460FF1BC06F5F18
:101A40007F4F8F4F9F4F16C0882311F096E911C02A
:101A5000772321F09EE8872F762F05C0662371F04B
:101A600096E8862F70E060E02AF09A95660F771F5F
:101A7000881FDAF7880F9695879597F90895990F3B
:101A80000008550FAA0BE0E8FEEF16161706E80748
:101A9000F907C0F012161306E407F50798F0621B69
:101AA000730B840B950B39F40A2661F0232B242B3E
:101AB000252B21F408950A2609F4A140A6958FEF5D
:101AC000811D811D089597F99F6780E870E060E0AF
:101AD00008959FEF80EC089500240A9416161706C7
:101AE00018060906089500240A941216130614060F
:101AF00005060895092E0394000C11F4882352F072
:101B0000BB0F40F4BF2B11F460FF04C06F5F7F4F29
:101B10008F4F9F4F089557FD9058440F551F59F010
:101B20005F3F71F04795880F97FB991F61F09F3FCA
:101B300079F087950895121613061406551FF2CFF3
:101B40004695F1DF08C0161617061806991FF1CF43
:101B500086957105610508940895E894BB2766276A
:101B60007727CB0197F908950E943F0D08F48FEF76
:101B700008950E94CC0D0C947A0D0E946C0D38F0E3
:101B80000E94730D20F0952311F00C94630D0C94BA
:101B9000690D11240C94AE0D0E948B0D70F3959F6E
:101BA000C1F3950F50E0551F629FF001729FBB2754
:101BB000F00DB11D639FAA27F00DB11DAA1F649FF0
:101BC0006627B00DA11D661F829F2227B00DA11DA3
:101BD000621F739FB00DA11D621F839FA00D611D29
:101BE000221F749F3327A00D611D231F849F600D4A
:101BF000211D822F762F6A2F11249F5750409AF073
:101C0000F1F088234AF0EE0FFF1FBB1F661F771FFE
:101C1000881F91505040A9F79E3F510580F00C94C9
:101C2000630D0C94AE0D5F3FE4F3983ED4F38695BC
:101C300077956795B795F795E7959F5FC1F7FE2B69
:101C4000880F911D9695879597F908950E943F0DED
:101C5000880B990B0895EE0FFF1F881F8BBF07900D
:101C6000F691E02D19940E94E00BB7FF0895821BB6
:101C7000930B0895F894FFCF040001000040001476
:101C800000540000000000C7039A03DD04700393B2
:101C9000038003710300000000D605DC02DD0409A7
:101CA000036D6F7573652074726170203A20004374
:101CB00041544348454421200042757A7A65723A7E
:101CC000204F4E2000547261702061637469766108
:101CD0007465642000746865726520617265206EA9
:101CE0006F204D69636520006E616E00696E66004D
:101CF0006F766600466C616D652073656E736F72FA
:101D0000203A20005741524E494E4721200046417B
:101D10004E20323A204F4E200062757A7A65723A30
:101D2000204F4E200069742069732073616665201E
:101D30000046414E20323A204F4646200062757AD6
:101D40007A65723A204F4646200054656D703A20FD
:101D50000068696768207468616E206E6F726D61DB
:101D60006C0046414E20313A204F4E006E6F726D2E
:101D7000616C2074656D70657261747572652000A8
:101D800046414E20313A204F4646004D6F697374EC
:101D90007572653A2000250073746174653A204CB1
:101DA0004F57200050554D50204953204F4E200092
:101DB00053746174653A204E4F524D414C2000508F
:101DC000554D50204953204F46462000536D6172B7
:101DD000742049727269676174696F6E00616E6424
:101DE00020706C616E74206D6F6E65746F7200731D
:061DF000797374656D00BB
:020000040003F7
:10E000000D9489F10D94B2F10D94B2F10D94B2F129
:10E010000D94B2F10D94B2F10D94B2F10D94B2F1F0
:10E020000D94B2F10D94B2F10D94B2F10D94B2F1E0
:10E030000D94B2F10D94B2F10D94B2F10D94B2F1D0
:10E040000D94B2F10D94B2F10D94B2F10D94B2F1C0
:10E050000D94B2F10D94B2F10D94B2F10D94B2F1B0
:10E060000D94B2F10D94B2F10D94B2F10D94B2F1A0
:10E070000D94B2F10D94B2F10D94B2F10D94B2F190
:10E080000D94B2F10D94B2F10D94B2F10D94B2F180
:10E090000D94B2F10D94B2F10D94B2F10D94B2F170
:10E0A0000D94B2F10D94B2F10D94B2F10D94B2F160
:10E0B0000D94B2F10D94B2F10D94B2F10D94B2F150
:10E0C0000D94B2F10D94B2F10D94B2F10D94B2F140
:10E0D0000D94B2F10D94B2F10D94B2F10D94B2F130
:10E0E0000D94B2F141546D656761323536300041AF
:10E0F000726475696E6F206578706C6F72657220DE
:10E1000073746B3530305632206279204D4C530099
:10E11000426F6F746C6F616465723E004875683F52
:10E1200000436F6D70696C6564206F6E203D200048
:10E130004350552054797065202020203D20005FF9
:10E140005F4156525F415243485F5F3D2000415658
:10E1500052204C696243205665723D20004743437C
:10E160002056657273696F6E203D20004350552024
:10E1700049442020202020203D20004C6F7720663D
:10E18000757365202020203D20004869676820665F
:10E190007573652020203D200045787420667573D6
:10E1A00065202020203D20004C6F636B2066757336
:10E1B000652020203D20004D617220203720323024
:10E1C000313300312E362E3800342E332E350056A2
:10E1D00023202020414444522020206F7020636F70
:10E1E00064652020202020696E73747275637469E1
:10E1F0006F6E2061646472202020496E74657272B3
:10E20000757074006E6F20766563746F7200726A49
:10E210006D702020006A6D70200057686174207056
:10E220006F72743A00506F7274206E6F7420737541
:10E2300070706F72746564004D7573742062652030
:10E2400061206C6574746572002000577269747483
:10E25000696E672045450052656164696E672045B7
:10E26000450045452065727220636E743D00504F35
:10E27000525400303D5A65726F2061646472003FF1
:10E280003D43505520737461747300403D454550C3
:10E29000524F4D207465737400423D426C696E6B41
:10E2A000204C454400453D44756D70204545505215
:10E2B0004F4D00463D44756D7020464C415348001B
:10E2C000483D48656C70004C3D4C69737420492F83
:10E2D0004F20506F72747300513D51756974005234
:10E2E0003D44756D702052414D00563D73686F7707
:10E2F00020696E7465727275707420566563746FF0
:10E30000727300593D506F727420626C696E6B00BD
:10E310002A0011241FBECFEFD1E2DEBFCDBF01E046
:10E320000CBF12E0A0E0B2E0EEE1FDEF03E00BBFB6
:10E3300002C007900D92A030B107D9F712E0A0E01B
:10E34000B2E001C01D92AE30B107E1F70F9460F367
:10E350000D948DFE01E20EBF0FEF0DBF11241FBE05
:10E360000D9460F30D9400F020E030E040ED57E0B4
:10E3700005C0FA013197F1F72F5F3F4F2817390792
:10E38000C0F308959C01260F311DC901A0E0B0E043
:10E390002F5F3F4FABBFFC018791882361F08093D3
:10E3A000C6008091C00086FFFCCF8091C0008064D1
:10E3B0008093C000EACF08958DE08093C6008091DD
:10E3C000C00086FFFCCF8091C00080648093C000B5
:10E3D0008AE08093C6008091C00086FFFCCF8091C8
:10E3E000C00080648093C00008950F94C2F10F9420
:10E3F000DCF10895FC019081992359F09093C600B7
:10E400008091C00086FFFCCF8091C0008064809323
:10E41000C0003196992379F70895282F982F929567
:10E420009F70892F805D8A3308F0895F8093C600D2
:10E430008091C00086FFFCCF8091C00080648093F3
:10E44000C000822F8F70982F905D9A3308F0995FEB
:10E450009093C6008091C00086FFFCCF8091C000E1
:10E4600080648093C00008959C01FB01853691056E
:10E470001CF46330710594F0C90164E670E00F94F8
:10E480002EFE605D7F4F6093C6008091C00086FFC6
:10E49000FCCF8091C00080648093C0002B30310598
:10E4A00014F43297B4F0C90164E670E00F942EFEC4
:10E4B0006AE070E00F942EFE605D7F4F6093C600AF
:10E4C0008091C00086FFFCCF8091C0008064809363
:10E4D000C000C9016AE070E00F942EFEC0968093E0
:10E4E000C6008091C00086FFFCCF8091C000806490
:10E4F0008093C00008951F93182F8EE692EE60E07F
:10E500000F94C2F11093C6008091C00086FFFCCF2B
:10E510008091C00080648093C0000F94DCF11F9153
:10E5200008952F923F924F925F926F927F928F92B7
:10E530009F92AF92BF92CF92DF92EF92FF920F9392
:10E540001F93DF93CF93CDB7DEB762970FB6F894E2
:10E55000DEBF0FBECDBF382E622ECA01DB015C01CB
:10E560006D01772420E2222E2E010894411C511CBB
:10E570008BC081E0A81680E0B80681E0C80680E084
:10E58000D80628F0C601AA27BB270F940DF2BB2797
:10E59000AD2D9C2D8B2D0F940DF28A2D0F940DF225
:10E5A0002092C6008091C00086FFFCCF8091C00001
:10E5B00080648093C0009DE29093C6008091C0006B
:10E5C00086FFFCCF8091C00080648093C0002092C1
:10E5D000C6008091C00086FFFCCF8091C00080649F
:10E5E0008093C00019828601750188249924A1E0D6
:10E5F0003A1651F03A1620F0B2E03B1661F409C029
:10E600000BBFF701779007C0C7010F9477FE782EF4
:10E6100002C0F7017080872D0F940DF22092C60082
:10E620008091C00086FFFCCF8091C0008064809301
:10E63000C000872D8052F401EF70F0708F3520F408
:10E64000E40DF51D708204C0E40DF51D8EE280839B
:10E650000894E11CF11C011D111D0894811C911CE2
:10E6600090E18916910409F0C2CF80E190E0A0E02A
:10E67000B0E0A80EB91ECA1EDB1E198AC2010F9493
:10E68000FAF10F94DCF16A94662009F072CF629679
:10E690000FB6F894DEBF0FBECDBFCF91DF911F91B3
:10E6A0000F91FF90EF90DF90CF90BF90AF909F9031
:10E6B0008F907F906F905F904F903F902F90089534
:10E6C0002F923F924F925F926F927F928F929F9282
:10E6D000AF92BF92CF92DF92EF92FF920F931F9370
:10E6E000DF93CF93CDB7DEB7CD53D1400FB6F894BB
:10E6F000DEBF0FBECDBF01E20EBF0FEF0DBF94B75F
:10E70000F894A89514BE80916000886180936000A1
:10E7100010926000789493FF05C0E0910002F091A0
:10E7200001021995279A2F9A8091C00082608093E8
:10E73000C00080E18093C40088E18093C1000000A4
:10E74000EE24FF24870144E0A42EB12CCC24DD2448
:10E7500024C0C5010197F1F70894E11CF11C011DCB
:10E76000111D21E2E2162EE4F20620E0020720E06D
:10E77000120718F031E0C32ED12CC801B70127ECE5
:10E780003BE140E050E00F9441FE611571058105C9
:10E79000910519F485B1805885B98091C00087FD35
:10E7A00003C0C114D104A9F2A6014F5F5F4FC25E3E
:10E7B000DE4F59834883CE51D140C25EDE4F8881FF
:10E7C0009981CE51D140019711F00D9410FEC05D9A
:10E7D000DE4F19821882C053D14060E0C15DDE4F28
:10E7E0001882CF52D14088249924C35DDE4F19820C
:10E7F0001882CD52D140C05EDE4F188219821A8233
:10E800001B82C052D140CE5CDE4F188219821A8220
:10E810001B82C253D140EE24FF2487010BBFF701B6
:10E8200007911691C45CDE4F19830883CC53D14005
:10E830000D940BFEC25EDE4F28813981CE51D1404E
:10E840002130310509F52091C600C25EDE4F1982E4
:10E850001882CE51D14022C02F5F3F4F4F4F5F4FA4
:10E86000213082E138078AE7480780E0580780F0C6
:10E87000C45CDE4FE881F981CC53D140EF5FFF4F9C
:10E8800019F0EE27FF27099420E030E040E050E047
:10E890008091C00087FFE0CF2091C600C35DDE4FAE
:10E8A00048815981CD52D1404F5F5F4FC35DDE4FEC
:10E8B00059834883CD52D140213209F063C64A3092
:10E8C000510508F05FC60894811C911C53E0851621
:10E8D000910409F059C600E010E018C081E280936D
:10E8E000C6008091C00086FFFCCF8091C00080648C
:10E8F0008093C0002F5F3F4F2931310579F70F9486
:10E90000DCF10F5F1F4F0530110519F020E030E0FA
:10E91000E5CF10920A0210920B0210920C02109294
:10E920000D02109206021092070210920802109235
:10E930000902109202021092030210920402109235
:10E9400005028FEE90EE60E00F94F5F180E191EE1C
:10E9500060E00F94C2F18091C00087FFFCCF9091DE
:10E96000C600903608F09F759032B8F09093C600BC
:10E970008091C00086FFFCCF8091C00080648093AE
:10E98000C000A0E2A093C6008091C00086FFFCCF2B
:10E990008091C00080648093C000983409F4D7C18E
:10E9A0009934B8F4923409F459C1933458F490333B
:10E9B00019F1903308F4E3C59F33A1F1903409F0C5
:10E9C000DEC5BDC0953409F470C1963409F0D7C5D1
:10E9D00098C1923509F42BC2933538F49C3409F46C
:10E9E000F5C1913509F0CBC518C2963509F445C279
:10E9F000993509F0C4C567C483E792EE62E00F94CD
:10EA0000F5F110920602109207021092080210927D
:10EA1000090210920A0210920B0210920C0210923C
:10EA20000D0213C18FE792EE62E00F94F5F18FEEC5
:10EA300090EE60E00F94F5F181E291EE60E00F94CA
:10EA4000C2F187EB91EE60E00F94F5F180E391EE77
:10EA500060E00F94C2F184EE90EE60E00F94F5F167
:10EA60008FE391EE60E00F94C2F186E090E061E008
:10EA700070E00F9434F20F94DCF18DE591EE60E0DC
:10EA80000F94C2F189EC91EE60E00F94F5F18EE401
:10EA900091EE60E00F94C2F183EC91EE60E00F9490
:10EAA000F5F18CE691EE60E00F94C2F18EE10F94E7
:10EAB0000DF288E90F940DF281E00F940DF20F949E
:10EAC000DCF18BE791EE60E00F94C2F119E0E0E039
:10EAD000F0E010935700E4918E2F0F940DF20F94F5
:10EAE000DCF18AE891EE60E00F94C2F1E3E0F0E03F
:10EAF00010935700E4918E2F0F940DF20F94DCF1D8
:10EB000089E991EE60E00F94C2F1E2E0F0E0109349
:10EB10005700E4918E2F0F940DF20F94DCF188EAE8
:10EB200091EE60E00F94C2F1E1E0F0E01093570045
:10EB30001491812F0F940DF20F94DCF107CF8BE825
:10EB400092EE62E00F94F5F18BE492EE60E00F94A8
:10EB5000F5F10F94DCF100E010E019C0C8016F2D51
:10EB60000F947FFEFF2031F489E492EE60E00F9471
:10EB7000C2F10BC0F092C6008091C00086FFFCCFAE
:10EB80008091C00080648093C0000F5F1F4FC80158
:10EB900081519F41A0E0B0E0ABBFFC01F790BAE229
:10EBA000FB1621F0E2E000301E07C1F60F94DCF105
:10EBB0000F94DCF187E592EE60E00F94F5F10F948D
:10EBC000DCF1CC24DD2400E010E01EC0C8010F946D
:10EBD00077FEF82E882331F489E492EE60E00F94FA
:10EBE000C2F10BC08093C6008091C00086FFFCCFAD
:10EBF0008091C00080648093C000FE1419F00894D6
:10EC0000C11CD11C0F5F1F4FC80181519F41A0E063
:10EC1000B0E0ABBFFC01E790FAE2EF1621F022E092
:10EC20000030120799F60F94DCF10F94DCF182E6C4
:10EC300092EE60E00F94C2F1C60161E070E00F94C3
:10EC400034F20F94DCF10F94DCF110920202109276
:10EC50000302109204021092050278CE89E992EE26
:10EC600062E00F94F5F1279A2F9A16C02F9880E052
:10EC700090E0E0EDF7E03197F1F7019684369105E9
:10EC8000C1F72F9A80E090E0E0EDF7E03197F1F7DF
:10EC9000019684369105C1F78091C00087FFE6CFC9
:10ECA0008091C00087FFFCCF64C485EA92EE62E0E9
:10ECB0000F94F5F140910202509103026091040219
:10ECC0007091050281E020E10F9491F2809102029F
:10ECD00090910302A0910402B091050280509F4FD1
:10ECE000AF4FBF4F8093020290930302A0930402A0
:10ECF000B093050280509041A040B04008F426CE69
:10ED0000A4CF83EB92EE62E00F94F5F140910602FE
:10ED100050910702609108027091090280E020E1A1
:10ED20000F9491F28091060290910702A09108023F
:10ED3000B091090280509F4FAF4FBF4F80930602A2
:10ED400090930702A0930802B0930902FFCD80ECD4
:10ED500092EE62E00F94F5F183E792EE60E00F949B
:10ED6000F5F18FE792EE60E00F94F5F18BE892EE0B
:10ED700060E00F94F5F189E992EE60E00F94F5F10F
:10ED800085EA92EE60E00F94F5F183EB92EE60E09D
:10ED90000F94F5F180EC92EE60E00F94F5F187ECC2
:10EDA00092EE60E00F94F5F188ED92EE60E00F9442
:10EDB000F5F18FED92EE60E00F94F5F18AEE92EEB0
:10EDC00060E00F94F5F183E093EEBDCD87EC92EE19
:10EDD00062E00F94F5F181E40F947BF282E40F94EA
:10EDE0007BF283E40F947BF284E40F947BF285E45E
:10EDF0000F947BF286E40F947BF287E40F947BF20E
:10EE000088E40F947BF28AE40F947BF28BE40F94F6
:10EE10007BF28CE40F947BF299CD88ED92EE62E068
:10EE20000F94F5F1772473948824992409C48FED05
:10EE300092EE62E00F94F5F140910A0250910B02BC
:10EE400060910C0270910D0282E020E10F9491F22A
:10EE500080910A0290910B02A0910C02B0910D02D8
:10EE600080509F4FAF4FBF4F80930A0290930B0289
:10EE7000A0930C02B0930D0269CD8AEE92EE62E08F
:10EE80000F94F5F184EE90EE60E00F94F5F18FECC5
:10EE900091EE60E00F94F5F1662477244301CC5D98
:10EEA000DE4F19821882C452D140D401C301B695F5
:10EEB000A79597958795CA5DDE4F88839983AA8326
:10EEC000BB83C652D140CC5DDE4FA881B981C4520C
:10EED000D1401196CC5DDE4FB983A883C452D14096
:10EEE000CD0162E070E00F9434F2B0E2B093C6005E
:10EEF0008091C00086FFFCCF8091C0008064809329
:10EF0000C000EDE2E093C6008091C00086FFFCCF18
:10EF10008091C00080648093C000F0E2F093C6004E
:10EF20008091C00086FFFCCF8091C00080648093F8
:10EF3000C000CA5DDE4FE880F9800A811B81C6529D
:10EF4000D140BB27A12F902F8F2D0F940DF2CA5DBA
:10EF5000DE4F8881C652D1400F940DF2B0E2FB2EF5
:10EF6000F092C6008091C00086FFFCCF8091C00067
:10EF700080648093C0000DE30093C6008091C000C0
:10EF800086FFFCCF8091C00080648093C00010E2B7
:10EF90001093C6008091C00086FFFCCF8091C00016
:10EFA00080648093C0008BBEF3012791C65DDE4F65
:10EFB0002883CA52D140A22EBB24CC24DD2408943D
:10EFC000611C711C811C911C8BBEF3018791282E42
:10EFD0003324442455240894611C711C811C911C09
:10EFE0008BBEF3013791C55DDE4F3883CB52D140E4
:10EFF0000894611C711C811C911C8BBEF30147910C
:10F00000C45DDE4F4883CC52D140ADEFEA2EAFEF66
:10F01000FA2EAFEF0A2FAFEF1A2F6E0C7F1C801E57
:10F02000911E142D032DF22CEE24EA0CFB1C0C1D5A
:10F030001D1D0F940DF220E22093C6008091C000A8
:10F0400086FFFCCF8091C00080648093C000C65DC5
:10F05000DE4F8881CA52D1400F940DF230E23093D6
:10F06000C6008091C00086FFFCCF8091C000806404
:10F070008093C000C45DDE4F8881CC52D1400F9494
:10F080000DF240E24093C6008091C00086FFFCCFA5
:10F090008091C00080648093C000C55DDE4F888190
:10F0A000CB52D1400F940DF250E25093C6008091A4
:10F0B000C00086FFFCCF8091C00080648093C000B8
:10F0C0008FEFE8168FEFF80680E0080780E018075A
:10F0D00031F484E092EE60E00F94C2F1DFC0D80119
:10F0E000C7018070907CA070B0708050904CA040A0
:10F0F000B040D1F52FEF3FE340E050E0E222F322B1
:10F1000004231523CA5DDE4FA880B980CA80DB8046
:10F11000C652D140AE0CBF1CC01ED11EAA0CBB1CD7
:10F12000CC1CDD1C8EE092EE60E00F94C2F1BB2798
:10F13000A12F902F8F2D0F940DF28E2D0F940DF285
:10F1400030E23093C6008091C00086FFFCCF8091F2
:10F15000C00080648093C0004EE34093C60080915D
:10F16000C00086FFFCCF87C08EE09EEFA0E0B0E03D
:10F17000E822F9220A231B239CE0E91694E9F90608
:10F1800090E0090790E0190709F088C0C45DDE4FE0
:10F19000A881CC52D140EA2EFF2400E010E0102FCD
:10F1A0000F2DFE2CEE24C55DDE4FB881CB52D14031
:10F1B000EB0EF11C011D111DD601C501817090706F
:10F1C000A070B070DC0199278827E80EF91E0A1F8D
:10F1D0001B1F20EF30E040E050E0A222B322C42207
:10F1E000D52241E1AA0CBB1CCC1CDD1C4A95D1F7F1
:10F1F000EA0CFB1C0C1D1D1D81E090E0A0E0B0E0BE
:10F20000282239224A225B2235E1220C331C441C7D
:10F21000551C3A95D1F7E20CF31C041D151D57013E
:10F220006801AA0CBB1CCC1CDD1C85E192EE60E0E1
:10F230000F94C2F1C801AA27BB270F940DF2BB2778
:10F24000A12F902F8F2D0F940DF28E2D0F940DF274
:10F2500090E29093C6008091C00086FFFCCF809121
:10F26000C00080648093C000AEE3A093C60080918C
:10F27000C00086FFFCCF8091C00080648093C000F6
:10F28000C601AA27BB270F940DF2BB27AD2D9C2DDD
:10F290008B2D0F940DF28A2D0F940DF20F94DCF14B
:10F2A000CC5DDE4FE881F981C452D140F99709F471
:10F2B0004DCBF4E0EF2EF12C012D112D6E0C7F1CA7
:10F2C000801E911EF2CD83E093EE62E00F94F5F183
:10F2D0008AE192EE60E00F94C2F18091C00087FF56
:10F2E000FCCF1091C6001F751093C6008091C0001E
:10F2F00086FFFCCF8091C00080648093C0000F9493
:10F30000DCF1812F81548A3108F036C1163409F4BA
:10F3100095C0173490F4133409F44EC0143430F40B
:10F320001134F1F0123409F01DC130C0143409F465
:10F3300059C0153409F016C16BC01A3409F4C4C0A1
:10F340001B3438F4173409F48FC0183409F00AC19B
:10F35000A1C01B3409F4D2C01C3409F003C1E8C0B9
:10F360008FEF81B90DC082B1809582B980E090E0C5
:10F37000E0EDF7E03197F1F70196883C9105C1F790
:10F380008091C00087FFEFCF12B8EFC08FEF84B934
:10F390000DC085B1809585B980E090E0E0EDF7E0A3
:10F3A0003197F1F70196883C9105C1F78091C00033
:10F3B00087FFEFCF15B8D9C08FEF87B90DC088B1DF
:10F3C000809588B980E090E0E0EDF7E03197F1F7C3
:10F3D0000196883C9105C1F78091C00087FFEFCF6F
:10F3E00018B8C3C08FEF8AB90DC08BB180958BB9A7
:10F3F00080E090E0E0EDF7E03197F1F70196883C8E
:10F400009105C1F78091C00087FFEFCF1BB8ADC059
:10F410008FEF8DB90DC08EB180958EB980E090E0F0
:10F42000E0EDF7E03197F1F70196883C9105C1F7DF
:10F430008091C00087FFEFCF1EB897C08FEF80BBD1
:10F440000DC081B3809581BB80E090E0E0EDF7E0F6
:10F450003197F1F70196883C9105C1F78091C00082
:10F4600087FFEFCF11BA81C08FEF83BB0DC084B38C
:10F47000809584BB80E090E0E0EDF7E03197F1F714
:10F480000196883C9105C1F78091C00087FFEFCFBE
:10F4900014BA6BC08FEF809301010FC080910201FD
:10F4A00080958093020180E090E0E0EDF7E03197F5
:10F4B000F1F70196883C9105C1F78091C00087FF64
:10F4C000EDCF1092020151C08FEF809304010FC065
:10F4D0008091050180958093050180E090E0E0ED4A
:10F4E000F7E03197F1F70196883C9105C1F78091DB
:10F4F000C00087FFEDCF1092050137C08FEF8093DA
:10F5000007010FC08091080180958093080180E079
:10F5100090E0E0EDF7E03197F1F70196883C910536
:10F52000C1F78091C00087FFEDCF109208011DC088
:10F530008FEF80930A010FC080910B01809580931B
:10F540000B0180E090E0E0EDF7E03197F1F70196F4
:10F55000883C9105C1F78091C00087FFEDCF1092E4
:10F560000B0103C085E292EEEEC98091C00087FFD7
:10F57000FCCF8091C600EAC988E392EEE4C98CE131
:10F5800091EEE1C988249924933011F1943028F444
:10F59000913089F09230B8F408C0953061F195301F
:10F5A000F0F0963009F048C043C02B3109F042C951
:10F5B00091E06BE13FC96227C15DDE4F2883CF52E6
:10F5C000D14092E037C9B22FA0E0622793E032C960
:10F5D000822F90E0A82BB92B622794E02BC92E3004
:10F5E00009F039C3622795E0C05DDE4F19821882A9
:10F5F000C053D1401FC9E1E0F0E0EC0FFD1FC05D3A
:10F60000DE4F08811981C053D140E00FF11F2083E4
:10F610000F5F1F4FC05DDE4F19830883C053D14079
:10F6200062270A171B0709F005C9D80196E002C92D
:10F63000261709F010C303C0973009F0FBC87724E0
:10F640009981933109F412C19431C8F4963009F4C8
:10F65000D8C0973050F4923009F406C1933009F4C1
:10F660006DC0913009F059C253C0913109F477C08F
:10F67000923108F0BBC0903109F04FC2F5C098310B
:10F6800009F487C0993150F4953109F4EFC09531F0
:10F6900008F4C6C1963109F040C2C2C19A3109F4DA
:10F6A0006CC09A3108F491C09B3109F45BC09D3164
:10F6B00009F033C29D81903359F48F81882311F46E
:10F6C0009EE11CC0813011F091E018C098E916C08D
:10F6D000892F807591F0903539F4E0E0F0E089E011
:10F6E0008093570094910AC0983539F4E3E0F0E034
:10F6F00089E080935700949101C090E01A821B82A8
:10F700008D818C831D829E831F8227E030E009C299
:10F710001A8288E08B8381E48C8386E58D8382E581
:10F720008E8389E48F8383E5888780E589878FE5E9
:10F730008A8782E38B872BE030E0F3C18A818139AD
:10F7400041F0823941F0803911F48FE005C080E04A
:10F7500003C082E001C08AE01A828B8344C0772410
:10F76000739482C08D81882311F48EE12CC0813086
:10F7700011F081E028C088E926C01A82E1E0F0E0BB
:10F7800089E08093570084918B831C8224E030E0D1
:10F79000C8C18B81803589F48C81883039F4E2E0EE
:10F7A000F0E089E08093570084910DC0E0E0F0E044
:10F7B00089E080935700849106C0E3E0F0E089E09F
:10F7C0008093570084911A82DFCF8D81836C99E0FA
:10F7D000E1E0F0E0082E90935700E89507B600FCB2
:10F7E000FDCF1A821B8223E030E09BC180EC8A832C
:10F7F000CE5CDE4F188219821A821B82C253D1401E
:10F800008EC18A8190E0A0E0B0E0582F44273327D2
:10F8100022278B8190E0A0E0B0E0DC0199278827C7
:10F82000282B392B4A2B5B2B8D8190E0A0E0B0E098
:10F83000282B392B4A2B5B2B8C8190E0A0E0B0E089
:10F84000BA2FA92F982F8827282B392B4A2B5B2BCF
:10F85000220F331F441F551FC05EDE4F288339839C
:10F860004A835B83C052D1401A8259C13A81C95C34
:10F87000DE4F3883C753D140CA5CDE4F1882C6536F
:10F88000D1408B81C82EDD24CA5CDE4F488159816E
:10F89000C653D140C42AD52A933109F082C0CE5C28
:10F8A000DE4F88819981AA81BB81C253D1408050AB
:10F8B000904CA340B04030F583E0CE5CDE4FE88052
:10F8C000F9800A811B81C253D140F70100935B008C
:10F8D00080935700E89507B600FCFDCFCE5CDE4F65
:10F8E000088119812A813B81C253D14000501F4FAA
:10F8F0002F4F3F4FCE5CDE4F088319832A833B8313
:10F90000C253D140C05EDE4F488159816A817B81FC
:10F91000C052D140DE011B9631E08C9111962C91A2
:10F9200011971296C75CDE4F2883C953D140C85C3B
:10F93000DE4F1882C853D14090E0C85CDE4FE881AA
:10F94000F981C853D1408E2B9F2B0C01FA01609393
:10F950005B0030935700E89511244E5F5F4F6F4F67
:10F960007F4F0EEFE02E0FEFF02ECE0CDF1CC114F8
:10F97000D10499F685E0C05EDE4F088119812A81A5
:10F980003B81C052D140F80120935B008093570027
:10F99000E89507B600FCFDCF81E180935700E8951C
:10F9A00035C0C05EDE4F88819981AA81BB81C0527B
:10F9B000D140B695A795979587957C018601ABE0D8
:10F9C000AA2EB12CAC0EBD1E0BC0D5016D915D01F0
:10F9D000C7010F947FFE0894E11CF11C01501040F8
:10F9E0000115110591F7A60160E070E0440F551F65
:10F9F000661F771FC05EDE4FE880F9800A811B8199
:10FA0000C052D1404E0D5F1D601F711F1A82C05E33
:10FA1000DE4F488359836A837B83C052D1407FC0C5
:10FA2000FA80C55CDE4FF882CB53D140C65CDE4F16
:10FA30001882CA53D1408B81C82EDD24C65CDE4FAC
:10FA400008811981CA53D140C02AD12A1A828981DA
:10FA5000BE016D5F7F4F843121F59601C05EDE4FA0
:10FA6000E880F9800A811B81C052D1400BBFF701A9
:10FA700087919691DB018C9311969C936E5F7F4FDB
:10FA8000D801C7010296A11DB11DC05EDE4F88835B
:10FA90009983AA83BB83C052D14022503040F1F6F3
:10FAA00036C0C05EDE4F288139814A815B81C052F9
:10FAB000D1400894C108D108760100E010E0089414
:10FAC000C11CD11C0894E11CF11C011D111DE20E8A
:10FAD000F31E041F151F21BDBB27A52F942F832FB5
:10FAE00082BD2F5F3F4F4F4F5F4FF89A80B5DB01CC
:10FAF0008D93BD012E153F054007510761F7C05E8C
:10FB0000DE4F288339834A835B83C052D1409601FC
:10FB10002D5F3F4FFB01108204C080EC8A8322E0FE
:10FB200030E08BE18093C6008091C00086FFFCCF5F
:10FB30008091C00080648093C000C15DDE4FF88179
:10FB4000CF52D140F093C6008091C00086FFFCCF19
:10FB50008091C00080648093C000432F3093C60022
:10FB60008091C00086FFFCCF8091C00080648093AC
:10FB7000C000922F2093C6008091C00086FFFCCF6A
:10FB80008091C00080648093C0008EE08093C600A6
:10FB90008091C00086FFFCCF8091C000806480937C
:10FBA000C00065E1C15DDE4FE880CF52D1406E25D7
:10FBB00069276427FE01319610C090819093C6009A
:10FBC0008091C00086FFFCCF31968091C000806498
:10FBD0008093C0006927215030402115310569F715
:10FBE0006093C6008091C00086FFFCCF8091C0006A
:10FBF00080648093C00085B1805885B9772081F4F6
:10FC0000C15DDE4F0881CF52D1400F5FC15DDE4F35
:10FC10000883CF52D14090E0A0E0B0E00D941AF4F8
:10FC200027982F9880E090E020ED37E0F901319798
:10FC3000F1F7019684369105C9F700008091C00064
:10FC40008D7F8093C00081E180935700E895EE2777
:10FC5000FF270994FFCF90E00D941AF497FB092E2B
:10FC600007260AD077FD04D02ED006D000201AF443
:10FC7000709561957F4F0895F6F7909581959F4F08
:10FC80000895A1E21A2EAA1BBB1BFD010DC0AA1FDD
:10FC9000BB1FEE1FFF1FA217B307E407F50720F0F5
:10FCA000A21BB30BE40BF50B661F771F881F991F70
:10FCB0001A9469F760957095809590959B01AC01B9
:10FCC000BD01CF010895AA1BBB1B51E107C0AA1FAC
:10FCD000BB1FA617B70710F0A61BB70B881F991FED
:10FCE0005A95A9F780959095BC01CD010895F99991
:10FCF000FECF92BD81BDF89A992780B50895262F31
:10FD0000F999FECF1FBA92BD81BD20BD0FB6F89400
:0EFD1000FA9AF99A0FBE01960895F894FFCF63
:00000001FF
