:100000000C943F010C9470010C9470010C947001DD
:100010000C9470010C9470010C9470010C9470019C
:100020000C9470010C9470010C9470010C9470018C
:100030000C9470010C9470010C9470010C9470017C
:100040000C9470010C9470010C9470010C9470016C
:100050000C9470010C9470010C9470010C9446087F
:100060000C9470010C9470010C9470010C9470014C
:100070000C9470010C9470010C9470010C9470013C
:100080000C9470010C9470010C9470010C9470012C
:100090000C9470010C9470010C9470010C949008F5
:1000A0000C9470010C9470010C9470010C9470010C
:1000B0000C9470010C9470010C9470010C947001FC
:1000C0000C9470010C9470010C9470010C947001EC
:1000D0000C9470010C9470010C9470010C947001DC
:1000E0000C9470010C949A030C9409030C94C701AE
:1000F0000C94D6050C94C3010C94B9010C94B50171
:100100000C9480030C94AB010C94C7030C94D001A5
:100110000C9490010C94DA020C94D1010C94AF0170
:100120000C94D5010C94B4090C949A010C94CB0155
:100130000C9496010C94DC020C94A5010C949E0185
:100140000C9470030C9493030C94DD040C94BD0187
:100150000C94DB020C9471030C94A20100002100AA
:10016000240027002A002D00300033000101000088
:10017000040107010A0100002200250028002B00CD
:100180002E003100340002010000050108010B01BE
:10019000000020002300260029002C002F00320040
:1001A0000001000003010601090105050505070519
:1001B00008080808020202020A0A080804040404E3
:1001C000010101010101010103030303030303030F
:1001D000040707070C0C0C0C0C0C0C0C020202029E
:1001E00006060606060606060B0B0B0B0B0B0B0B87
:1001F0000102102020080810204010204080020139
:10020000020108040201010204081020408080401D
:10021000201008040201800402018040201008041C
:1002200002010804020101020408102040800102BA
:1002300004081020408000000A0B02090C0D0E0873
:10024000070304010000000000000000000000009F
:10025000000000000000000000000000000000009E
:10026000000012111000000000000000000000005B
:10027000000000000000000000000000B40911248C
:100280001FBECFEFD1E2DEBFCDBF00E00CBF13E059
:10029000A0E0B2E0E8E7FCE100E00BBF02C007909D
:1002A0000D92AE37B107D9F724E0AEE7B3E001C055
:1002B0001D92A935B207E1F711E0CFE3D1E000E0EC
:1002C00006C021970109802FFE010E942B0ECE331C
:1002D000D10780E00807A9F70E94D4090C943A0ED0
:1002E0000C9400008150823108F05AC0E82FF0E0F1
:1002F0008827E258FE4F8F4F0C942B0E9E01A201CF
:10030000900196019A01D001A501AB01AF01B501A1
:10031000B901BD01C301C701D001CB01D101D50194
:10032000809180008F778093800008958091800075
:100330008F7DF9CF80918000877FF5CF84B58F774F
:1003400084BD089584B58F7DFBCF8091B0008F77F9
:100350008093B00008958091B0008F7DF9CF809197
:1003600090008F77809390000895809190008F7D0A
:10037000F9CF80919000877FF5CF8091A0008F7793
:100380008093A00008958091A0008F7DF9CF809187
:10039000A000877FF5CF809120018F778093200187
:1003A0000895809120018F7DF9CF80912001877F72
:1003B000F5CFCF93DF93282F30E0F901EA5CFD4FB2
:1003C0008491F901E051FE4FD491F901E655FE4FB9
:1003D000C491CC23A1F081110E947201EC2FF0E0B6
:1003E000EE0FFF1FE057FE4FA591B491EC91ED2366
:1003F00081E090E009F480E0DF91CF91089580E002
:1004000090E0FACF1F93CF93DF93282F30E0F901CC
:10041000EA5CFD4F8491F901E051FE4FD491F9015E
:10042000E655FE4FC491CC23A9F0162F81110E94EE
:100430007201EC2FF0E0EE0FFF1FEA58FE4FA5917E
:10044000B4918FB7F894EC91111108C0D095DE23C8
:10045000DC938FBFDF91CF911F910895DE2BF8CFF2
:10046000CF93DF9390E0FC01E051FE4F249186553D
:100470009E4FFC0184918823C9F090E0880F991F5A
:10048000FC01E45AFE4FA591B491FC01EA58FE4FDD
:10049000C591D49161110DC09FB7F8948C912095AE
:1004A00082238C938881282328839FBFDF91CF915B
:1004B0000895623051F49FB7F8943C91822F809553
:1004C00083238C93E8812E2BEFCF8FB7F894EC9198
:1004D0002E2B2C938FBFEACF90917B00977F909328
:1004E0007B008653806480937C0080917A008064D6
:1004F00080937A0080917A0086FDFCCF809178000D
:100500009091790008953FB7F89480913D049091BF
:100510003E04A0913F04B091400426B5A89B05C0BD
:100520002F3F19F00196A11DB11D3FBFBA2FA92F72
:10053000982F8827BC01CD01620F711D811D911D6F
:1005400042E0660F771F881F991F4A95D1F70895DB
:100550008F929F92AF92BF92CF92DF92EF92FF92D3
:100560004B015C010E9483026B017C010E948302AB
:100570006C197D098E099F09683E734081059105BC
:10058000A8F321E0821A9108A108B10888EEC80EEC
:1005900083E0D81EE11CF11C81149104A104B10474
:1005A00029F7FF90EF90DF90CF90BF90AF909F9092
:1005B0008F90089508950895AF92BF92CF92DF92E1
:1005C000EF92FF920F931F93CF93DF936C017B0108
:1005D0008B01040F151FEB015E01AE18BF08C01799
:1005E000D10759F06991D601ED91FC910190F0810C
:1005F000E02DC6011995892B79F7C501DF91CF91BF
:100600001F910F91FF90EF90DF90CF90BF90AF9030
:10061000089508952091BF03260F3327331F2132F9
:100620003105ECF420910804FC0190E080E02430D6
:1006300069F082E00895A091BF032191AC01415679
:100640005C4FA40FB52FB11D2C930196861798F31C
:100650008091BF03680F6093BF0380E0089581E03D
:1006600008951092080481E0809307041092E20339
:1006700061E084E10E94020261E085E10E940202E1
:10068000E9EBF0E080818E7F808380818D7F8083A5
:1006900088E48093B80085E48093BC000895CF93EC
:1006A000DF9391E090939E038823B9F0C091B80046
:1006B000D091BA008091BC008A7B8093BC0060E03E
:1006C00084E10E94020260E085E10E9402020E9431
:1006D0003103D093BA00C093B800DF91CF91089551
:1006E0000895E091370480913604E81730F4F0E083
:1006F000E258FC4F808190E008958FEF9FEF0895BE
:1007000090913704809136042FEF3FEF981748F40B
:10071000E92FF0E0E258FC4F208130E09F5F90939A
:100720003704C90108958091360490913704891BDC
:10073000990B0895CF92DF92EF92FF920F931F9340
:10074000CF93DF937C01CB018A0120910E042223F9
:1007500089F0EB016B01C40ED51ECC15DD0569F0E7
:100760006991D701ED91FC910190F081E02DC701D5
:100770001995F3CF642F0E940A03C801DF91CF912E
:100780001F910F91FF90EF90DF90CF900895CF933E
:10079000DF931F92CDB7DEB7698320910E04222329
:1007A000F9F020913404203258F021E030E0FC01CF
:1007B0003383228390E080E00F90DF91CF91089502
:1007C00080913504E82FF0E0E15FFB4F9981908341
:1007D0008F5F809335048093340481E090E0ECCF08
:1007E00061E0CE0101960E940A03F7CFCF92DF921B
:1007F000EF92FF920F931F93CF93DF93FC01C4817D
:1008000021E020930E04C0932F041092350410921F
:1008100034048385682B81E494E00E94C703D0915F
:100820003404D13208F092C00E9483026B017C0133
:1008300080910804811165C082E08093080481E002
:10084000809307048FEF8093060410920504D093E1
:100850000404AFE0B4E0E4EEF3E080E0D81385C038
:100860001092E3038091E303CC0FC82BC093E30302
:100870008091E203813009F07CC01092E2030E9473
:1008800083026B017C018091E3038093BB00809124
:100890000A0490910B04A0910C04B0910D04892BD3
:1008A0008A2B8B2B99F00E94830200910A041091ED
:1008B0000B0420910C0430910D046C197D098E09F4
:1008C0009F090617170728073907E0F18091BC0038
:1008D00083FDD9CF85EC8093BC000E9483026B011D
:1008E0007C0180910804823009F445C0809106049F
:1008F0008F3F61F180910604803241F180910604BE
:1009000025C080910A0490910B04A0910C04B09131
:100910000D04892B8A2B8B2B09F48ACF0E9483022A
:1009200000910A0410910B0420910C0430910D04E5
:100930006C197D098E099F090617170728073907C3
:1009400008F076CF809109040E944F03109235047D
:100950001092340410920E04DF91CF911F910F91E9
:10096000FF90EF90DF90CF9008959D9191938F5FCE
:1009700075CF85EEB0CF80910A0490910B04A091C1
:100980000C04B0910D04892B8A2B8B2B09F4A9CF71
:100990000E94830200910A0410910B0420910C0420
:1009A00030910D046C197D098E099F0906171707F0
:1009B0002807390708F095CFC5CF90E080E008956B
:1009C000FC0101900020E9F73197AF01481B590B5A
:1009D000BC018DE494E00C94DC028F929F92AF9264
:1009E000BF920F931F93CF93DF93CDB7DEB7A1973D
:1009F0000FB6F894DEBF0FBECDBF19A2423008F487
:100A00004AE08E010F5D1F4F842E912CB12CA12C3A
:100A1000A50194010E94BE0BE62FB901CA01EA307C
:100A2000F4F4E05DD801EE938D01232B242B252BCC
:100A300079F790E080E0109719F0CD010E94E00472
:100A4000A1960FB6F894DEBF0FBECDBFDF91CF9158
:100A50001F910F91BF90AF909F908F900895E95C88
:100A6000E1CF0C94E0040F931F93CF938C01C62F1A
:100A70000E94F6036C2F6460C8010E94F6036C2F7D
:100A80006B7FC8010E94F60383EC90E00197F1F7B9
:100A9000CF911F910F9108950F931F93CF93DF93E1
:100AA0008C01D62FC42F607F642B0E94330580E118
:100AB000D89FB00111246C2BC801DF91CF911F91F9
:100AC0000F910C943305CF93DF9300D000D01F9289
:100AD0001F92CDB7DEB798E0E3E0F2E0DE011196B9
:100AE00001900D929A95E1F790915504961710F4A4
:100AF0006FEF690F262F30E0220F331F41E050E0E7
:100B00004C0F5D1F240F351FF9016081680F60686D
:100B100040E08DE494E028960FB6F894DEBF0FBE57
:100B2000CDBFDF91CF910C944C0540E061E08DE4A6
:100B300094E00E944C058BE39FE10197F1F7089543
:100B40000E94950560E080E00E94630589E292E0E2
:100B50000E94310589E20E94D9010197E1F461E028
:100B600088E20E94020261E080E00E94630587E360
:100B700092E00E94310562E080E00E94630581E41A
:100B800092E00E94310563E080E00E9463058DE4FD
:100B900092E00C94310560E088E20E94020261E07C
:100BA00080E00E9463058DE592E0F3CF41E00E9472
:100BB0004C0581E090E008954F925F926F927F9292
:100BC0008F929F92AF92BF92CF92DF92EF92FF925D
:100BD0000F931F93CF936B017C01742EAC019B018B
:100BE0000E94260E882399F080E792E0CF911F9112
:100BF0000F91FF90EF90DF90CF90BF90AF909F90BC
:100C00008F907F906F905F904F900C94E00446011E
:100C10005701E894B7F82FEF3FEF4FE75FE7C501C3
:100C2000B4010E94260E81110DC02FEF3FEF4FE758
:100C30005FE7C501B4010E945C0C18161CF484E740
:100C400092E0D4CF2FEF3FEF4FE75FE4C701B6014B
:100C50000E94B40D18161CF488E792E0C7CF2FEF5E
:100C60003FEF4FE75FECC701B6010E945C0C87FDC8
:100C7000F3CF20E030E0A901C701B6010E945C0C6F
:100C800010E000E087FF0CC041E06DE28DE494E0ED
:100C90000E944C05F7FAF094F7F8F09401E010E0A8
:100CA000C0E060E070E080E09FE37C1641F020E06F
:100CB00030E040E251E40E94610CCF5FF6CFA70123
:100CC00096010E94F00B4B015C010E94D30C2B019A
:100CD0003C014AE00E94ED04080F191FCC23C9F122
:100CE000C301B2010E94020D9B01AC01C501B40118
:100CF0000E94EF0B4B015C0141E06EE28DE494E059
:100D00000E944C050F5F1F4FC15018F120E030E0EA
:100D100040E251E4C501B4010E94B90D2B013C0130
:100D20000E94D30C4B01B12CA12C4AE0C501B401A7
:100D30000E94ED04080F191FC501B4010E94020DA5
:100D40009B01AC01C301B2010E94EF0B4B015C019E
:100D5000DBCFC801CF911F910F91FF90EF90DF90F3
:100D6000CF90BF90AF909F908F907F906F905F904B
:100D70004F900895CF92DF92EF92FF9289E00E9408
:100D8000D901BC01990F880B990B0E94040D6B01CE
:100D90007C010E94950560E080E00E9463058CE77D
:100DA00092E00E94310542E0C701B6010E94DC05D5
:100DB00020E030E040E85FE3C701B6010E945C0C30
:100DC00061E0811130C00E9463058CE892E00E94CE
:100DD000310562E080E00E94630586E992E00E94AE
:100DE000310563E080E00E94630581EA92E00E94A1
:100DF000310561E085E30E94020261E083E30E9425
:100E0000020260E084E30E94020261E08CE10E9441
:100E1000020264E670E080E090E0FF90EF90DF90E7
:100E2000CF900C94A80280E00E9463058DEA92E0C6
:100E30000E94310562E080E00E94630589EB92E048
:100E40000E94310563E080E00E94630585EC92E03A
:100E50000E94310560E085E30E94020260E08CE1BF
:100E6000FF90EF90DF90CF900C940202CF92DF9230
:100E7000EF92FF9287E30E946C02BC01990F880BEE
:100E8000990B0E94040D20E030E040EA50E40E94FB
:100E9000B90D20E030EC4FE754E40E94610C2AE0E9
:100EA00037ED43E25CE30E94610C6B017C010E9420
:100EB000950560E080E00E94630582ED92E00E946B
:100EC000310542E0C701B6010E94DC0520E030E0B8
:100ED00040EF51E4C701B6010E94B40D61E018165D
:100EE000FCF480E00E94630589ED92E00E943105E8
:100EF00062E080E00E9463058AEE92E00E94310584
:100F000061E080E30E94020261E081E30E9402024C
:100F100060E082E3FF90EF90DF90CF900C940202AC
:100F200080E00E94630584EF92E00E94310562E058
:100F300080E00E94630588E093E00E94310560E054
:100F400080E3E8CFCF92DF92EF92FF9286E30E9498
:100F50006C0224E630E0DC010E94330E2FEF33E018
:100F600040E050E00E949F0BCA01B9010E94040DAD
:100F70006B017C010E94950560E080E00E946305A2
:100F800083E193E00E94310542E0C701B6010E946F
:100F9000DC058EE193E00E94310520E030E040E284
:100FA00052E4C701B6010E945C0C87FF24C061E0D7
:100FB00087E00E94300261E087E00E94020261E067
:100FC00089E10E94020260E08AE10E94020261E07F
:100FD00080E00E94630580E293E00E94310562E0B8
:100FE00080E00E9463058CE293E0FF90EF90DF9039
:100FF000CF900C94310560E087E00E94020261E02E
:1010000080E00E94630588E393E00E94310562E07E
:1010100080E00E94630587E493E0E7CF85ED80934D
:10102000BC0080910A0490910B04A0910C04B09133
:101030000D040796A11DB11D23E0B695A7959795C0
:1010400087952A95D1F72091BC0024FD03C010920A
:101050000804089540910A0450910B0460910C0417
:1010600070910D04452B462B472B69F30097A10582
:10107000B10541F02AE22A95F1F700C00197A109D4
:10108000B109E1CF809109040C944F031F920F9294
:101090000FB60F9211242F933F938F939F93AF938B
:1010A000BF938091390490913A04A0913B04B09190
:1010B0003C043091380423E0230F2D3758F5019676
:1010C000A11DB11D209338048093390490933A04F4
:1010D000A0933B04B0933C0480913D0490913E0466
:1010E000A0913F04B09140040196A11DB11D8093D1
:1010F0003D0490933E04A0933F04B0934004BF91FD
:10110000AF919F918F913F912F910F900FBE0F90B4
:101110001F90189526E8230F0296A11DB11DD2CF6E
:101120001F920F920FB60F9211240BB60F922F93AE
:101130003F934F935F936F937F938F939F93AF935F
:10114000BF93EF93FF938091B900887F803609F4B5
:101150004DC008F040C0883209F4A9C028F580319C
:1011600009F49DC0C8F4882309F4FBC0883009F451
:1011700096C0FF91EF91BF91AF919F918F917F9119
:101180006F915F914F913F912F910F900BBE0F90F8
:101190000FBE0F901F901895883109F488C08032D7
:1011A00041F78093060414C0803409F49DC040F4D4
:1011B0008033B9F38833E9F68093060485ECB0C038
:1011C000803509F485C0883509F496C0883489F6DD
:1011D0000E940E08CECF883909F48CC038F58837C4
:1011E00029F050F4883611F0803719F683E08093A7
:1011F00008041092E10357C0883809F47BC0803995
:1012000019F0803809F0B5CF8091E103803208F001
:1012100071C0E091E10381E08E0F8093E103809142
:10122000BB00F0E0EF53FC4F80833DC0803B39F0C2
:10123000E0F4803A09F479C0883A09F09ACF84E062
:10124000809308041092C0031092BF03E09132040F
:10125000F091330419958091BF0381110FC081E093
:101260008093BF0310929F0309C0803C09F4A6CF6E
:10127000883C09F4A3CF883B09F07BCFE091C00301
:1012800081E08E0F8093C003F0E0E156FC4F808137
:101290008093BB009091C0038091BF0329C08091CF
:1012A000E3038093BB0085EC8093BC0062CF9091F8
:1012B000050480910404981758F5E091050481E035
:1012C0008E0F80930504F0E0EC51FC4F8081E9CF54
:1012D000E091050481E08E0F809305048091BB00AE
:1012E000F0E0EC51FC4F8083909105048091040460
:1012F0009817C8F285E8D8CFE091050481E08E0FF9
:10130000809305048091BB00F0E0EC51FC4F80839A
:101310008091070481115CCF81E08093E20384EA2D
:101320008093BC001092080424CF85EC8093BC000D
:10133000109208048091E103803230F4E091E103DF
:10134000F0E0EF53FC4F10826091E10370E0E09118
:101350003004F091310481EC93E019951092E1038F
:1013600008CF1092060434CFE1E4F4E01382128235
:1013700088EE93E0A0E0B0E084839583A683B783F2
:101380008FE092E091838083EDE4F4E01382128297
:1013900081E292E09183808387E2848384E1818784
:1013A00084E0828713860895789484B5826084BD32
:1013B00084B5816084BD85B5826085BD85B5816059
:1013C00085BD80916E00816080936E0010928100D7
:1013D0008091810082608093810080918100816092
:1013E0008093810080918000816080938000809153
:1013F000B10084608093B1008091B00081608093DF
:10140000B000809191008260809391008091910062
:101410008160809391008091900081608093900022
:101420008091A10082608093A1008091A1008160E1
:101430008093A1008091A00081608093A0008091A2
:10144000210182608093210180912101816080933C
:1014500021018091200181608093200180917A0098
:10146000846080937A0080917A00826080937A0011
:1014700080917A00816080937A0080917A00806800
:1014800080937A001092C1001092370410923604B3
:1014900010923504109234040E9431038AED92E0D8
:1014A00090933304809332048BED92E09093310457
:1014B000809330041092520480915704823018F0C7
:1014C00098E0909352048093550462E370E080E0CA
:1014D00090E00E94A802609158048DE494E00E947C
:1014E000F60368EE73E080E090E00E94A80260E3FB
:1014F0008DE494E00E943305CBE4D6E4CE0101975D
:10150000F1F760E38DE494E00E9433052197F1F751
:1015100060E38DE494E00E94330583E592E0019757
:10152000F1F760E28DE494E00E943305609152048B
:10153000606240E08DE494E00E944C0584E080937A
:10154000530440E06CE08DE494E00E944C050E945E
:10155000950582E08093540440E066E08DE494E0D9
:101560000E944C0540E062E08DE494E00E944C054E
:101570008BE39FE10197F1F788E08093580460E0E6
:101580008DE494E00E94F60360E081E00E94630530
:1015900084E593E00E94310561E082E00E946305EA
:1015A00085E693E00E94310562E083E00E946305D6
:1015B00087E793E00E94310564EF71E080E090E0FE
:1015C0000E94A8020E94950560E086E30E94300216
:1015D00060E087E30E94300260E089E00E94300210
:1015E00061E08CE10E94300261E087E00E943002FD
:1015F00061E089E10E94300261E08AE10E943002EC
:1016000061E080E30E94300261E081E30E943002E9
:1016100061E082E30E94300261E085E30E943002D3
:1016200061E083E30E94300261E084E30E943002C3
:1016300062E086E10E94300262E087E10E943002AF
:1016400061E088E20E943002C0E0D0E011E084E076
:10165000E82EF12C86E10E94D901892B59F51093CF
:10166000020280910202882341F10E94A20764EFE6
:1016700071E080E090E00E94A8020E94360764EFCB
:1016800071E080E090E00E94A8020E94BA0664EF38
:1016900071E080E090E00E94A8020E94A00564EF43
:1016A00071E080E090E00E94A802209799F20E94E9
:1016B0000000D0CF10920202D4CF8091000290910E
:1016C00001028430910529F50E94A2076AEF70E0BB
:1016D00080E090E00E94A80287E10E94D901892B56
:1016E00021F78091000290910102019718161906C6
:1016F0000CF5909301028093000287E10E94D901CA
:10170000892B99F66AE070E080E090E00E94A802E0
:10171000F4CF8330910519F40E943607D7CF823079
:10172000910519F40E94BA06D1CF019779F60E946B
:10173000A005CCCFF0920102E0920002DECF052E90
:1017400097FB1EF400940E94B60B57FD07D00E9431
:10175000BE0B07FC03D04EF40C94B60B509540958D
:10176000309521953F4F4F4F5F4F0895909580954D
:10177000709561957F4F8F4F9F4F0895A1E21A2E6C
:10178000AA1BBB1BFD010DC0AA1FBB1FEE1FFF1F25
:10179000A217B307E407F50720F0A21BB30BE40B75
:1017A000F50B661F771F881F991F1A9469F76095BC
:1017B0007095809590959B01AC01BD01CF01089576
:1017C000A29FB001B39FC001A39F700D811D112482
:1017D000911DB29F700D811D1124911D08955058C7
:1017E000BB27AA270E94070C0C947A0D0E946C0D4F
:1017F00038F00E94730D20F039F49F3F19F426F45D
:101800000C94690D0EF4E095E7FB0C94630DE92F41
:101810000E948B0D58F3BA17620773078407950768
:1018200020F079F4A6F50C94AD0D0EF4E0950B2E96
:10183000BA2FA02D0B01B90190010C01CA01A00122
:101840001124FF27591B99F0593F50F4503E68F17D
:101850001A16F040A22F232F342F4427585FF3CFBE
:10186000469537952795A795F0405395C9F77EF48F
:101870001F16BA0B620B730B840BBAF09150A1F0D8
:10188000FF0FBB1F661F771F881FC2F70EC0BA0F5E
:10189000621F731F841F48F4879577956795B795E6
:1018A000F7959E3F08F0B0CF9395880F08F09927E1
:1018B000EE0F9795879508950E943F0D08F481E0FB
:1018C00008950E94750C0C947A0D0E94730D58F0C7
:1018D0000E946C0D40F029F45F3F29F00C94630DD9
:1018E00051110C94AE0D0C94690D0E948B0D68F390
:1018F0009923B1F3552391F3951B550BBB27AA27C9
:1019000062177307840738F09F5F5F4F220F331F02
:10191000441FAA1FA9F335D00E2E3AF0E0E832D0CA
:1019200091505040E695001CCAF72BD0FE2F29D0CD
:10193000660F771F881FBB1F261737074807AB079F
:10194000B0E809F0BB0B802DBF01FF2793585F4F14
:101950003AF09E3F510578F00C94630D0C94AE0D57
:101960005F3FE4F3983ED4F3869577956795B795F6
:10197000F7959F5FC9F7880F911D9695879597F901
:101980000895E1E0660F771F881FBB1F621773077A
:101990008407BA0720F0621B730B840BBA0BEE1F8F
:1019A00088F7E09508950E94930D88F09F5798F06E
:1019B000B92F9927B751B0F0E1F0660F771F881F54
:1019C000991F1AF0BA95C9F714C0B13091F00E946E
:1019D000AD0DB1E008950C94AD0D672F782F8827D9
:1019E000B85F39F0B93FCCF3869577956795B39595
:1019F000D9F73EF490958095709561957F4F8F4F04
:101A00009F4F0895E89409C097FB3EF49095809508
:101A1000709561957F4F8F4F9F4F9923A9F0F92FB4
:101A200096E9BB279395F695879577956795B79532
:101A3000F111F8CFFAF4BB0F11F460FF1BC06F5F18
:101A40007F4F8F4F9F4F16C0882311F096E911C02A
:101A5000772321F09EE8872F762F05C0662371F04B
:101A600096E8862F70E060E02AF09A95660F771F5F
:101A7000881FDAF7880F9695879597F90895990F3B
:101A80000008550FAA0BE0E8FEEF16161706E80748
:101A9000F907C0F012161306E407F50798F0621B69
:101AA000730B840B950B39F40A2661F0232B242B3E
:101AB000252B21F408950A2609F4A140A6958FEF5D
:101AC000811D811D089597F99F6780E870E060E0AF
:101AD00008959FEF80EC089500240A9416161706C7
:101AE00018060906089500240A941216130614060F
:101AF00005060895092E0394000C11F4882352F072
:101B0000BB0F40F4BF2B11F460FF04C06F5F7F4F29
:101B10008F4F9F4F089557FD9058440F551F59F010
:101B20005F3F71F04795880F97FB991F61F09F3FCA
:101B300079F087950895121613061406551FF2CFF3
:101B40004695F1DF08C0161617061806991FF1CF43
:101B500086957105610508940895E894BB2766276A
:101B60007727CB0197F908950E943F0D08F48FEF76
:101B700008950E94CC0D0C947A0D0E946C0D38F0E3
:101B80000E94730D20F0952311F00C94630D0C94BA
:101B9000690D11240C94AE0D0E948B0D70F3959F6E
:101BA000C1F3950F50E0551F629FF001729FBB2754
:101BB000F00DB11D639FAA27F00DB11DAA1F649FF0
:101BC0006627B00DA11D661F829F2227B00DA11DA3
:101BD000621F739FB00DA11D621F839FA00D611D29
:101BE000221F749F3327A00D611D231F849F600D4A
:101BF000211D822F762F6A2F11249F5750409AF073
:101C0000F1F088234AF0EE0FFF1FBB1F661F771FFE
:101C1000881F91505040A9F79E3F510580F00C94C9
:101C2000630D0C94AE0D5F3FE4F3983ED4F38695BC
:101C300077956795B795F795E7959F5FC1F7FE2B69
:101C4000880F911D9695879597F908950E943F0DED
:101C5000880B990B0895EE0FFF1F881F8BBF07900D
:101C6000F691E02D19940E94E00BB7FF0895821BB6
:081C7000930B0895F894FFCFD7
:101C7800040001000040001400540000000000C7E8
:101C8800039A03DD047003930380037103000000CB
:101C980000D605DC02DD0409036D6F7573652074D9
:101CA800726170203A200043415443484544212042
:101CB8000042757A7A65723A204F4E20005472615C
:101CC8007020616374697661746564200074686566
:101CD800726520617265206E6F204D696365200012
:101CE8006E616E00696E66006F766600466C616DA7
:101CF800652073656E736F72203A20005741524E0B
:101D0800494E4721200046414E20323A204F4E206E
:101D18000062757A7A65723A204F4E200069742005
:101D280069732073616665200046414E20323A206F
:101D38004F4646200062757A7A65723A204F4646C9
:101D4800200054656D703A200068696768207468DF
:101D5800616E206E6F726D616C0046414E20313AA3
:101D6800204F4E006E6F726D616C2074656D7065EA
:101D7800726174757265200046414E20313A204FD9
:101D88004646004D6F6973747572653A20002500E8
:101D980073746174653A204C4F57200050554D506C
:101DA800204953204F4E200053746174653A204EE9
:101DB8004F524D414C200050554D50204953204F13
:101DC80046462000536D61727420497272696761DA
:101DD80074696F6E00616E6420706C616E74206D42
:0E1DE8006F6E65746F720073797374656D00B1
:00000001FF
