:100000000C9463000C948B000C948B000C948B006C
:100010000C948B000C948B000C948B000C948B0034
:100020000C948B000C948B000C948B000C948B0024
:100030000C948B000C948B000C948B000C948B0014
:100040000C9437070C948B000C948B000C948B0051
:100050000C948B000C948B000C948B000C948B00F4
:100060000C9481070C948B000000000024002700F2
:100070002A0000000000250028002B0000000000DE
:1000800023002600290004040404040404040202DA
:100090000202020203030303030301020408102007
:1000A0004080010204081020010204081020000012
:1000B0000008000201000003040700000000000027
:1000C0000000A008300B11241FBECFEFD8E0DEBF28
:1000D000CDBF23E0ACECB1E001C01D92AC32B20761
:1000E000E1F711E0A0E0B1E0E2E5FBE102C005903C
:1000F0000D92AC3CB107D9F710E0C2E6D0E004C0E5
:100100002197FE010E949B0BC136D107C9F70E94BF
:1001100028090C949C0D0C94000096E0899FD00156
:100120001124A355BD4F90967C936E935F9791E0F9
:1001300091969C939197E0911A03F0911B039091F3
:100140001903992339F0309751F0811108C080913B
:10015000C9020994309719F05C968C91FACF0895F2
:10016000CF92DF92EF92FF920F931F9396E0899FB9
:10017000F0011124E355FD4F11A2278D30A121304C
:10018000310551F178F02230310509F451C02330A6
:10019000310509F452C01F910F91FF90EF90DF904D
:1001A000CF9008956623B9F361E070E00E948D005E
:1001B0002FB7F89480918B0290918C02A0918D02C0
:1001C000B0918E022FBF8093050390930603A093F6
:1001D0000703B0930803DFCF9FB7F894C0908B025A
:1001E000D0908C02E0908D02F0908E029FBF009123
:1001F0000503109106032091070330910803C01AEC
:10020000D10AE20AF30A009117031091180330E0B3
:1002100020E00C151D052E053F0550F462E070E04E
:100220001F910F91FF90EF90DF90CF900C948D0075
:100230006111B1CF63E070E0F3CF70E060E0F0CF28
:10024000833081F028F4813099F08230A9F008954C
:100250008730A9F08830C9F08430B1F480918000F3
:100260008F7D03C0809180008F77809380000895F8
:1002700084B58F7784BD089584B58F7DFBCF809141
:10028000B0008F778093B00008958091B0008F7D8B
:10029000F9CFCF93DF93282F30E0F901E255FF4FDC
:1002A0008491F901E656FF4FD491F901EA57FF4FC7
:1002B000C491CC23A1F081110E942001EC2FF0E029
:1002C000EE0FFF1FE458FF4FA591B491EC91ED2381
:1002D00081E090E009F480E0DF91CF91089580E023
:1002E00090E0FACF862F0C9449011F93CF93DF93B0
:1002F000282F30E0F901E255FF4F8491F901E656CD
:10030000FF4FD491F901EA57FF4FC491CC23A9F0D4
:10031000162F81110E942001EC2FF0E0EE0FFF1F3D
:10032000EE58FF4FA591B4918FB7F894EC9111114D
:1003300008C0D095DE23DC938FBFDF91CF911F9152
:100340000895DE2BF8CF862F642F0C947501CF9380
:10035000DF9390E0FC01E656FF4F24918A579F4FB0
:10036000FC0184918823C9F090E0880F991FFC015B
:10037000E859FF4FA591B491FC01EE58FF4FC5918C
:10038000D49161110DC09FB7F8948C912095822370
:100390008C938881282328839FBFDF91CF91089574
:1003A000623051F49FB7F8943C91822F809583235B
:1003B0008C93E8812E2BEFCF8FB7F894EC912E2BF6
:1003C0002C938FBFEACF862F642F0C94A7016F92D6
:1003D0007F928F929F92AF92BF92CF92DF92EF92D5
:1003E000FF920F931F93CF93DF9381E080931903C4
:1003F0008FB7F89440918B0250918C0260918D02DE
:1004000070918E028FBF8091090390910A03A09191
:100410000B03B0910C03481B590B6A0B7B0B8091AB
:10042000150390911603B0E0A0E084179507A60786
:10043000B70708F01DC1C0E080911303C81760F42E
:10044000E0910F03F0911003EC0FF11D62E0808149
:100450000E94A701CF5FF0CF712C812C912C540109
:10046000839480911403781608F05FC0072D10E084
:10047000E0911103F0911203E00FF11F61E0808120
:100480000E94A701E0911103F0911203E00FF11F08
:1004900060E080810E947501D501C401072C04C071
:1004A000880F991FAA1FBB1F0A94D2F76C017C0109
:1004B000E094F094612C809113036816F8F4C62D33
:1004C000D0E0E0910F03F0911003EC0FFD1F80814D
:1004D0000E9449012496CC0FDD1FC355DD4F892BA7
:1004E00041F4888199818C299D299983888363941B
:1004F000E2CF888199818E219F21F7CFE09111036E
:10050000F0911203E00FF11F61E080810E947501FC
:100510008091110390911203080F191F60E0F801F8
:1005200080810E94A70173949CCFCDEAD2E0FE01A6
:100530008FEF9FEF278D30A1232B21F4148E968F00
:10054000858F11A2369622E0E93EF20799F7F12C49
:1005500096E0D92E80911303F81608F050C0E12CD4
:100560000F2D10E0000F111F0B541D4F209114038D
:10057000E21608F042C0F801608171810E2C02C0C1
:10058000769567950A94E2F7F29E900111242E0D5C
:10059000311DEDEAF2E080E0458D568D24173507D8
:1005A00009F46AC08F5F36968A30B1F760FF23C0C6
:1005B000EDEAF2E090E080E0448D411117C0E09157
:1005C0000D03F0910E03E20FF31F4081D89EF0015E
:1005D000D99EF00D1124E355FD4F448F368F258FA2
:1005E00010A2178E61E00E94B00005C001963696F9
:1005F0008A30910509F7E394B9CFF394ABCF80E04B
:1006000099A19111892F2696F2E0C93EDF07C1F723
:100610009FB7F89440918B0250918C0260918D02AB
:1006200070918E029FBF4093090350930A03609319
:100630000B0370930C038823D9F08091CE0288239A
:10064000B9F08091CC029091CD02019789F480910C
:10065000C902DF91CF911F910F91FF90EF90DF9032
:10066000CF90BF90AF909F908F907F906F900895A4
:100670001092190380E0EDCF6170B5CF3FB7F894C9
:100680008091870290918802A0918902B0918A029C
:1006900026B5A89B05C02F3F19F00196A11DB11DDD
:1006A0003FBFBA2FA92F982F8827BC01CD01620F19
:1006B000711D811D911D42E0660F771F881F991FD4
:1006C0004A95D1F708958F929F92AF92BF92CF92A1
:1006D000DF92EF92FF924B015C010E943E036B019F
:1006E0007C010E943E036C197D098E099F09683EBA
:1006F000734081059105A8F321E0821A9108A108B1
:10070000B10888EEC80E83E0D81EE11CF11C8114EC
:100710009104A104B10429F7FF90EF90DF90CF90EE
:10072000BF90AF909F908F90089508950895AF92D5
:10073000BF92CF92DF92EF92FF920F931F93CF93CE
:10074000DF936C017B018B01040F151FEB015E0130
:10075000AE18BF08C017D10759F06991D601ED91C5
:10076000FC910190F081E02DC6010995892B79F764
:10077000C501DF91CF911F910F91FF90EF90DF9016
:10078000CF90BF90AF900895089520910D02260F4D
:100790003327331F21323105ECF420915602FC013E
:1007A00090E080E0243069F082E00895A0910D028D
:1007B0002191AC0143515E4FA40FB52FB11D2C9375
:1007C0000196861798F380910D02680F60930D02D1
:1007D00080E0089581E008951092560281E08093B0
:1007E00055021092300261E082E10E94750161E0E1
:1007F00083E10E947501E9EBF0E080818E7F8083C8
:1008000080818D7F808388E48093B80085E4809325
:10081000BC000895CF93DF9391E09093EC0188237F
:10082000B9F0C091B800D091BA008091BC008A7B29
:100830008093BC0060E082E10E94750160E083E18A
:100840000E9475010E94EC03D093BA00C093B800D7
:10085000DF91CF9108950895E091850280918402FF
:10086000E81730F4F0E0E453FE4F808190E0089503
:100870008FEF9FEF089590918502809184022FEF72
:100880003FEF981748F4E92FF0E0E453FE4F208142
:1008900030E09F5F90938502C901089580918402A2
:1008A00090918502891B990B0895CF92DF92EF9268
:1008B000FF920F931F93CF93DF937C01CB018A01AB
:1008C00020915C02222389F0EB016B01C40ED51E3E
:1008D000CC15DD0569F06991D701ED91FC9101908E
:1008E000F081E02DC7010995F3CF642F0E94C50365
:1008F000C801DF91CF911F910F91FF90EF90DF9092
:10090000CF900895CF93DF931F92CDB7DEB7698361
:1009100020915C022223F9F020918202203258F0CB
:1009200021E030E0FC013383228390E080E00F90EF
:10093000DF91CF91089580918302E82FF0E0E35A90
:10094000FD4F998190838F5F809383028093820211
:1009500081E090E0ECCF61E0CE0101960E94C503FA
:10096000F7CFCF92DF92EF92FF920F931F93CF9327
:10097000DF93FC01C48121E020935C02C0937D02DF
:1009800010928302109282028385682B8FE892E096
:100990000E948204D0918202D13208F092C00E945B
:1009A0003E036B017C0180915602811165C082E09B
:1009B0008093560281E0809355028FEF809354021A
:1009C00010925302D0935202ADE5B2E0E2E3F2E0BE
:1009D00080E0D81385C01092310280913102CC0F93
:1009E000C82BC093310280913002813009F07CC065
:1009F000109230020E943E036B017C018091310213
:100A00008093BB008091580290915902A0915A02A4
:100A1000B0915B02892B8A2B8B2B99F00E943E03AD
:100A2000009158021091590220915A0230915B02B4
:100A30006C197D098E099F090617170728073907C2
:100A4000E0F18091BC0083FDD9CF85EC8093BC00A0
:100A50000E943E036B017C0180915602823009F4B2
:100A600045C0809154028F3F61F1809154028032E1
:100A700041F18091540225C0809158029091590211
:100A8000A0915A02B0915B02892B8A2B8B2B09F41F
:100A90008ACF0E943E030091580210915902209182
:100AA0005A0230915B026C197D098E099F09061765
:100AB00017072807390708F076CF809157020E9460
:100AC0000A04109283021092820210925C02DF915B
:100AD000CF911F910F91FF90EF90DF90CF900895ED
:100AE0009D9191938F5F75CF85EEB0CF8091580225
:100AF00090915902A0915A02B0915B02892B8A2BE6
:100B00008B2B09F4A9CF0E943E030091580210914B
:100B1000590220915A0230915B026C197D098E09AD
:100B20009F09061717072807390708F095CFC5CF83
:100B300090E080E008950F931F93CF938C01C62F10
:100B40000E94B1046C2F6460C8010E94B1046C2F34
:100B50006B7FC8010E94B10483EC90E00197F1F72C
:100B6000CF911F910F9108950F931F93CF93DF9310
:100B70008C01D62FC42F607F642B0E949B0580E1DF
:100B8000D89FB00111246C2BC801DF91CF911F9128
:100B90000F910C949B0540E061E08CE193E00E9492
:100BA000B4058BE39FE10197F1F70895CF93DF93AD
:100BB000CDB7DEB728970FB6F894DEBF0FBECDBF16
:100BC00098E0ECE1F1E0DE01119601900D929A952A
:100BD000E1F790912403961710F46FEF690F262F19
:100BE00030E0220F331F41E050E04C0F5D1F240F17
:100BF000351FF9016081680F606840E08CE193E087
:100C000028960FB6F894DEBF0FBECDBFDF91CF910F
:100C10000C94B40541E00E94B40581E090E0089591
:100C20008F929F92AF92BF920F931F93CF93DF93B8
:100C3000CDB7DEB7A1970FB6F894DEBF0FBECDBF1C
:100C400019A2423008F44AE08E010F5D1F4F842E36
:100C5000912CB12CA12CA50194010E94790BE62FB7
:100C6000B901CA01EA3044F5E05DD801EE938D0187
:100C7000232B242B252B79F790E080E0109769F047
:100C8000FD0101900020E9F73197AF014A1B5B0B92
:100C9000BD018CE193E00E949703A1960FB6F894F2
:100CA000DEBF0FBECDBFDF91CF911F910F91BF90DF
:100CB000AF909F908F900895E95CD7CFFC01019091
:100CC0000020E9F73197AF01481B590BBC018CE1BB
:100CD00093E00C949703FC0124813581FB0144814E
:100CE000558124173507E1F4FC0180819181FB01D6
:100CF000608171810097D1F061157105A1F4232BFA
:100D0000C1F0FC01808190E008C0232B91F0FB0131
:100D1000808190E091958195910921E0892B09F0DE
:100D200020E0822F08950E948C0DF7CF6115710588
:100D300061F721E0F6CF0F931F93CF93DF93EC0180
:100D400088819981009759F02A813B8126173707BE
:100D500030F081E0DF91CF911F910F9108958B01C9
:100D60006F5F7F4F0E94C60C009759F0998388836C
:100D70001B830A832C813D81232B59F7FC011082B0
:100D8000E8CF80E0E7CFEF92FF920F931F93CF93CE
:100D9000DF93EC017B01198218821B821A821D826B
:100DA0001C82FB0101900020E9F731978F01061B9F
:100DB000170BB8010E949B0628813981811113C04D
:100DC0002115310519F0C9010E943D0C19821882C4
:100DD0001D821C821B821A82DF91CF911F910F917D
:100DE000FF90EF9008951D830C83B701C901DF9137
:100DF000CF911F910F91FF90EF900C94950D85ED81
:100E00008093BC008091580290915902A0915A029F
:100E1000B0915B020796A11DB11D23E0B695A79581
:100E2000979587952A95D1F72091BC0024FD03C0A2
:100E300010925602089540915802509159026091C3
:100E40005A0270915B02452B462B472B69F30097A2
:100E5000A105B10541F02AE22A95F1F700C00197FA
:100E6000A109B109E1CF809157020C940A041F92A5
:100E70000F920FB60F9211242F933F938F939F934E
:100E8000AF93BF9380918B0290918C02A0918D02C1
:100E9000B0918E023091860223E0230F2D3758F552
:100EA0000196A11DB11D2093860280938B02909321
:100EB0008C02A0938D02B0938E0280918702909154
:100EC0008802A0918902B0918A020196A11DB11DEC
:100ED0008093870290938802A0938902B0938A023C
:100EE000BF91AF919F918F913F912F910F900FBE26
:100EF0000F901F90189526E8230F0296A11DB11D93
:100F0000D2CF1F920F920FB60F9211242F933F93BF
:100F10004F935F936F937F938F939F93AF93BF9301
:100F2000EF93FF938091B900887F803609F44AC01F
:100F3000F0F5883209F4A7C018F5803109F49BC098
:100F4000B8F4882309F4F9C0883009F494C0FF91FB
:100F5000EF91BF91AF919F918F917F916F915F9131
:100F60004F913F912F910F900FBE0F901F901895AA
:100F7000883109F488C0803251F78093540214C03C
:100F8000803409F49DC040F48033B9F38833F9F616
:100F90008093540285ECB0C0803509F485C0883553
:100FA00009F496C0883499F60E94FF06D0CF88399C
:100FB00009F48CC038F5883729F050F4883611F0E0
:100FC000803729F683E08093560210922F0257C093
:100FD000883809F47BC0803919F0803809F0B7CF20
:100FE00080912F02803208F071C0E0912F0281E0E1
:100FF0008E0F80932F028091BB00F0E0E15FFD4FE8
:1010000080833DC0803B39F0E0F4803A09F479C038
:10101000883A09F09CCF84E08093560210920E0229
:1010200010920D02E0918002F09181020995809169
:101030000D0281110FC081E080930D021092ED012D
:1010400009C0803C09F4A6CF883C09F4A3CF883BB3
:1010500009F07DCFE0910E0281E08E0F80930E02A9
:10106000F0E0E351FE4F80818093BB0090910E022F
:1010700080910D0229C0809131028093BB0085ECE4
:101080008093BC0064CF90915302809152029817D4
:1010900058F5E091530281E08E0F80935302F0E007
:1010A000EE5CFD4F8081E9CFE091530281E08E0F2D
:1010B000809353028091BB00F0E0EE5CFD4F808393
:1010C00090915302809152029817C8F285E8D8CFC8
:1010D000E091530281E08E0F809353028091BB0018
:1010E000F0E0EE5CFD4F80838091550281115CCF72
:1010F00081E08093300284EA8093BC001092560213
:1011000026CF85EC8093BC001092560280912F026E
:10111000803230F4E0912F02F0E0E15FFD4F108269
:1011200060912F0270E0E0917E02F0917F028FE0EB
:1011300092E0099510922F020ACF1092540234CFF8
:10114000109292021092910288EE93E0A0E0B0E03B
:101150008093930290939402A0939502B093960289
:1011600088E291E09093900280938F0210921F0387
:1011700010921E0384E491E090931D0380931C035E
:1011800087E28093200380E18093250382E08093AF
:101190002603109227031092AF021092B30210920E
:1011A000B2021092B4028AE391E09093AE0280936F
:1011B000AD02E9ECF2E010821482138215823696B9
:1011C00083E0E530F807B9F786E091E090931003EB
:1011D00080930F0383E091E09093120380931103B7
:1011E00084E08093130383E0809314038AE091E00A
:1011F00090930E0380930D038AE090E09093160382
:101200008093150384EF91E0909318038093170364
:1012100010921B0310921A031092090310920A03F2
:1012200010920B0310920C03109219036CE471E0FE
:101230008BE992E00E94C30661E571E081EA92E0E9
:101240000E94C30666E571E087EA92E00C94C3064B
:10125000CF93DF93CDB7DEB728970FB6F894DEBFF4
:101260000FBECDBF789484B5826084BD84B58160A3
:1012700084BD85B5826085BD85B5816085BD809161
:101280006E00816080936E001092810080918100D9
:1012900082608093810080918100816080938100D1
:1012A000809180008160809380008091B100846093
:1012B0008093B1008091B00081608093B0008091F4
:1012C0007A00846080937A0080917A0082608093B3
:1012D0007A0080917A00816080937A0080917A0010
:1012E000806880937A001092C1001092850210925B
:1012F000840210928302109282020E94EC0385E91C
:1013000093E0909381028093800286E993E090932A
:101310007F0280937E021092210380912603823007
:1013200018F098E0909321038093240362E370E027
:1013300080E090E00E946303609127038CE193E0DA
:101340000E94B10468EE73E080E090E00E946303C5
:1013500060E38CE193E00E949B050BE416E4C80176
:101360000197F1F760E38CE193E00E949B05C801CF
:101370000197F1F760E38CE193E00E949B0583E520
:1013800092E00197F1F760E28CE193E00E949B0507
:1013900060912103606240E08CE193E00E94B4051B
:1013A00084E08093220340E06CE08CE193E00E94B3
:1013B000B4050E94CB0582E08093230340E066E001
:1013C0008CE193E00E94B40540E062E08CE193E0A0
:1013D0000E94B4058BE39FE10197F1F788E08093C9
:1013E000270360E08CE193E00E94B10480E0C82E06
:1013F00080E0D82E93E0E92EF12C80910201882321
:1014000009F4AFC00E94CB0560E080E00E94D605E1
:101410008BE591E00E945E066BE771E0CE010196DC
:101420000E94C30661E080E00E94D6050E94E701A9
:101430008823E1F36D817E818A32C9F461157105DB
:10144000A9F361507109E981FA81E60FF71F7E83E4
:101450006D83108261E08D810E94D60541E060E2DB
:101460008CE193E00E94B40561E08D81DDCF833291
:10147000D1F464307105D9F162E080E00E94D605B4
:1014800089E691E00E945E0664EF71E080E090E002
:101490000E94630362E080E00E94D60581E791E04C
:1014A0000E945E06C3CF6430710508F0BFCF8F8302
:1014B00018868B010F5F1F4FB801CE0101960E9465
:1014C0009B06882369F029813A818D819E81BE0126
:1014D000695F7F4F820F931F0E94950D1E830D83BE
:1014E00041E06AE28CE193E00E94B4059FCF6BE992
:1014F00072E0CE0101960E946B06811110C061EA74
:1015000072E0CE0101960E946B06811108C067EA65
:1015100072E0CE0101960E946B068823E9F1F092F9
:101520000101E09200010E94CB0560E080E00E9492
:10153000D6058CE791E00E945E066AEF70E080E0DD
:1015400090E00E9463030E94CB058091020191E02C
:1015500089278093020189819A81009711F00E9466
:101560003D0C0E94E701833281F48091020191E0F9
:101570008927809302018AEB91E00E945E066AEF60
:1015800070E080E090E00E946303C114D10409F48C
:1015900034CF0E94000031CF809100019091010171
:1015A000019790930101809300010E94CB0560E0B8
:1015B00080E00E94D60589E891E00E945E0661E025
:1015C00080E00E94D60587E991E00E945E06809047
:1015D000000190900101092C000CAA08BB084AE008
:1015E000C501B401B7FE0EC041E06DE28CE193E0AD
:1015F0000E94B40566277727CB01681979098A0903
:101600009B094AE00E9410066AEF70E080E090E0DB
:101610000E9463038091000190910101892B09F0E0
:101620009ACF0E94CB0560E080E00E94D60587EA51
:1016300091E00E945E0661E080E00E94D6058EEA9D
:1016400091E00E945E0664EF71E080E090E00E940D
:1016500063030E94CB05F0920101E09200017BCF71
:10166000CF93DF93CDEAD2E02697888199810097C6
:1016700011F00E943D0C82E0CB39D807A9F7DF9129
:10168000CF9108952F923F924F925F926F927F92E7
:101690008F929F92AF92BF92CF92DF92EF92FF9282
:1016A0000F931F93CF93DF93CDB7DEB7CA1BDB0B2E
:1016B0000FB6F894DEBF0FBECDBF09942A883988D3
:1016C00048885F846E847D848C849B84AA84B984DA
:1016D000C884DF80EE80FD800C811B81AA81B981E6
:1016E000CE0FD11D0FB6F894DEBF0FBECDBFED01FA
:1016F0000895A1E21A2EAA1BBB1BFD010DC0AA1F53
:10170000BB1FEE1FFF1FA217B307E407F50720F06A
:10171000A21BB30BE40BF50B661F771F881F991FE5
:101720001A9469F760957095809590959B01AC012E
:10173000BD01CF010895EE0FFF1F0590F491E02D3C
:1017400009940F931F93CF93DF938230910510F488
:1017500082E090E0E0912A03F0912B0330E020E05A
:10176000B0E0A0E0309799F42115310509F44AC0A2
:10177000281B390B24303105D8F58A819B816115EE
:10178000710589F1FB0193838283FE0111C04081C1
:1017900051810281138148175907E0F04817590712
:1017A00099F4109761F012960C93129713961C936C
:1017B0003296CF01DF91CF911F910F910895009341
:1017C0002A0310932B03F4CF2115310551F0421752
:1017D000530738F0A901DB019A01BD01DF01F801CF
:1017E000C1CFEF01F9CF90932B0380932A03CDCF84
:1017F000FE01E20FF31F8193919322503109398347
:101800002883D7CF2091280330912903232B41F43B
:101810002091180130911901309329032093280356
:1018200020911601309117012115310541F42DB792
:101830003EB740911A0150911B01241B350BE091DA
:101840002803F0912903E217F307A0F42E1B3F0BA6
:101850002817390778F0AC014E5F5F4F2417350722
:1018600048F04E0F5F1F5093290340932803819344
:1018700091939FCFF0E0E0E09CCFCF93DF93009770
:10188000E9F0FC01329713821282A0912A03B091F1
:101890002B03ED0130E020E01097A1F4208131818D
:1018A000820F931F209128033091290328173907AD
:1018B00009F061C0F0932903E0932803DF91CF91F1
:1018C0000895EA01CE17DF07E8F54A815B819E01A2
:1018D00041155105B1F7E901FB83EA83499159911B
:1018E000C40FD51FEC17FD0761F48081918102962A
:1018F000840F951FE90199838883828193819B835B
:101900008A83F0E0E0E012968D919C911397009706
:10191000B9F52D913C911197CD010296820F931F3D
:1019200020912803309129032817390739F6309779
:1019300051F510922B0310922A03B0932903A09320
:101940002803BCCFD383C28340815181840F951F6C
:10195000C817D90761F44E5F5F4F88819981480F9E
:10196000591F518340838A819B81938382832115F0
:10197000310509F0B0CFF0932B03E0932A039ECFFB
:10198000FD01DC01C0CF13821282D7CFB0E0A0E00E
:10199000ECECFCE00C94440B8C01009751F4CB016F
:1019A0000E94A10B8C01C801CDB7DEB7E0E10C9419
:1019B000600BFC01E60FF71F9C0122503109E21772
:1019C000F30708F49DC0D901CD91DC911197C6179A
:1019D000D70798F0C530D10530F3CE0104978617AC
:1019E000970708F3C61BD70B2297C193D1936D932A
:1019F0007C93CF010E943D0CD6CF5B01AC1ABD0A8F
:101A00004C018C0E9D1EA0912A03B0912B03512CEA
:101A1000412CF12CE12C109731F580912803909105
:101A200029038815990509F05CC04616570608F089
:101A300058C08091160190911701009741F48DB71D
:101A40009EB740911A0150911B01841B950BE8171A
:101A5000F90708F055C0F0932903E0932803F90132
:101A600071836083A0CF8D919C91119712966C9099
:101A7000129713967C901397A815B90559F56C0128
:101A800042E0C40ED11CCA14DB0420F1AC014A1997
:101A90005B09DA011296159780F062827382518396
:101AA0004083D9016D937C93E114F10471F0D70167
:101AB0001396FC93EE93129776CF22968C0F9D1F70
:101AC000F90191838083F301EFCFF0932B03E0932F
:101AD0002A0369CF4816590608F42C017D01D30169
:101AE0009ACFCB010E94A10B7C01009749F0AE0177
:101AF000B8010E94830DC8010E943D0C870153CF9D
:101B000010E000E050CFFB01DC0102C001900D921B
:101B100041505040D8F70895FB01DC018D910190B0
:101B200080190110D9F3990B0895FB01DC01019094
:101B30000D920020E1F7089510E0C2E6D0E004C065
:101B4000FE010E949B0B2196C336D107C9F7F8947A
:021B5000FFCFC5
:101B52000300010908070D0C0B0A31323334353604
:101B62003738392A302300002C038000000040005F
:101B720014005400000000008204550498052B0450
:101B82004E043B042C0400000000E301A301720197
:101B9200000000000A0697039805C403313233346B
:101BA2000034353637003637383900456E74657281
:101BB20020796F757220496400756E6B6E6F776E57
:101BC20000202020202020202020200057656C6348
:101BD2006F6D652075736572004143434553532011
:101BE20044454E49454400417474656D70747320D8
:101BF2006C6566743A200048454C50203F004341D2
:101C02004C4C3A203136353931004C6F6767696E7A
:0C1C120067206F75742E2E2E2E2E2E00D3
:00000001FF
