:020000040000FA
:100000000C9448010C9479010C9479010C947901B9
:100010000C9479010C9479010C9479010C94790178
:100020000C9479010C9479010C9479010C94790168
:100030000C9479010C9479010C9479010C94790158
:100040000C9479010C9479010C9479010C94790148
:100050000C9479010C9479010C9479010C940A07A1
:100060000C9479010C9479010C9479010C94790128
:100070000C9479010C9479010C9479010C94790118
:100080000C9479010C9479010C9479010C94790108
:100090000C9479010C9479010C9479010C94540717
:1000A0000C9479010C9479010C9479010C947901E8
:1000B0000C9479010C9479010C9479010C947901D8
:1000C0000C9479010C9479010C9479010C947901C8
:1000D0000C9479010C9479010C9479010C947901B8
:1000E0000C9479010C945F030C946C020C945102F3
:1000F0000C94DD050C9467020C9457040C943E029A
:100100000C9455020C9423040C9410040C943A02A1
:100110000C9441020C9478080C9432020C94630203
:100120000C946C030C946D020C9447020C943602F0
:100130000C946D050C942C020C9467030C945902DA
:100140000C9499030C9400040C9463030C946B03BB
:100150000C942A040C944B020C946A030C945F02D6
:100160000C9401040C945D0C0C94710200002100AD
:10017000240027002A002D00300033000101000078
:10018000040107010A0100002200250028002B00BD
:100190002E003100340002010000050108010B01AE
:1001A000000020002300260029002C002F00320030
:1001B0000001000003010601090105050505070509
:1001C00008080808020202020A0A080804040404D3
:1001D00001010101010101010303030303030303FF
:1001E000040707070C0C0C0C0C0C0C0C020202028E
:1001F00006060606060606060B0B0B0B0B0B0B0B77
:100200000102102020080810204010204080020128
:10021000020108040201010204081020408080400D
:10022000201008040201800402018040201008040C
:1002300002010804020101020408102040800102AA
:1002400004081020408000000A0B02090C0D0E0863
:10025000070304010000000000000000000000008F
:10026000000000000000000000000000000000008E
:10027000000012111000000000000000000000004B
:1002800000000000000000000000000078085D0C85
:1002900011241FBECFEFD1E2DEBFCDBF00E00CBF07
:1002A00024E0AAEBB2E001C01D92AA31B207E1F747
:1002B00012E0A0E0B2E0E4E9FDE100E00BBF02C023
:1002C00007900D92AA3BB107D9F711E0C7E4D1E03E
:1002D00000E006C021970109802FFE010E94910CC9
:1002E000C634D10780E00807A9F70E9400090C94E2
:1002F000B80E0C94000096E0899FD0011124A556F9
:10030000BC4F90967C936E935F9791E091969C93EF
:100310009197E0910804F0910904909107049923C2
:1003200039F0309751F0811108C08091B7031994CA
:10033000309719F05C968C91FACF0895CF92DF92A6
:10034000EF92FF920F931F9396E0899FF001112483
:10035000E556FC4F11A2278D30A12130310551F116
:1003600078F02230310509F451C02330310509F409
:1003700052C01F910F91FF90EF90DF90CF900895A2
:100380006623B9F361E070E00E947B012FB7F89417
:100390008091790390917A03A0917B03B0917C03C3
:1003A0002FBF8093F3039093F403A093F503B093CE
:1003B000F603DFCF9FB7F894C0907903D0907A030B
:1003C000E0907B03F0907C039FBF0091F3031091BA
:1003D000F4032091F5033091F603C01AD10AE20A22
:1003E000F30A009105041091060430E020E00C159A
:1003F0001D052E053F0550F462E070E01F910F913E
:10040000FF90EF90DF90CF900C947B016111B1CF02
:1004100063E070E0F3CF70E060E0F0CF81508231B4
:1004200008F05AC0E82FF0E08827E65EFD4F8F4FB6
:100430000C94910C3A023E022C02320236026C02FB
:10044000410247024B025102550259025F02630208
:100450006C0267026D027102809180008F77809339
:1004600080000895809180008F7DF9CF8091800079
:10047000877FF5CF84B58F7784BD089584B58F7D50
:10048000FBCF8091B0008F778093B000089580916A
:10049000B0008F7DF9CF809190008F77809390008E
:1004A0000895809190008F7DF9CF80919000877F93
:1004B000F5CF8091A0008F778093A0000895809160
:1004C000A0008F7DF9CF8091A000877FF5CF80912C
:1004D00020018F77809320010895809120018F7DE6
:1004E000F9CF80912001877FF5CFCF93DF93282F1D
:1004F00030E0F901EA5BFD4F8491F901E050FE4FD5
:10050000D491F901E654FE4FC491CC23A1F081119E
:100510000E940E02EC2FF0E0EE0FFF1FE056FE4FA0
:10052000A591B491EC91ED2381E090E009F480E095
:10053000DF91CF91089580E090E0FACF1F93CF93A1
:10054000DF93282F30E0F901EA5BFD4F8491F90138
:10055000E050FE4FD491F901E654FE4FC491CC23F4
:10056000A9F0162F81110E940E02EC2FF0E0EE0F81
:10057000FF1FEA57FE4FA591B4918FB7F894EC9105
:10058000111108C0D095DE23DC938FBFDF91CF918E
:100590001F910895DE2BF8CFCF93DF9390E0FC01FD
:1005A000E050FE4F249186549E4FFC018491882395
:1005B000C9F090E0880F991FFC01E459FE4FA59106
:1005C000B491FC01EA57FE4FC591D49161110DC061
:1005D0009FB7F8948C91209582238C93888128234F
:1005E00028839FBFDF91CF910895623051F49FB768
:1005F000F8943C91822F809583238C93E8812E2B55
:10060000EFCF8FB7F894EC912E2B2C938FBFEACFBE
:100610003FB7F8948091750390917603A09177038A
:10062000B091780326B5A89B05C02F3F19F001961D
:10063000A11DB11D3FBFBA2FA92F982F8827BC013C
:10064000CD01620F711D811D911D42E0660F771F64
:10065000881F991F4A95D1F708958F929F92AF9264
:10066000BF92CF92DF92EF92FF924B015C010E940A
:1006700008036B017C010E9408036C197D098E0937
:100680009F09683E734081059105A8F321E0821A15
:100690009108A108B10888EEC80E83E0D81EE11CBD
:1006A000F11C81149104A104B10429F7FF90EF908B
:1006B000DF90CF90BF90AF909F908F900895862F3E
:1006C000642F0C94CC02862F642F0C949E02862FEC
:1006D0000C94750208950895AF92BF92CF92DF9265
:1006E000EF92FF920F931F93CF93DF936C017B01E7
:1006F0008B01040F151FEB015E01AE18BF08C01778
:10070000D10759F06991D601ED91FC910190F081EA
:10071000E02DC6011995892B79F7C501DF91CF919D
:100720001F910F91FF90EF90DF90CF90BF90AF900F
:10073000089508952091FB02260F3327331F21329D
:100740003105ECF420914403FC0190E080E024307A
:1007500069F082E00895A091FB022191AC0145521D
:100760005D4FA40FB52FB11D2C930196861798F3FA
:100770008091FB02680F6093FB0280E0089581E0A6
:1007800008951092440381E08093430310921E0366
:1007900061E084E10E949E0261E085E10E949E0288
:1007A000E9EBF0E080818E7F808380818D7F808384
:1007B00088E48093B80085E48093BC000895CF93CB
:1007C000DF9391E09093DA028823B9F0C091B800EA
:1007D000D091BA008091BC008A7B8093BC0060E01D
:1007E00084E10E949E0260E085E10E949E020E94D8
:1007F000C103D093BA00C093B800DF91CF910895A0
:100800000895E091730380917203E81730F4F0E0EB
:10081000E654FD4F808190E008958FEF9FEF08959B
:1008200090917303809172032FEF3FEF981748F474
:10083000E92FF0E0E654FD4F208130E09F5F909378
:100840007303C90108958091720390917303891B0A
:10085000990B0895CF92DF92EF92FF920F931F931F
:10086000CF93DF937C01CB018A0120914A0322239D
:1008700089F0EB016B01C40ED51ECC15DD0569F0C6
:100880006991D701ED91FC910190F081E02DC701B4
:100890001995F3CF642F0E949A03C801DF91CF917D
:1008A0001F910F91FF90EF90DF90CF900895CF931D
:1008B000DF931F92CDB7DEB7698320914A032223CD
:1008C000F9F020917003203258F021E030E0FC0173
:1008D0003383228390E080E00F90DF91CF910895E1
:1008E00080917103E82FF0E0E55BFC4F99819083E4
:1008F0008F5F809371038093700381E090E0ECCF71
:1009000061E0CE0101960E949A03F7CFCF92DF9269
:10091000EF92FF920F931F93CF93DF93FC01C4815B
:1009200021E020934A03C0936B031092710310924D
:1009300070038385682B8DE793E00E945704D09164
:100940007003D13208F092C00E9408036B017C0151
:1009500080914403811165C082E08093440381E06B
:10096000809343038FEF8093420310924103D0930F
:100970004003ABE4B3E0E0E2F3E080E0D81385C0ED
:1009800010921F0380911F03CC0FC82BC0931F032D
:1009900080911E03813009F07CC010921E030E94DA
:1009A00008036B017C0180911F038093BB00809141
:1009B000460390914703A0914803B0914903892BC6
:1009C0008A2B8B2B99F00E9408030091460310910B
:1009D000470320914803309149036C197D098E0922
:1009E0009F090617170728073907E0F18091BC0017
:1009F00083FDD9CF85EC8093BC000E9408036B0176
:100A00007C0180914403823009F445C08091420307
:100A10008F3F61F180914203803241F18091420326
:100A200025C08091460390914703A0914803B0915F
:100A30004903892B8A2B8B2B09F48ACF0E94080348
:100A400000914603109147032091480330914903D8
:100A50006C197D098E099F090617170728073907A2
:100A600008F076CF809145030E94DF031092710356
:100A70001092700310924A03DF91CF911F910F9152
:100A8000FF90EF90DF90CF9008959D9191938F5FAD
:100A900075CF85EEB0CF8091460390914703A0912A
:100AA0004803B0914903892B8A2B8B2B09F4A9CFDA
:100AB0000E940803009146031091470320914803C8
:100AC000309149036C197D098E099F090617170794
:100AD0002807390708F095CFC5CF90E080E008954A
:100AE0000F931F93CF938C01C62F0E9486046C2F07
:100AF0006460C8010E9486046C2F6B7FC8010E944D
:100B0000860483EC90E00197F1F7CF911F910F914C
:100B100008950F931F93CF93DF938C01D62FC42F8B
:100B2000607F642B0E94700580E1D89FB001112482
:100B30006C2BC801DF91CF911F910F910C94700520
:100B400040E061E08AE094E00E9489058BE39FE148
:100B50000197F1F70895CF93DF9300D000D01F9253
:100B60001F92CDB7DEB798E0ECE1F2E0DE0111961E
:100B700001900D929A95E1F790911204961710F456
:100B80006FEF690F262F30E0220F331F41E050E056
:100B90004C0F5D1F240F351FF9016081680F6068DD
:100BA00040E08AE094E028960FB6F894DEBF0FBECE
:100BB000CDBFDF91CF910C94890541E00E9489055A
:100BC00081E090E008958F929F92AF92BF920F9331
:100BD0001F93CF93DF93CDB7DEB7A1970FB6F894ED
:100BE000DEBF0FBECDBF19A2423008F44AE08E012D
:100BF0000F5D1F4F842E912CB12CA12CA5019401C7
:100C00000E946F0CE62FB901CA01EA3044F5E05D9D
:100C1000D801EE938D01232B242B252B79F790E01F
:100C200080E0109769F0FD0101900020E9F731970D
:100C3000AF014A1B5B0BBD018AE094E00E946C038C
:100C4000A1960FB6F894DEBF0FBECDBFDF91CF9156
:100C50001F910F91BF90AF909F908F900895E95C86
:100C6000D7CFFC0101900020E9F73197AF01481B75
:100C7000590BBC018AE094E00C946C03FC012481C4
:100C80003581FB014481558124173507E1F4FC01CE
:100C900080819181FB01608171810097D1F06115A4
:100CA0007105A1F4232BC1F0FC01808190E008C004
:100CB000232B91F0FB01808190E091958195910922
:100CC00021E0892B09F020E0822F08950E94A80ED0
:100CD000F7CF6115710561F721E0F6CF0F931F93F0
:100CE000CF93DF93EC0188819981009759F02A8195
:100CF0003B812617370730F081E0DF91CF911F91BC
:100D00000F9108958B016F5F7F4F0E94BE0D00977A
:100D100059F0998388831B830A832C813D81232B7F
:100D200059F7FC011082E8CF80E0E7CFEF92FF9205
:100D30000F931F93CF93DF93EC017B0119821882ED
:100D40001B821A821D821C82FB0101900020E9F7A0
:100D500031978F01061B170BB8010E946E06288180
:100D60003981811113C02115310519F0C9010E9483
:100D7000350D198218821D821C821B821A82DF9116
:100D8000CF911F910F91FF90EF9008951D830C83D9
:100D9000B701C901DF91CF911F910F91FF90EF90A3
:100DA0000C94B10E85ED8093BC0080914603909128
:100DB0004703A0914803B09149030796A11DB11DB7
:100DC00023E0B695A795979587952A95D1F7209119
:100DD000BC0024FD03C010924403089540914603D3
:100DE000509147036091480370914903452B462B6E
:100DF000472B69F30097A105B10541F02AE22A9536
:100E0000F1F700C00197A109B109E1CF8091450335
:100E10000C94DF031F920F920FB60F9211242F93A1
:100E20003F938F939F93AF93BF938091790390915A
:100E30007A03A0917B03B0917C033091740323E08B
:100E4000230F2D3758F50196A11DB11D2093740372
:100E50008093790390937A03A0937B03B0937C03F0
:100E60008091750390917603A0917703B0917803F8
:100E70000196A11DB11D8093750390937603A093F5
:100E80007703B0937803BF91AF919F918F913F917A
:100E90002F910F900FBE0F901F90189526E8230FEB
:100EA0000296A11DB11DD2CF1F920F920FB60F92C5
:100EB00011240BB60F922F933F934F935F936F9331
:100EC0007F938F939F93AF93BF93EF93FF93809103
:100ED000B900887F803609F44DC008F040C08832E0
:100EE00009F4A9C028F5803109F49DC0C8F488230D
:100EF00009F4FBC0883009F496C0FF91EF91BF91CF
:100F0000AF919F918F917F916F915F914F913F91A1
:100F10002F910F900BBE0F900FBE0F901F90189542
:100F2000883109F488C0803241F78093420314C0AD
:100F3000803409F49DC040F48033B9F38833E9F676
:100F40008093420385ECB0C0803509F485C08835B4
:100F500009F496C0883489F60E94D206CECF88392B
:100F600009F48CC038F5883729F050F4883611F030
:100F7000803719F683E08093440310921D0357C015
:100F8000883809F47BC0803919F0803809F0B5CF72
:100F900080911D03803208F071C0E0911D0381E053
:100FA0008E0F80931D038091BB00F0E0E350FD4F56
:100FB00080833DC0803B39F0E0F4803A09F479C089
:100FC000883A09F09ACF84E0809344031092FC029F
:100FD0001092FB02E0916E03F0916F0319958091DE
:100FE000FB0281110FC081E08093FB021092DB02B3
:100FF00009C0803C09F4A6CF883C09F4A3CF883B04
:1010000009F07BCFE091FC0281E08E0F8093FC021F
:10101000F0E0E552FD4F80818093BB009091FC028F
:101020008091FB0229C080911F038093BB0085EC57
:101030008093BC0062CF9091410380914003981748
:1010400058F5E091410381E08E0F80934103F0E079
:10105000E05EFC4F8081E9CFE091410381E08E0F9B
:10106000809341038091BB00F0E0E05EFC4F808301
:1010700090914103809140039817C8F285E8D8CF3A
:10108000E091410381E08E0F809341038091BB008A
:10109000F0E0E05EFC4F80838091430381115CCFE0
:1010A00081E080931E0384EA8093BC001092440385
:1010B00024CF85EC8093BC001092440380911D03E3
:1010C000803230F4E0911D03F0E0E350FD4F1082D8
:1010D00060911D0370E0E0916C03F0916D038DEF62
:1010E00092E0199510921D0308CF1092420334CF5D
:1010F0001092800310927F0388EE93E0A0E0B0E0AE
:101100008093810390938203A0938303B09384031D
:1011100088E292E090937E0380937D0310920D0409
:1011200010920C0484E492E090930B0480930A04E0
:1011300087E280930E0480E18093130482E0809321
:1011400014041092150410929D031092A1031092A2
:10115000A0031092A2038AE392E090939C038093F1
:101160009B03E7EBF3E0108214821382158236961C
:1011700083E0E33FF807B9F786E092E09093FE033F
:101180008093FD0383E092E0909300048093FF033B
:1011900084E08093010483E0809302048AE092E07B
:1011A0009093FC038093FB038AE090E09093040407
:1011B0008093030484EF91E09093060480930504E8
:1011C00010920904109208041092F7031092F80389
:1011D0001092F9031092FA03109207046CE472E083
:1011E00089E893E00E94960661E572E08FE893E05B
:1011F0000E94960666E572E085E993E00C949606F7
:10120000CF93DF9300D000D01F921F92CDB7DEB7EF
:10121000789484B5826084BD84B5816084BD85B5D1
:10122000826085BD85B5816085BD80916E008160DD
:1012300080936E0010928100809181008260809383
:101240008100809181008160809381008091800085
:101250008160809380008091B10084608093B100B0
:101260008091B00081608093B00080919100826095
:101270008093910080919100816080939100809192
:1012800090008160809390008091A10082608093A3
:10129000A1008091A10081608093A1008091A000B5
:1012A00081608093A0008091210182608093210160
:1012B00080912101816080932101809120018160D2
:1012C0008093200180917A00846080937A008091DD
:1012D0007A00826080937A0080917A0081608093A6
:1012E0007A0080917A00806880937A001092C10021
:1012F0001092730310927203109271031092700394
:101300000E94C1038AE693E090936F0380936E037B
:101310008BE693E090936D0380936C0310920F041F
:1013200080911404823018F098E090930F04809319
:10133000120462E370E080E090E00E942D0360916F
:1013400015048AE094E00E94860468EE73E080E071
:1013500090E00E942D0360E38AE094E00E94700513
:101360000BE416E4C8010197F1F760E38AE094E02A
:101370000E947005C8010197F1F760E38AE094E0EC
:101380000E94700583E592E00197F1F760E28AE040
:1013900094E00E94700560910F04606240E08AE072
:1013A00094E00E94890584E08093100440E06CE0A2
:1013B0008AE094E00E9489050E94A00582E0809363
:1013C000110440E066E08AE094E00E94890540E074
:1013D00062E08AE094E00E9489058BE39FE1019737
:1013E000F1F788E08093150460E08AE094E00E94C1
:1013F0008604412C512C32014394AA24AA94BA2C7D
:1014000080910202882309F4E8C10E94A00560E0EF
:1014100080E00E94AB058BE592E00E9431066BE70D
:1014200072E0CE0101960E94960661E080E00E9483
:10143000AB0551E0509307048FB7F89440917903BE
:1014400050917A0360917B0370917C038FBF8091F0
:10145000F7039091F803A091F903B091FA03481BA8
:10146000590B6A0B7B0B8091030490910404B0E04C
:10147000A0E084179507A607B707D8F610E080917B
:101480000104181760F4E091FD03F091FE03E10FF1
:10149000F11D62E080810E94CC021F5FF0CF312CF1
:1014A00080910204381608F061C0E32CF12CE09121
:1014B000FF03F0910004EE0DFF1D61E080810E94AA
:1014C000CC02E091FF03F0910004EE0DFF1D60E0FF
:1014D00080810E949E02D301C201032C04C0880FA8
:1014E000991FAA1FBB1F0A94D2F74C016C01C0942C
:1014F000D094212C80910104281608F5022D10E0CB
:10150000E091FD03F091FE03E00FF11F80810E9446
:1015100075020C5F1F4F000F111FF801E556FC4FBD
:10152000892B41F480819181882999299183808335
:101530002394E0CF808191818C219D21F7CFE09190
:10154000FF03F0910004EE0DFF1D61E080810E9419
:101550009E028091FF0390910004E80EF91E60E066
:10156000F70180810E94CC0233949ACF0BE913E0FB
:101570007801F701878D90A1892B21F4148EB68E06
:10158000A58E11A2F6E0EF0EF11C57EDE51653E023
:10159000F50679F7912C80910104981608F053C054
:1015A000812CC92CD12CCC0CDD1CC6018D559C4F37
:1015B0006C0120910204821608F043C0F60160819C
:1015C0007181082C02C0769567950A94E2F7929E85
:1015D00090011124280D311DEBE9F3E080E0458DE9
:1015E000568D2417350709F466C18F5F36968A3009
:1015F000B1F760FF24C0EBE9F3E090E080E0448DB8
:10160000411118C0E091FB03F091FC03E20FF31FBE
:10161000408156E0589FF001599FF00D1124E55686
:10162000FC4F448F368F258F10A2178E61E00E94E9
:101630009E0105C0019636968A30910501F7839484
:10164000B8CF9394A8CF80E0F80191A19111892F90
:101650000A5F1F4FE016F106B9F79FB7F894409163
:10166000790350917A0360917B0370917C039FBF53
:101670004093F7035093F8036093F9037093FA03D0
:10168000882309F4D6CE8091BC03882309F4D1CEF7
:101690008091BA039091BB03019709F0CACE809163
:1016A000B703882309F4C5CE0D811E818A32D1F497
:1016B0000115110509F4BDCE01501109E981FA8126
:1016C000E00FF11F1E830D83108261E08D810E9467
:1016D000AB0541E060E28AE094E00E94890561E0A8
:1016E0008D81A5CE8332D1F404301105D1F162E0B1
:1016F00080E00E94AB0589E692E00E94310664EF2B
:1017000071E080E090E00E942D0362E080E00E94A2
:10171000AB0581E792E00E9431068BCE04301105C3
:1017200008F087CE8F8318860F5F1F4FB801CE0158
:1017300001960E946E06882369F029813A818D8185
:101740009E81BE01695F7F4F820F931F0E94B10E81
:101750001E830D8341E06AE28AE094E00E948905DD
:1017600068CE69E873E0CE0101960E943E068111C1
:1017700010C06FE873E0CE0101960E943E06811111
:1017800008C065E973E0CE0101960E943E068823F9
:1017900061F183E090E090930102809300020E9447
:1017A000A00560E080E00E94AB058CE792E00E941B
:1017B00031066AEF70E080E090E00E942D030E9405
:1017C000A0058091020291E089278093020289811D
:1017D0009A81009711F00E94350D80E090E0892BEE
:1017E00009F40ECE0E9400000BCE80910002909171
:1017F0000102019790930102809300020E94A005CC
:1018000060E080E00E94AB0589E892E00E9431062A
:1018100061E080E00E94AB0587E992E00E9431061A
:10182000C0900002D09001020D2C000CEE08FF08C1
:101830004AE0C701B601F7FE0EC041E06DE28AE062
:1018400094E00E94890566277727CB016C197D09F2
:101850008E099F094AE00E94E3056AEF70E080E08C
:1018600090E00E942D038091000290910102892B4B
:1018700009F0ADCF0E94A00560E080E00E94AB05BA
:1018800087EA92E00E94310661E080E00E94AB05A9
:101890008EEA92E00E94310664EF71E080E090E011
:1018A0000E942D030E94A00583E090E09093010226
:1018B000809300028CCF6170BACECF93DF93CBE9D7
:1018C000D3E0269788819981009711F00E94350D09
:1018D00083E0C938D807A9F7DF91CF910895A1E235
:1018E0001A2EAA1BBB1BFD010DC0AA1FBB1FEE1F9A
:1018F000FF1FA217B307E407F50720F0A21BB30BE5
:10190000E40BF50B661F771F881F991F1A9469F760
:1019100060957095809590959B01AC01BD01CF01BC
:101920000895EE0FFF1F881F8BBF0790F691E02DE3
:1019300019940F931F93CF93DF938230910510F486
:1019400082E090E0E0911804F091190430E020E08A
:10195000B0E0A0E0309799F42115310509F44AC0B0
:10196000281B390B24303105D8F58A819B816115FC
:10197000710589F1FB0193838283FE0111C04081CF
:1019800051810281138148175907E0F04817590720
:1019900099F4109761F012960C93129713961C937A
:1019A0003296CF01DF91CF911F910F91089500934F
:1019B000180410931904F4CF2115310551F0421782
:1019C000530738F0A901DB019A01BD01DF01F801DD
:1019D000C1CFEF01F9CF9093190480931804CDCFB4
:1019E000FE01E20FF31F8193919322503109398355
:1019F0002883D7CF2091160430911704232B41F46C
:101A00002091180230911902309317042093160484
:101A100020911602309117022115310541F42DB79E
:101A20003EB740911A0250911B02241B350BE091E6
:101A30001604F0911704E217F307A0F42E1B3F0BD6
:101A40002817390778F0AC014E5F5F4F2417350730
:101A500048F04E0F5F1F5093170440931604819374
:101A600091939FCFF0E0E0E09CCFCF93DF9300977E
:101A7000E9F0FC01329713821282A0911804B09110
:101A80001904ED0130E020E01097A1F420813181AC
:101A9000820F931F209116043091170428173907DD
:101AA00009F061C0F0931704E0931604DF91CF9121
:101AB0000895EA01CE17DF07E8F54A815B819E01B0
:101AC00041155105B1F7E901FB83EA834991599129
:101AD000C40FD51FEC17FD0761F480819181029638
:101AE000840F951FE90199838883828193819B8369
:101AF0008A83F0E0E0E012968D919C911397009715
:101B0000B9F52D913C911197CD010296820F931F4B
:101B100020911604309117042817390739F63097A9
:101B200051F51092190410921804B0931704A09361
:101B30001604BCCFD383C28340815181840F951F8B
:101B4000C817D90761F44E5F5F4F88819981480FAC
:101B5000591F518340838A819B81938382832115FE
:101B6000310509F0B0CFF0931904E09318049ECF2B
:101B7000FD01DC01C0CF13821282D7CF4F925F925A
:101B80006F927F928F929F92AF92BF92CF92DF928D
:101B9000EF92FF920F931F93CF93DF938C010097E7
:101BA00099F4CB01DF91CF911F910F91FF90EF90AE
:101BB000DF90CF90BF90AF909F908F907F906F906D
:101BC0005F904F900C94990CFC01E60FF71F9C015D
:101BD00022503109E217F30708F4AEC0D901CD91C4
:101BE000DC911197C617D70720F1C530D10578F0E1
:101BF000CE0104978617970750F0C61BD70B229784
:101C0000C193D1936D937C93CF010E94350DC80190
:101C1000DF91CF911F910F91FF90EF90DF90CF90C8
:101C2000BF90AF909F908F907F906F905F904F90FC
:101C300008955B01AC1ABD0A4C018C0E9D1EA0914B
:101C40001804B0911904512C412CF12CE12C10975F
:101C500031F580911604909117048815990509F0C3
:101C60005CC04616570608F058C080911602909145
:101C70001702009741F48DB79EB740911A02509118
:101C80001B02841B950BE817F90708F055C0F09369
:101C90001704E0931604F90171836083B8CF8D9126
:101CA0009C91119712966C90129713967C901397B3
:101CB000A815B90559F56C0142E0C40ED11CCA142F
:101CC000DB0420F1AC014A195B09DA011296159781
:101CD00080F06282738251834083D9016D937C933B
:101CE000E114F10471F0D7011396FC93EE9312976F
:101CF0008ECF22968C0F9D1FF90191838083F30173
:101D0000EFCFF0931904E093180481CF48165906D9
:101D100008F42C017D01D3019ACFCB010E94990CCC
:101D20007C01009749F0AE01B8010E949F0EC801E6
:101D30000E94350D87016BCF10E000E068CFFB01FA
:101D4000DC0102C001900D9241505040D8F7089537
:101D5000FB01DC018D91019080190110D9F3990BE1
:101D60000895FB01DC0101900D920020E1F7089538
:101D700011E0C7E4D1E000E006C0802FFE010E9420
:101D8000910C2196011DC834D10780E00807A9F7FE
:101D9000F894FFCF0300010908070D0C0B0A31323C
:101DA000333435363738392A302300001A0480009E
:101DB00000004000140054000000000057042A04F2
:101DC0006D050004230410040104000000005F03FB
:101DD0006303670300000000DD056C036D059903D4
:101DE0003132333400343536370036373839004530
:101DF0006E74657220796F757220496400756E6B20
:101E00006E6F776E002020202020202020202000D0
:101E100057656C636F6D6520757365720041434350
:101E20004553532044454E49454400417474656D03
:101E3000707473206C6566743A200048454C5020DD
:0E1E40003F0043414C4C3A20313635393100D9
:020000040003F7
:10E000000D9489F10D94B2F10D94B2F10D94B2F129
:10E010000D94B2F10D94B2F10D94B2F10D94B2F1F0
:10E020000D94B2F10D94B2F10D94B2F10D94B2F1E0
:10E030000D94B2F10D94B2F10D94B2F10D94B2F1D0
:10E040000D94B2F10D94B2F10D94B2F10D94B2F1C0
:10E050000D94B2F10D94B2F10D94B2F10D94B2F1B0
:10E060000D94B2F10D94B2F10D94B2F10D94B2F1A0
:10E070000D94B2F10D94B2F10D94B2F10D94B2F190
:10E080000D94B2F10D94B2F10D94B2F10D94B2F180
:10E090000D94B2F10D94B2F10D94B2F10D94B2F170
:10E0A0000D94B2F10D94B2F10D94B2F10D94B2F160
:10E0B0000D94B2F10D94B2F10D94B2F10D94B2F150
:10E0C0000D94B2F10D94B2F10D94B2F10D94B2F140
:10E0D0000D94B2F10D94B2F10D94B2F10D94B2F130
:10E0E0000D94B2F141546D656761323536300041AF
:10E0F000726475696E6F206578706C6F72657220DE
:10E1000073746B3530305632206279204D4C530099
:10E11000426F6F746C6F616465723E004875683F52
:10E1200000436F6D70696C6564206F6E203D200048
:10E130004350552054797065202020203D20005FF9
:10E140005F4156525F415243485F5F3D2000415658
:10E1500052204C696243205665723D20004743437C
:10E160002056657273696F6E203D20004350552024
:10E1700049442020202020203D20004C6F7720663D
:10E18000757365202020203D20004869676820665F
:10E190007573652020203D200045787420667573D6
:10E1A00065202020203D20004C6F636B2066757336
:10E1B000652020203D20004D617220203720323024
:10E1C000313300312E362E3800342E332E350056A2
:10E1D00023202020414444522020206F7020636F70
:10E1E00064652020202020696E73747275637469E1
:10E1F0006F6E2061646472202020496E74657272B3
:10E20000757074006E6F20766563746F7200726A49
:10E210006D702020006A6D70200057686174207056
:10E220006F72743A00506F7274206E6F7420737541
:10E2300070706F72746564004D7573742062652030
:10E2400061206C6574746572002000577269747483
:10E25000696E672045450052656164696E672045B7
:10E26000450045452065727220636E743D00504F35
:10E27000525400303D5A65726F2061646472003FF1
:10E280003D43505520737461747300403D454550C3
:10E29000524F4D207465737400423D426C696E6B41
:10E2A000204C454400453D44756D70204545505215
:10E2B0004F4D00463D44756D7020464C415348001B
:10E2C000483D48656C70004C3D4C69737420492F83
:10E2D0004F20506F72747300513D51756974005234
:10E2E0003D44756D702052414D00563D73686F7707
:10E2F00020696E7465727275707420566563746FF0
:10E30000727300593D506F727420626C696E6B00BD
:10E310002A0011241FBECFEFD1E2DEBFCDBF01E046
:10E320000CBF12E0A0E0B2E0EEE1FDEF03E00BBFB6
:10E3300002C007900D92A030B107D9F712E0A0E01B
:10E34000B2E001C01D92AE30B107E1F70F9460F367
:10E350000D948DFE01E20EBF0FEF0DBF11241FBE05
:10E360000D9460F30D9400F020E030E040ED57E0B4
:10E3700005C0FA013197F1F72F5F3F4F2817390792
:10E38000C0F308959C01260F311DC901A0E0B0E043
:10E390002F5F3F4FABBFFC018791882361F08093D3
:10E3A000C6008091C00086FFFCCF8091C0008064D1
:10E3B0008093C000EACF08958DE08093C6008091DD
:10E3C000C00086FFFCCF8091C00080648093C000B5
:10E3D0008AE08093C6008091C00086FFFCCF8091C8
:10E3E000C00080648093C00008950F94C2F10F9420
:10E3F000DCF10895FC019081992359F09093C600B7
:10E400008091C00086FFFCCF8091C0008064809323
:10E41000C0003196992379F70895282F982F929567
:10E420009F70892F805D8A3308F0895F8093C600D2
:10E430008091C00086FFFCCF8091C00080648093F3
:10E44000C000822F8F70982F905D9A3308F0995FEB
:10E450009093C6008091C00086FFFCCF8091C000E1
:10E4600080648093C00008959C01FB01853691056E
:10E470001CF46330710594F0C90164E670E00F94F8
:10E480002EFE605D7F4F6093C6008091C00086FFC6
:10E49000FCCF8091C00080648093C0002B30310598
:10E4A00014F43297B4F0C90164E670E00F942EFEC4
:10E4B0006AE070E00F942EFE605D7F4F6093C600AF
:10E4C0008091C00086FFFCCF8091C0008064809363
:10E4D000C000C9016AE070E00F942EFEC0968093E0
:10E4E000C6008091C00086FFFCCF8091C000806490
:10E4F0008093C00008951F93182F8EE692EE60E07F
:10E500000F94C2F11093C6008091C00086FFFCCF2B
:10E510008091C00080648093C0000F94DCF11F9153
:10E5200008952F923F924F925F926F927F928F92B7
:10E530009F92AF92BF92CF92DF92EF92FF920F9392
:10E540001F93DF93CF93CDB7DEB762970FB6F894E2
:10E55000DEBF0FBECDBF382E622ECA01DB015C01CB
:10E560006D01772420E2222E2E010894411C511CBB
:10E570008BC081E0A81680E0B80681E0C80680E084
:10E58000D80628F0C601AA27BB270F940DF2BB2797
:10E59000AD2D9C2D8B2D0F940DF28A2D0F940DF225
:10E5A0002092C6008091C00086FFFCCF8091C00001
:10E5B00080648093C0009DE29093C6008091C0006B
:10E5C00086FFFCCF8091C00080648093C0002092C1
:10E5D000C6008091C00086FFFCCF8091C00080649F
:10E5E0008093C00019828601750188249924A1E0D6
:10E5F0003A1651F03A1620F0B2E03B1661F409C029
:10E600000BBFF701779007C0C7010F9477FE782EF4
:10E6100002C0F7017080872D0F940DF22092C60082
:10E620008091C00086FFFCCF8091C0008064809301
:10E63000C000872D8052F401EF70F0708F3520F408
:10E64000E40DF51D708204C0E40DF51D8EE280839B
:10E650000894E11CF11C011D111D0894811C911CE2
:10E6600090E18916910409F0C2CF80E190E0A0E02A
:10E67000B0E0A80EB91ECA1EDB1E198AC2010F9493
:10E68000FAF10F94DCF16A94662009F072CF629679
:10E690000FB6F894DEBF0FBECDBFCF91DF911F91B3
:10E6A0000F91FF90EF90DF90CF90BF90AF909F9031
:10E6B0008F907F906F905F904F903F902F90089534
:10E6C0002F923F924F925F926F927F928F929F9282
:10E6D000AF92BF92CF92DF92EF92FF920F931F9370
:10E6E000DF93CF93CDB7DEB7CD53D1400FB6F894BB
:10E6F000DEBF0FBECDBF01E20EBF0FEF0DBF94B75F
:10E70000F894A89514BE80916000886180936000A1
:10E7100010926000789493FF05C0E0910002F091A0
:10E7200001021995279A2F9A8091C00082608093E8
:10E73000C00080E18093C40088E18093C1000000A4
:10E74000EE24FF24870144E0A42EB12CCC24DD2448
:10E7500024C0C5010197F1F70894E11CF11C011DCB
:10E76000111D21E2E2162EE4F20620E0020720E06D
:10E77000120718F031E0C32ED12CC801B70127ECE5
:10E780003BE140E050E00F9441FE611571058105C9
:10E79000910519F485B1805885B98091C00087FD35
:10E7A00003C0C114D104A9F2A6014F5F5F4FC25E3E
:10E7B000DE4F59834883CE51D140C25EDE4F8881FF
:10E7C0009981CE51D140019711F00D9410FEC05D9A
:10E7D000DE4F19821882C053D14060E0C15DDE4F28
:10E7E0001882CF52D14088249924C35DDE4F19820C
:10E7F0001882CD52D140C05EDE4F188219821A8233
:10E800001B82C052D140CE5CDE4F188219821A8220
:10E810001B82C253D140EE24FF2487010BBFF701B6
:10E8200007911691C45CDE4F19830883CC53D14005
:10E830000D940BFEC25EDE4F28813981CE51D1404E
:10E840002130310509F52091C600C25EDE4F1982E4
:10E850001882CE51D14022C02F5F3F4F4F4F5F4FA4
:10E86000213082E138078AE7480780E0580780F0C6
:10E87000C45CDE4FE881F981CC53D140EF5FFF4F9C
:10E8800019F0EE27FF27099420E030E040E050E047
:10E890008091C00087FFE0CF2091C600C35DDE4FAE
:10E8A00048815981CD52D1404F5F5F4FC35DDE4FEC
:10E8B00059834883CD52D140213209F063C64A3092
:10E8C000510508F05FC60894811C911C53E0851621
:10E8D000910409F059C600E010E018C081E280936D
:10E8E000C6008091C00086FFFCCF8091C00080648C
:10E8F0008093C0002F5F3F4F2931310579F70F9486
:10E90000DCF10F5F1F4F0530110519F020E030E0FA
:10E91000E5CF10920A0210920B0210920C02109294
:10E920000D02109206021092070210920802109235
:10E930000902109202021092030210920402109235
:10E9400005028FEE90EE60E00F94F5F180E191EE1C
:10E9500060E00F94C2F18091C00087FFFCCF9091DE
:10E96000C600903608F09F759032B8F09093C600BC
:10E970008091C00086FFFCCF8091C00080648093AE
:10E98000C000A0E2A093C6008091C00086FFFCCF2B
:10E990008091C00080648093C000983409F4D7C18E
:10E9A0009934B8F4923409F459C1933458F490333B
:10E9B00019F1903308F4E3C59F33A1F1903409F0C5
:10E9C000DEC5BDC0953409F470C1963409F0D7C5D1
:10E9D00098C1923509F42BC2933538F49C3409F46C
:10E9E000F5C1913509F0CBC518C2963509F445C279
:10E9F000993509F0C4C567C483E792EE62E00F94CD
:10EA0000F5F110920602109207021092080210927D
:10EA1000090210920A0210920B0210920C0210923C
:10EA20000D0213C18FE792EE62E00F94F5F18FEEC5
:10EA300090EE60E00F94F5F181E291EE60E00F94CA
:10EA4000C2F187EB91EE60E00F94F5F180E391EE77
:10EA500060E00F94C2F184EE90EE60E00F94F5F167
:10EA60008FE391EE60E00F94C2F186E090E061E008
:10EA700070E00F9434F20F94DCF18DE591EE60E0DC
:10EA80000F94C2F189EC91EE60E00F94F5F18EE401
:10EA900091EE60E00F94C2F183EC91EE60E00F9490
:10EAA000F5F18CE691EE60E00F94C2F18EE10F94E7
:10EAB0000DF288E90F940DF281E00F940DF20F949E
:10EAC000DCF18BE791EE60E00F94C2F119E0E0E039
:10EAD000F0E010935700E4918E2F0F940DF20F94F5
:10EAE000DCF18AE891EE60E00F94C2F1E3E0F0E03F
:10EAF00010935700E4918E2F0F940DF20F94DCF1D8
:10EB000089E991EE60E00F94C2F1E2E0F0E0109349
:10EB10005700E4918E2F0F940DF20F94DCF188EAE8
:10EB200091EE60E00F94C2F1E1E0F0E01093570045
:10EB30001491812F0F940DF20F94DCF107CF8BE825
:10EB400092EE62E00F94F5F18BE492EE60E00F94A8
:10EB5000F5F10F94DCF100E010E019C0C8016F2D51
:10EB60000F947FFEFF2031F489E492EE60E00F9471
:10EB7000C2F10BC0F092C6008091C00086FFFCCFAE
:10EB80008091C00080648093C0000F5F1F4FC80158
:10EB900081519F41A0E0B0E0ABBFFC01F790BAE229
:10EBA000FB1621F0E2E000301E07C1F60F94DCF105
:10EBB0000F94DCF187E592EE60E00F94F5F10F948D
:10EBC000DCF1CC24DD2400E010E01EC0C8010F946D
:10EBD00077FEF82E882331F489E492EE60E00F94FA
:10EBE000C2F10BC08093C6008091C00086FFFCCFAD
:10EBF0008091C00080648093C000FE1419F00894D6
:10EC0000C11CD11C0F5F1F4FC80181519F41A0E063
:10EC1000B0E0ABBFFC01E790FAE2EF1621F022E092
:10EC20000030120799F60F94DCF10F94DCF182E6C4
:10EC300092EE60E00F94C2F1C60161E070E00F94C3
:10EC400034F20F94DCF10F94DCF110920202109276
:10EC50000302109204021092050278CE89E992EE26
:10EC600062E00F94F5F1279A2F9A16C02F9880E052
:10EC700090E0E0EDF7E03197F1F7019684369105E9
:10EC8000C1F72F9A80E090E0E0EDF7E03197F1F7DF
:10EC9000019684369105C1F78091C00087FFE6CFC9
:10ECA0008091C00087FFFCCF64C485EA92EE62E0E9
:10ECB0000F94F5F140910202509103026091040219
:10ECC0007091050281E020E10F9491F2809102029F
:10ECD00090910302A0910402B091050280509F4FD1
:10ECE000AF4FBF4F8093020290930302A0930402A0
:10ECF000B093050280509041A040B04008F426CE69
:10ED0000A4CF83EB92EE62E00F94F5F140910602FE
:10ED100050910702609108027091090280E020E1A1
:10ED20000F9491F28091060290910702A09108023F
:10ED3000B091090280509F4FAF4FBF4F80930602A2
:10ED400090930702A0930802B0930902FFCD80ECD4
:10ED500092EE62E00F94F5F183E792EE60E00F949B
:10ED6000F5F18FE792EE60E00F94F5F18BE892EE0B
:10ED700060E00F94F5F189E992EE60E00F94F5F10F
:10ED800085EA92EE60E00F94F5F183EB92EE60E09D
:10ED90000F94F5F180EC92EE60E00F94F5F187ECC2
:10EDA00092EE60E00F94F5F188ED92EE60E00F9442
:10EDB000F5F18FED92EE60E00F94F5F18AEE92EEB0
:10EDC00060E00F94F5F183E093EEBDCD87EC92EE19
:10EDD00062E00F94F5F181E40F947BF282E40F94EA
:10EDE0007BF283E40F947BF284E40F947BF285E45E
:10EDF0000F947BF286E40F947BF287E40F947BF20E
:10EE000088E40F947BF28AE40F947BF28BE40F94F6
:10EE10007BF28CE40F947BF299CD88ED92EE62E068
:10EE20000F94F5F1772473948824992409C48FED05
:10EE300092EE62E00F94F5F140910A0250910B02BC
:10EE400060910C0270910D0282E020E10F9491F22A
:10EE500080910A0290910B02A0910C02B0910D02D8
:10EE600080509F4FAF4FBF4F80930A0290930B0289
:10EE7000A0930C02B0930D0269CD8AEE92EE62E08F
:10EE80000F94F5F184EE90EE60E00F94F5F18FECC5
:10EE900091EE60E00F94F5F1662477244301CC5D98
:10EEA000DE4F19821882C452D140D401C301B695F5
:10EEB000A79597958795CA5DDE4F88839983AA8326
:10EEC000BB83C652D140CC5DDE4FA881B981C4520C
:10EED000D1401196CC5DDE4FB983A883C452D14096
:10EEE000CD0162E070E00F9434F2B0E2B093C6005E
:10EEF0008091C00086FFFCCF8091C0008064809329
:10EF0000C000EDE2E093C6008091C00086FFFCCF18
:10EF10008091C00080648093C000F0E2F093C6004E
:10EF20008091C00086FFFCCF8091C00080648093F8
:10EF3000C000CA5DDE4FE880F9800A811B81C6529D
:10EF4000D140BB27A12F902F8F2D0F940DF2CA5DBA
:10EF5000DE4F8881C652D1400F940DF2B0E2FB2EF5
:10EF6000F092C6008091C00086FFFCCF8091C00067
:10EF700080648093C0000DE30093C6008091C000C0
:10EF800086FFFCCF8091C00080648093C00010E2B7
:10EF90001093C6008091C00086FFFCCF8091C00016
:10EFA00080648093C0008BBEF3012791C65DDE4F65
:10EFB0002883CA52D140A22EBB24CC24DD2408943D
:10EFC000611C711C811C911C8BBEF3018791282E42
:10EFD0003324442455240894611C711C811C911C09
:10EFE0008BBEF3013791C55DDE4F3883CB52D140E4
:10EFF0000894611C711C811C911C8BBEF30147910C
:10F00000C45DDE4F4883CC52D140ADEFEA2EAFEF66
:10F01000FA2EAFEF0A2FAFEF1A2F6E0C7F1C801E57
:10F02000911E142D032DF22CEE24EA0CFB1C0C1D5A
:10F030001D1D0F940DF220E22093C6008091C000A8
:10F0400086FFFCCF8091C00080648093C000C65DC5
:10F05000DE4F8881CA52D1400F940DF230E23093D6
:10F06000C6008091C00086FFFCCF8091C000806404
:10F070008093C000C45DDE4F8881CC52D1400F9494
:10F080000DF240E24093C6008091C00086FFFCCFA5
:10F090008091C00080648093C000C55DDE4F888190
:10F0A000CB52D1400F940DF250E25093C6008091A4
:10F0B000C00086FFFCCF8091C00080648093C000B8
:10F0C0008FEFE8168FEFF80680E0080780E018075A
:10F0D00031F484E092EE60E00F94C2F1DFC0D80119
:10F0E000C7018070907CA070B0708050904CA040A0
:10F0F000B040D1F52FEF3FE340E050E0E222F322B1
:10F1000004231523CA5DDE4FA880B980CA80DB8046
:10F11000C652D140AE0CBF1CC01ED11EAA0CBB1CD7
:10F12000CC1CDD1C8EE092EE60E00F94C2F1BB2798
:10F13000A12F902F8F2D0F940DF28E2D0F940DF285
:10F1400030E23093C6008091C00086FFFCCF8091F2
:10F15000C00080648093C0004EE34093C60080915D
:10F16000C00086FFFCCF87C08EE09EEFA0E0B0E03D
:10F17000E822F9220A231B239CE0E91694E9F90608
:10F1800090E0090790E0190709F088C0C45DDE4FE0
:10F19000A881CC52D140EA2EFF2400E010E0102FCD
:10F1A0000F2DFE2CEE24C55DDE4FB881CB52D14031
:10F1B000EB0EF11C011D111DD601C501817090706F
:10F1C000A070B070DC0199278827E80EF91E0A1F8D
:10F1D0001B1F20EF30E040E050E0A222B322C42207
:10F1E000D52241E1AA0CBB1CCC1CDD1C4A95D1F7F1
:10F1F000EA0CFB1C0C1D1D1D81E090E0A0E0B0E0BE
:10F20000282239224A225B2235E1220C331C441C7D
:10F21000551C3A95D1F7E20CF31C041D151D57013E
:10F220006801AA0CBB1CCC1CDD1C85E192EE60E0E1
:10F230000F94C2F1C801AA27BB270F940DF2BB2778
:10F24000A12F902F8F2D0F940DF28E2D0F940DF274
:10F2500090E29093C6008091C00086FFFCCF809121
:10F26000C00080648093C000AEE3A093C60080918C
:10F27000C00086FFFCCF8091C00080648093C000F6
:10F28000C601AA27BB270F940DF2BB27AD2D9C2DDD
:10F290008B2D0F940DF28A2D0F940DF20F94DCF14B
:10F2A000CC5DDE4FE881F981C452D140F99709F471
:10F2B0004DCBF4E0EF2EF12C012D112D6E0C7F1CA7
:10F2C000801E911EF2CD83E093EE62E00F94F5F183
:10F2D0008AE192EE60E00F94C2F18091C00087FF56
:10F2E000FCCF1091C6001F751093C6008091C0001E
:10F2F00086FFFCCF8091C00080648093C0000F9493
:10F30000DCF1812F81548A3108F036C1163409F4BA
:10F3100095C0173490F4133409F44EC0143430F40B
:10F320001134F1F0123409F01DC130C0143409F465
:10F3300059C0153409F016C16BC01A3409F4C4C0A1
:10F340001B3438F4173409F48FC0183409F00AC19B
:10F35000A1C01B3409F4D2C01C3409F003C1E8C0B9
:10F360008FEF81B90DC082B1809582B980E090E0C5
:10F37000E0EDF7E03197F1F70196883C9105C1F790
:10F380008091C00087FFEFCF12B8EFC08FEF84B934
:10F390000DC085B1809585B980E090E0E0EDF7E0A3
:10F3A0003197F1F70196883C9105C1F78091C00033
:10F3B00087FFEFCF15B8D9C08FEF87B90DC088B1DF
:10F3C000809588B980E090E0E0EDF7E03197F1F7C3
:10F3D0000196883C9105C1F78091C00087FFEFCF6F
:10F3E00018B8C3C08FEF8AB90DC08BB180958BB9A7
:10F3F00080E090E0E0EDF7E03197F1F70196883C8E
:10F400009105C1F78091C00087FFEFCF1BB8ADC059
:10F410008FEF8DB90DC08EB180958EB980E090E0F0
:10F42000E0EDF7E03197F1F70196883C9105C1F7DF
:10F430008091C00087FFEFCF1EB897C08FEF80BBD1
:10F440000DC081B3809581BB80E090E0E0EDF7E0F6
:10F450003197F1F70196883C9105C1F78091C00082
:10F4600087FFEFCF11BA81C08FEF83BB0DC084B38C
:10F47000809584BB80E090E0E0EDF7E03197F1F714
:10F480000196883C9105C1F78091C00087FFEFCFBE
:10F4900014BA6BC08FEF809301010FC080910201FD
:10F4A00080958093020180E090E0E0EDF7E03197F5
:10F4B000F1F70196883C9105C1F78091C00087FF64
:10F4C000EDCF1092020151C08FEF809304010FC065
:10F4D0008091050180958093050180E090E0E0ED4A
:10F4E000F7E03197F1F70196883C9105C1F78091DB
:10F4F000C00087FFEDCF1092050137C08FEF8093DA
:10F5000007010FC08091080180958093080180E079
:10F5100090E0E0EDF7E03197F1F70196883C910536
:10F52000C1F78091C00087FFEDCF109208011DC088
:10F530008FEF80930A010FC080910B01809580931B
:10F540000B0180E090E0E0EDF7E03197F1F70196F4
:10F55000883C9105C1F78091C00087FFEDCF1092E4
:10F560000B0103C085E292EEEEC98091C00087FFD7
:10F57000FCCF8091C600EAC988E392EEE4C98CE131
:10F5800091EEE1C988249924933011F1943028F444
:10F59000913089F09230B8F408C0953061F195301F
:10F5A000F0F0963009F048C043C02B3109F042C951
:10F5B00091E06BE13FC96227C15DDE4F2883CF52E6
:10F5C000D14092E037C9B22FA0E0622793E032C960
:10F5D000822F90E0A82BB92B622794E02BC92E3004
:10F5E00009F039C3622795E0C05DDE4F19821882A9
:10F5F000C053D1401FC9E1E0F0E0EC0FFD1FC05D3A
:10F60000DE4F08811981C053D140E00FF11F2083E4
:10F610000F5F1F4FC05DDE4F19830883C053D14079
:10F6200062270A171B0709F005C9D80196E002C92D
:10F63000261709F010C303C0973009F0FBC87724E0
:10F640009981933109F412C19431C8F4963009F4C8
:10F65000D8C0973050F4923009F406C1933009F4C1
:10F660006DC0913009F059C253C0913109F477C08F
:10F67000923108F0BBC0903109F04FC2F5C098310B
:10F6800009F487C0993150F4953109F4EFC09531F0
:10F6900008F4C6C1963109F040C2C2C19A3109F4DA
:10F6A0006CC09A3108F491C09B3109F45BC09D3164
:10F6B00009F033C29D81903359F48F81882311F46E
:10F6C0009EE11CC0813011F091E018C098E916C08D
:10F6D000892F807591F0903539F4E0E0F0E089E011
:10F6E0008093570094910AC0983539F4E3E0F0E034
:10F6F00089E080935700949101C090E01A821B82A8
:10F700008D818C831D829E831F8227E030E009C299
:10F710001A8288E08B8381E48C8386E58D8382E581
:10F720008E8389E48F8383E5888780E589878FE5E9
:10F730008A8782E38B872BE030E0F3C18A818139AD
:10F7400041F0823941F0803911F48FE005C080E04A
:10F7500003C082E001C08AE01A828B8344C0772410
:10F76000739482C08D81882311F48EE12CC0813086
:10F7700011F081E028C088E926C01A82E1E0F0E0BB
:10F7800089E08093570084918B831C8224E030E0D1
:10F79000C8C18B81803589F48C81883039F4E2E0EE
:10F7A000F0E089E08093570084910DC0E0E0F0E044
:10F7B00089E080935700849106C0E3E0F0E089E09F
:10F7C0008093570084911A82DFCF8D81836C99E0FA
:10F7D000E1E0F0E0082E90935700E89507B600FCB2
:10F7E000FDCF1A821B8223E030E09BC180EC8A832C
:10F7F000CE5CDE4F188219821A821B82C253D1401E
:10F800008EC18A8190E0A0E0B0E0582F44273327D2
:10F8100022278B8190E0A0E0B0E0DC0199278827C7
:10F82000282B392B4A2B5B2B8D8190E0A0E0B0E098
:10F83000282B392B4A2B5B2B8C8190E0A0E0B0E089
:10F84000BA2FA92F982F8827282B392B4A2B5B2BCF
:10F85000220F331F441F551FC05EDE4F288339839C
:10F860004A835B83C052D1401A8259C13A81C95C34
:10F87000DE4F3883C753D140CA5CDE4F1882C6536F
:10F88000D1408B81C82EDD24CA5CDE4F488159816E
:10F89000C653D140C42AD52A933109F082C0CE5C28
:10F8A000DE4F88819981AA81BB81C253D1408050AB
:10F8B000904CA340B04030F583E0CE5CDE4FE88052
:10F8C000F9800A811B81C253D140F70100935B008C
:10F8D00080935700E89507B600FCFDCFCE5CDE4F65
:10F8E000088119812A813B81C253D14000501F4FAA
:10F8F0002F4F3F4FCE5CDE4F088319832A833B8313
:10F90000C253D140C05EDE4F488159816A817B81FC
:10F91000C052D140DE011B9631E08C9111962C91A2
:10F9200011971296C75CDE4F2883C953D140C85C3B
:10F93000DE4F1882C853D14090E0C85CDE4FE881AA
:10F94000F981C853D1408E2B9F2B0C01FA01609393
:10F950005B0030935700E89511244E5F5F4F6F4F67
:10F960007F4F0EEFE02E0FEFF02ECE0CDF1CC114F8
:10F97000D10499F685E0C05EDE4F088119812A81A5
:10F980003B81C052D140F80120935B008093570027
:10F99000E89507B600FCFDCF81E180935700E8951C
:10F9A00035C0C05EDE4F88819981AA81BB81C0527B
:10F9B000D140B695A795979587957C018601ABE0D8
:10F9C000AA2EB12CAC0EBD1E0BC0D5016D915D01F0
:10F9D000C7010F947FFE0894E11CF11C01501040F8
:10F9E0000115110591F7A60160E070E0440F551F65
:10F9F000661F771FC05EDE4FE880F9800A811B8199
:10FA0000C052D1404E0D5F1D601F711F1A82C05E33
:10FA1000DE4F488359836A837B83C052D1407FC0C5
:10FA2000FA80C55CDE4FF882CB53D140C65CDE4F16
:10FA30001882CA53D1408B81C82EDD24C65CDE4FAC
:10FA400008811981CA53D140C02AD12A1A828981DA
:10FA5000BE016D5F7F4F843121F59601C05EDE4FA0
:10FA6000E880F9800A811B81C052D1400BBFF701A9
:10FA700087919691DB018C9311969C936E5F7F4FDB
:10FA8000D801C7010296A11DB11DC05EDE4F88835B
:10FA90009983AA83BB83C052D14022503040F1F6F3
:10FAA00036C0C05EDE4F288139814A815B81C052F9
:10FAB000D1400894C108D108760100E010E0089414
:10FAC000C11CD11C0894E11CF11C011D111DE20E8A
:10FAD000F31E041F151F21BDBB27A52F942F832FB5
:10FAE00082BD2F5F3F4F4F4F5F4FF89A80B5DB01CC
:10FAF0008D93BD012E153F054007510761F7C05E8C
:10FB0000DE4F288339834A835B83C052D1409601FC
:10FB10002D5F3F4FFB01108204C080EC8A8322E0FE
:10FB200030E08BE18093C6008091C00086FFFCCF5F
:10FB30008091C00080648093C000C15DDE4FF88179
:10FB4000CF52D140F093C6008091C00086FFFCCF19
:10FB50008091C00080648093C000432F3093C60022
:10FB60008091C00086FFFCCF8091C00080648093AC
:10FB7000C000922F2093C6008091C00086FFFCCF6A
:10FB80008091C00080648093C0008EE08093C600A6
:10FB90008091C00086FFFCCF8091C000806480937C
:10FBA000C00065E1C15DDE4FE880CF52D1406E25D7
:10FBB00069276427FE01319610C090819093C6009A
:10FBC0008091C00086FFFCCF31968091C000806498
:10FBD0008093C0006927215030402115310569F715
:10FBE0006093C6008091C00086FFFCCF8091C0006A
:10FBF00080648093C00085B1805885B9772081F4F6
:10FC0000C15DDE4F0881CF52D1400F5FC15DDE4F35
:10FC10000883CF52D14090E0A0E0B0E00D941AF4F8
:10FC200027982F9880E090E020ED37E0F901319798
:10FC3000F1F7019684369105C9F700008091C00064
:10FC40008D7F8093C00081E180935700E895EE2777
:10FC5000FF270994FFCF90E00D941AF497FB092E2B
:10FC600007260AD077FD04D02ED006D000201AF443
:10FC7000709561957F4F0895F6F7909581959F4F08
:10FC80000895A1E21A2EAA1BBB1BFD010DC0AA1FDD
:10FC9000BB1FEE1FFF1FA217B307E407F50720F0F5
:10FCA000A21BB30BE40BF50B661F771F881F991F70
:10FCB0001A9469F760957095809590959B01AC01B9
:10FCC000BD01CF010895AA1BBB1B51E107C0AA1FAC
:10FCD000BB1FA617B70710F0A61BB70B881F991FED
:10FCE0005A95A9F780959095BC01CD010895F99991
:10FCF000FECF92BD81BDF89A992780B50895262F31
:10FD0000F999FECF1FBA92BD81BD20BD0FB6F89400
:0EFD1000FA9AF99A0FBE01960895F894FFCF63
:00000001FF
