:100000000C9448010C9479010C9479010C947901B9
:100010000C9479010C9479010C9479010C94790178
:100020000C9479010C9479010C9479010C94790168
:100030000C9479010C9479010C9479010C94790158
:100040000C9479010C9479010C9479010C94790148
:100050000C9479010C9479010C9479010C940A07A1
:100060000C9479010C9479010C9479010C94790128
:100070000C9479010C9479010C9479010C94790118
:100080000C9479010C9479010C9479010C94790108
:100090000C9479010C9479010C9479010C94540717
:1000A0000C9479010C9479010C9479010C947901E8
:1000B0000C9479010C9479010C9479010C947901D8
:1000C0000C9479010C9479010C9479010C947901C8
:1000D0000C9479010C9479010C9479010C947901B8
:1000E0000C9479010C945F030C946C020C945102F3
:1000F0000C94DD050C9467020C9457040C943E029A
:100100000C9455020C9423040C9410040C943A02A1
:100110000C9441020C9478080C9432020C94630203
:100120000C946C030C946D020C9447020C943602F0
:100130000C946D050C942C020C9467030C945902DA
:100140000C9499030C9400040C9463030C946B03BB
:100150000C942A040C944B020C946A030C945F02D6
:100160000C9401040C945D0C0C94710200002100AD
:10017000240027002A002D00300033000101000078
:10018000040107010A0100002200250028002B00BD
:100190002E003100340002010000050108010B01AE
:1001A000000020002300260029002C002F00320030
:1001B0000001000003010601090105050505070509
:1001C00008080808020202020A0A080804040404D3
:1001D00001010101010101010303030303030303FF
:1001E000040707070C0C0C0C0C0C0C0C020202028E
:1001F00006060606060606060B0B0B0B0B0B0B0B77
:100200000102102020080810204010204080020128
:10021000020108040201010204081020408080400D
:10022000201008040201800402018040201008040C
:1002300002010804020101020408102040800102AA
:1002400004081020408000000A0B02090C0D0E0863
:10025000070304010000000000000000000000008F
:10026000000000000000000000000000000000008E
:10027000000012111000000000000000000000004B
:1002800000000000000000000000000078085D0C85
:1002900011241FBECFEFD1E2DEBFCDBF00E00CBF07
:1002A00024E0AAEBB2E001C01D92AA31B207E1F747
:1002B00012E0A0E0B2E0E4E9FDE100E00BBF02C023
:1002C00007900D92AA3BB107D9F711E0C7E4D1E03E
:1002D00000E006C021970109802FFE010E94910CC9
:1002E000C634D10780E00807A9F70E9400090C94E2
:1002F000B80E0C94000096E0899FD0011124A556F9
:10030000BC4F90967C936E935F9791E091969C93EF
:100310009197E0910804F0910904909107049923C2
:1003200039F0309751F0811108C08091B7031994CA
:10033000309719F05C968C91FACF0895CF92DF92A6
:10034000EF92FF920F931F9396E0899FF001112483
:10035000E556FC4F11A2278D30A12130310551F116
:1003600078F02230310509F451C02330310509F409
:1003700052C01F910F91FF90EF90DF90CF900895A2
:100380006623B9F361E070E00E947B012FB7F89417
:100390008091790390917A03A0917B03B0917C03C3
:1003A0002FBF8093F3039093F403A093F503B093CE
:1003B000F603DFCF9FB7F894C0907903D0907A030B
:1003C000E0907B03F0907C039FBF0091F3031091BA
:1003D000F4032091F5033091F603C01AD10AE20A22
:1003E000F30A009105041091060430E020E00C159A
:1003F0001D052E053F0550F462E070E01F910F913E
:10040000FF90EF90DF90CF900C947B016111B1CF02
:1004100063E070E0F3CF70E060E0F0CF81508231B4
:1004200008F05AC0E82FF0E08827E65EFD4F8F4FB6
:100430000C94910C3A023E022C02320236026C02FB
:10044000410247024B025102550259025F02630208
:100450006C0267026D027102809180008F77809339
:1004600080000895809180008F7DF9CF8091800079
:10047000877FF5CF84B58F7784BD089584B58F7D50
:10048000FBCF8091B0008F778093B000089580916A
:10049000B0008F7DF9CF809190008F77809390008E
:1004A0000895809190008F7DF9CF80919000877F93
:1004B000F5CF8091A0008F778093A0000895809160
:1004C000A0008F7DF9CF8091A000877FF5CF80912C
:1004D00020018F77809320010895809120018F7DE6
:1004E000F9CF80912001877FF5CFCF93DF93282F1D
:1004F00030E0F901EA5BFD4F8491F901E050FE4FD5
:10050000D491F901E654FE4FC491CC23A1F081119E
:100510000E940E02EC2FF0E0EE0FFF1FE056FE4FA0
:10052000A591B491EC91ED2381E090E009F480E095
:10053000DF91CF91089580E090E0FACF1F93CF93A1
:10054000DF93282F30E0F901EA5BFD4F8491F90138
:10055000E050FE4FD491F901E654FE4FC491CC23F4
:10056000A9F0162F81110E940E02EC2FF0E0EE0F81
:10057000FF1FEA57FE4FA591B4918FB7F894EC9105
:10058000111108C0D095DE23DC938FBFDF91CF918E
:100590001F910895DE2BF8CFCF93DF9390E0FC01FD
:1005A000E050FE4F249186549E4FFC018491882395
:1005B000C9F090E0880F991FFC01E459FE4FA59106
:1005C000B491FC01EA57FE4FC591D49161110DC061
:1005D0009FB7F8948C91209582238C93888128234F
:1005E00028839FBFDF91CF910895623051F49FB768
:1005F000F8943C91822F809583238C93E8812E2B55
:10060000EFCF8FB7F894EC912E2B2C938FBFEACFBE
:100610003FB7F8948091750390917603A09177038A
:10062000B091780326B5A89B05C02F3F19F001961D
:10063000A11DB11D3FBFBA2FA92F982F8827BC013C
:10064000CD01620F711D811D911D42E0660F771F64
:10065000881F991F4A95D1F708958F929F92AF9264
:10066000BF92CF92DF92EF92FF924B015C010E940A
:1006700008036B017C010E9408036C197D098E0937
:100680009F09683E734081059105A8F321E0821A15
:100690009108A108B10888EEC80E83E0D81EE11CBD
:1006A000F11C81149104A104B10429F7FF90EF908B
:1006B000DF90CF90BF90AF909F908F900895862F3E
:1006C000642F0C94CC02862F642F0C949E02862FEC
:1006D0000C94750208950895AF92BF92CF92DF9265
:1006E000EF92FF920F931F93CF93DF936C017B01E7
:1006F0008B01040F151FEB015E01AE18BF08C01778
:10070000D10759F06991D601ED91FC910190F081EA
:10071000E02DC6011995892B79F7C501DF91CF919D
:100720001F910F91FF90EF90DF90CF90BF90AF900F
:10073000089508952091FB02260F3327331F21329D
:100740003105ECF420914403FC0190E080E024307A
:1007500069F082E00895A091FB022191AC0145521D
:100760005D4FA40FB52FB11D2C930196861798F3FA
:100770008091FB02680F6093FB0280E0089581E0A6
:1007800008951092440381E08093430310921E0366
:1007900061E084E10E949E0261E085E10E949E0288
:1007A000E9EBF0E080818E7F808380818D7F808384
:1007B00088E48093B80085E48093BC000895CF93CB
:1007C000DF9391E09093DA028823B9F0C091B800EA
:1007D000D091BA008091BC008A7B8093BC0060E01D
:1007E00084E10E949E0260E085E10E949E020E94D8
:1007F000C103D093BA00C093B800DF91CF910895A0
:100800000895E091730380917203E81730F4F0E0EB
:10081000E654FD4F808190E008958FEF9FEF08959B
:1008200090917303809172032FEF3FEF981748F474
:10083000E92FF0E0E654FD4F208130E09F5F909378
:100840007303C90108958091720390917303891B0A
:10085000990B0895CF92DF92EF92FF920F931F931F
:10086000CF93DF937C01CB018A0120914A0322239D
:1008700089F0EB016B01C40ED51ECC15DD0569F0C6
:100880006991D701ED91FC910190F081E02DC701B4
:100890001995F3CF642F0E949A03C801DF91CF917D
:1008A0001F910F91FF90EF90DF90CF900895CF931D
:1008B000DF931F92CDB7DEB7698320914A032223CD
:1008C000F9F020917003203258F021E030E0FC0173
:1008D0003383228390E080E00F90DF91CF910895E1
:1008E00080917103E82FF0E0E55BFC4F99819083E4
:1008F0008F5F809371038093700381E090E0ECCF71
:1009000061E0CE0101960E949A03F7CFCF92DF9269
:10091000EF92FF920F931F93CF93DF93FC01C4815B
:1009200021E020934A03C0936B031092710310924D
:1009300070038385682B8DE793E00E945704D09164
:100940007003D13208F092C00E9408036B017C0151
:1009500080914403811165C082E08093440381E06B
:10096000809343038FEF8093420310924103D0930F
:100970004003ABE4B3E0E0E2F3E080E0D81385C0ED
:1009800010921F0380911F03CC0FC82BC0931F032D
:1009900080911E03813009F07CC010921E030E94DA
:1009A00008036B017C0180911F038093BB00809141
:1009B000460390914703A0914803B0914903892BC6
:1009C0008A2B8B2B99F00E9408030091460310910B
:1009D000470320914803309149036C197D098E0922
:1009E0009F090617170728073907E0F18091BC0017
:1009F00083FDD9CF85EC8093BC000E9408036B0176
:100A00007C0180914403823009F445C08091420307
:100A10008F3F61F180914203803241F18091420326
:100A200025C08091460390914703A0914803B0915F
:100A30004903892B8A2B8B2B09F48ACF0E94080348
:100A400000914603109147032091480330914903D8
:100A50006C197D098E099F090617170728073907A2
:100A600008F076CF809145030E94DF031092710356
:100A70001092700310924A03DF91CF911F910F9152
:100A8000FF90EF90DF90CF9008959D9191938F5FAD
:100A900075CF85EEB0CF8091460390914703A0912A
:100AA0004803B0914903892B8A2B8B2B09F4A9CFDA
:100AB0000E940803009146031091470320914803C8
:100AC000309149036C197D098E099F090617170794
:100AD0002807390708F095CFC5CF90E080E008954A
:100AE0000F931F93CF938C01C62F0E9486046C2F07
:100AF0006460C8010E9486046C2F6B7FC8010E944D
:100B0000860483EC90E00197F1F7CF911F910F914C
:100B100008950F931F93CF93DF938C01D62FC42F8B
:100B2000607F642B0E94700580E1D89FB001112482
:100B30006C2BC801DF91CF911F910F910C94700520
:100B400040E061E08AE094E00E9489058BE39FE148
:100B50000197F1F70895CF93DF9300D000D01F9253
:100B60001F92CDB7DEB798E0ECE1F2E0DE0111961E
:100B700001900D929A95E1F790911204961710F456
:100B80006FEF690F262F30E0220F331F41E050E056
:100B90004C0F5D1F240F351FF9016081680F6068DD
:100BA00040E08AE094E028960FB6F894DEBF0FBECE
:100BB000CDBFDF91CF910C94890541E00E9489055A
:100BC00081E090E008958F929F92AF92BF920F9331
:100BD0001F93CF93DF93CDB7DEB7A1970FB6F894ED
:100BE000DEBF0FBECDBF19A2423008F44AE08E012D
:100BF0000F5D1F4F842E912CB12CA12CA5019401C7
:100C00000E946F0CE62FB901CA01EA3044F5E05D9D
:100C1000D801EE938D01232B242B252B79F790E01F
:100C200080E0109769F0FD0101900020E9F731970D
:100C3000AF014A1B5B0BBD018AE094E00E946C038C
:100C4000A1960FB6F894DEBF0FBECDBFDF91CF9156
:100C50001F910F91BF90AF909F908F900895E95C86
:100C6000D7CFFC0101900020E9F73197AF01481B75
:100C7000590BBC018AE094E00C946C03FC012481C4
:100C80003581FB014481558124173507E1F4FC01CE
:100C900080819181FB01608171810097D1F06115A4
:100CA0007105A1F4232BC1F0FC01808190E008C004
:100CB000232B91F0FB01808190E091958195910922
:100CC00021E0892B09F020E0822F08950E94A80ED0
:100CD000F7CF6115710561F721E0F6CF0F931F93F0
:100CE000CF93DF93EC0188819981009759F02A8195
:100CF0003B812617370730F081E0DF91CF911F91BC
:100D00000F9108958B016F5F7F4F0E94BE0D00977A
:100D100059F0998388831B830A832C813D81232B7F
:100D200059F7FC011082E8CF80E0E7CFEF92FF9205
:100D30000F931F93CF93DF93EC017B0119821882ED
:100D40001B821A821D821C82FB0101900020E9F7A0
:100D500031978F01061B170BB8010E946E06288180
:100D60003981811113C02115310519F0C9010E9483
:100D7000350D198218821D821C821B821A82DF9116
:100D8000CF911F910F91FF90EF9008951D830C83D9
:100D9000B701C901DF91CF911F910F91FF90EF90A3
:100DA0000C94B10E85ED8093BC0080914603909128
:100DB0004703A0914803B09149030796A11DB11DB7
:100DC00023E0B695A795979587952A95D1F7209119
:100DD000BC0024FD03C010924403089540914603D3
:100DE000509147036091480370914903452B462B6E
:100DF000472B69F30097A105B10541F02AE22A9536
:100E0000F1F700C00197A109B109E1CF8091450335
:100E10000C94DF031F920F920FB60F9211242F93A1
:100E20003F938F939F93AF93BF938091790390915A
:100E30007A03A0917B03B0917C033091740323E08B
:100E4000230F2D3758F50196A11DB11D2093740372
:100E50008093790390937A03A0937B03B0937C03F0
:100E60008091750390917603A0917703B0917803F8
:100E70000196A11DB11D8093750390937603A093F5
:100E80007703B0937803BF91AF919F918F913F917A
:100E90002F910F900FBE0F901F90189526E8230FEB
:100EA0000296A11DB11DD2CF1F920F920FB60F92C5
:100EB00011240BB60F922F933F934F935F936F9331
:100EC0007F938F939F93AF93BF93EF93FF93809103
:100ED000B900887F803609F44DC008F040C08832E0
:100EE00009F4A9C028F5803109F49DC0C8F488230D
:100EF00009F4FBC0883009F496C0FF91EF91BF91CF
:100F0000AF919F918F917F916F915F914F913F91A1
:100F10002F910F900BBE0F900FBE0F901F90189542
:100F2000883109F488C0803241F78093420314C0AD
:100F3000803409F49DC040F48033B9F38833E9F676
:100F40008093420385ECB0C0803509F485C08835B4
:100F500009F496C0883489F60E94D206CECF88392B
:100F600009F48CC038F5883729F050F4883611F030
:100F7000803719F683E08093440310921D0357C015
:100F8000883809F47BC0803919F0803809F0B5CF72
:100F900080911D03803208F071C0E0911D0381E053
:100FA0008E0F80931D038091BB00F0E0E350FD4F56
:100FB00080833DC0803B39F0E0F4803A09F479C089
:100FC000883A09F09ACF84E0809344031092FC029F
:100FD0001092FB02E0916E03F0916F0319958091DE
:100FE000FB0281110FC081E08093FB021092DB02B3
:100FF00009C0803C09F4A6CF883C09F4A3CF883B04
:1010000009F07BCFE091FC0281E08E0F8093FC021F
:10101000F0E0E552FD4F80818093BB009091FC028F
:101020008091FB0229C080911F038093BB0085EC57
:101030008093BC0062CF9091410380914003981748
:1010400058F5E091410381E08E0F80934103F0E079
:10105000E05EFC4F8081E9CFE091410381E08E0F9B
:10106000809341038091BB00F0E0E05EFC4F808301
:1010700090914103809140039817C8F285E8D8CF3A
:10108000E091410381E08E0F809341038091BB008A
:10109000F0E0E05EFC4F80838091430381115CCFE0
:1010A00081E080931E0384EA8093BC001092440385
:1010B00024CF85EC8093BC001092440380911D03E3
:1010C000803230F4E0911D03F0E0E350FD4F1082D8
:1010D00060911D0370E0E0916C03F0916D038DEF62
:1010E00092E0199510921D0308CF1092420334CF5D
:1010F0001092800310927F0388EE93E0A0E0B0E0AE
:101100008093810390938203A0938303B09384031D
:1011100088E292E090937E0380937D0310920D0409
:1011200010920C0484E492E090930B0480930A04E0
:1011300087E280930E0480E18093130482E0809321
:1011400014041092150410929D031092A1031092A2
:10115000A0031092A2038AE392E090939C038093F1
:101160009B03E7EBF3E0108214821382158236961C
:1011700083E0E33FF807B9F786E092E09093FE033F
:101180008093FD0383E092E0909300048093FF033B
:1011900084E08093010483E0809302048AE092E07B
:1011A0009093FC038093FB038AE090E09093040407
:1011B0008093030484EF91E09093060480930504E8
:1011C00010920904109208041092F7031092F80389
:1011D0001092F9031092FA03109207046CE472E083
:1011E00089E893E00E94960661E572E08FE893E05B
:1011F0000E94960666E572E085E993E00C949606F7
:10120000CF93DF9300D000D01F921F92CDB7DEB7EF
:10121000789484B5826084BD84B5816084BD85B5D1
:10122000826085BD85B5816085BD80916E008160DD
:1012300080936E0010928100809181008260809383
:101240008100809181008160809381008091800085
:101250008160809380008091B10084608093B100B0
:101260008091B00081608093B00080919100826095
:101270008093910080919100816080939100809192
:1012800090008160809390008091A10082608093A3
:10129000A1008091A10081608093A1008091A000B5
:1012A00081608093A0008091210182608093210160
:1012B00080912101816080932101809120018160D2
:1012C0008093200180917A00846080937A008091DD
:1012D0007A00826080937A0080917A0081608093A6
:1012E0007A0080917A00806880937A001092C10021
:1012F0001092730310927203109271031092700394
:101300000E94C1038AE693E090936F0380936E037B
:101310008BE693E090936D0380936C0310920F041F
:1013200080911404823018F098E090930F04809319
:10133000120462E370E080E090E00E942D0360916F
:1013400015048AE094E00E94860468EE73E080E071
:1013500090E00E942D0360E38AE094E00E94700513
:101360000BE416E4C8010197F1F760E38AE094E02A
:101370000E947005C8010197F1F760E38AE094E0EC
:101380000E94700583E592E00197F1F760E28AE040
:1013900094E00E94700560910F04606240E08AE072
:1013A00094E00E94890584E08093100440E06CE0A2
:1013B0008AE094E00E9489050E94A00582E0809363
:1013C000110440E066E08AE094E00E94890540E074
:1013D00062E08AE094E00E9489058BE39FE1019737
:1013E000F1F788E08093150460E08AE094E00E94C1
:1013F0008604412C512C32014394AA24AA94BA2C7D
:1014000080910202882309F4E8C10E94A00560E0EF
:1014100080E00E94AB058BE592E00E9431066BE70D
:1014200072E0CE0101960E94960661E080E00E9483
:10143000AB0551E0509307048FB7F89440917903BE
:1014400050917A0360917B0370917C038FBF8091F0
:10145000F7039091F803A091F903B091FA03481BA8
:10146000590B6A0B7B0B8091030490910404B0E04C
:10147000A0E084179507A607B707D8F610E080917B
:101480000104181760F4E091FD03F091FE03E10FF1
:10149000F11D62E080810E94CC021F5FF0CF312CF1
:1014A00080910204381608F061C0E32CF12CE09121
:1014B000FF03F0910004EE0DFF1D61E080810E94AA
:1014C000CC02E091FF03F0910004EE0DFF1D60E0FF
:1014D00080810E949E02D301C201032C04C0880FA8
:1014E000991FAA1FBB1F0A94D2F74C016C01C0942C
:1014F000D094212C80910104281608F5022D10E0CB
:10150000E091FD03F091FE03E00FF11F80810E9446
:1015100075020C5F1F4F000F111FF801E556FC4FBD
:10152000892B41F480819181882999299183808335
:101530002394E0CF808191818C219D21F7CFE09190
:10154000FF03F0910004EE0DFF1D61E080810E9419
:101550009E028091FF0390910004E80EF91E60E066
:10156000F70180810E94CC0233949ACF0BE913E0FB
:101570007801F701878D90A1892B21F4148EB68E06
:10158000A58E11A2F6E0EF0EF11C57EDE51653E023
:10159000F50679F7912C80910104981608F053C054
:1015A000812CC92CD12CCC0CDD1CC6018D559C4F37
:1015B0006C0120910204821608F043C0F60160819C
:1015C0007181082C02C0769567950A94E2F7929E85
:1015D00090011124280D311DEBE9F3E080E0458DE9
:1015E000568D2417350709F466C18F5F36968A3009
:1015F000B1F760FF24C0EBE9F3E090E080E0448DB8
:10160000411118C0E091FB03F091FC03E20FF31FBE
:10161000408156E0589FF001599FF00D1124E55686
:10162000FC4F448F368F258F10A2178E61E00E94E9
:101630009E0105C0019636968A30910501F7839484
:10164000B8CF9394A8CF80E0F80191A19111892F90
:101650000A5F1F4FE016F106B9F79FB7F894409163
:10166000790350917A0360917B0370917C039FBF53
:101670004093F7035093F8036093F9037093FA03D0
:10168000882309F4D6CE8091BC03882309F4D1CEF7
:101690008091BA039091BB03019709F0CACE809163
:1016A000B703882309F4C5CE0D811E818A32D1F497
:1016B0000115110509F4BDCE01501109E981FA8126
:1016C000E00FF11F1E830D83108261E08D810E9467
:1016D000AB0541E060E28AE094E00E94890561E0A8
:1016E0008D81A5CE8332D1F404301105D1F162E0B1
:1016F00080E00E94AB0589E692E00E94310664EF2B
:1017000071E080E090E00E942D0362E080E00E94A2
:10171000AB0581E792E00E9431068BCE04301105C3
:1017200008F087CE8F8318860F5F1F4FB801CE0158
:1017300001960E946E06882369F029813A818D8185
:101740009E81BE01695F7F4F820F931F0E94B10E81
:101750001E830D8341E06AE28AE094E00E948905DD
:1017600068CE69E873E0CE0101960E943E068111C1
:1017700010C06FE873E0CE0101960E943E06811111
:1017800008C065E973E0CE0101960E943E068823F9
:1017900061F183E090E090930102809300020E9447
:1017A000A00560E080E00E94AB058CE792E00E941B
:1017B00031066AEF70E080E090E00E942D030E9405
:1017C000A0058091020291E089278093020289811D
:1017D0009A81009711F00E94350D80E090E0892BEE
:1017E00009F40ECE0E9400000BCE80910002909171
:1017F0000102019790930102809300020E94A005CC
:1018000060E080E00E94AB0589E892E00E9431062A
:1018100061E080E00E94AB0587E992E00E9431061A
:10182000C0900002D09001020D2C000CEE08FF08C1
:101830004AE0C701B601F7FE0EC041E06DE28AE062
:1018400094E00E94890566277727CB016C197D09F2
:101850008E099F094AE00E94E3056AEF70E080E08C
:1018600090E00E942D038091000290910102892B4B
:1018700009F0ADCF0E94A00560E080E00E94AB05BA
:1018800087EA92E00E94310661E080E00E94AB05A9
:101890008EEA92E00E94310664EF71E080E090E011
:1018A0000E942D030E94A00583E090E09093010226
:1018B000809300028CCF6170BACECF93DF93CBE9D7
:1018C000D3E0269788819981009711F00E94350D09
:1018D00083E0C938D807A9F7DF91CF910895A1E235
:1018E0001A2EAA1BBB1BFD010DC0AA1FBB1FEE1F9A
:1018F000FF1FA217B307E407F50720F0A21BB30BE5
:10190000E40BF50B661F771F881F991F1A9469F760
:1019100060957095809590959B01AC01BD01CF01BC
:101920000895EE0FFF1F881F8BBF0790F691E02DE3
:1019300019940F931F93CF93DF938230910510F486
:1019400082E090E0E0911804F091190430E020E08A
:10195000B0E0A0E0309799F42115310509F44AC0B0
:10196000281B390B24303105D8F58A819B816115FC
:10197000710589F1FB0193838283FE0111C04081CF
:1019800051810281138148175907E0F04817590720
:1019900099F4109761F012960C93129713961C937A
:1019A0003296CF01DF91CF911F910F91089500934F
:1019B000180410931904F4CF2115310551F0421782
:1019C000530738F0A901DB019A01BD01DF01F801DD
:1019D000C1CFEF01F9CF9093190480931804CDCFB4
:1019E000FE01E20FF31F8193919322503109398355
:1019F0002883D7CF2091160430911704232B41F46C
:101A00002091180230911902309317042093160484
:101A100020911602309117022115310541F42DB79E
:101A20003EB740911A0250911B02241B350BE091E6
:101A30001604F0911704E217F307A0F42E1B3F0BD6
:101A40002817390778F0AC014E5F5F4F2417350730
:101A500048F04E0F5F1F5093170440931604819374
:101A600091939FCFF0E0E0E09CCFCF93DF9300977E
:101A7000E9F0FC01329713821282A0911804B09110
:101A80001904ED0130E020E01097A1F420813181AC
:101A9000820F931F209116043091170428173907DD
:101AA00009F061C0F0931704E0931604DF91CF9121
:101AB0000895EA01CE17DF07E8F54A815B819E01B0
:101AC00041155105B1F7E901FB83EA834991599129
:101AD000C40FD51FEC17FD0761F480819181029638
:101AE000840F951FE90199838883828193819B8369
:101AF0008A83F0E0E0E012968D919C911397009715
:101B0000B9F52D913C911197CD010296820F931F4B
:101B100020911604309117042817390739F63097A9
:101B200051F51092190410921804B0931704A09361
:101B30001604BCCFD383C28340815181840F951F8B
:101B4000C817D90761F44E5F5F4F88819981480FAC
:101B5000591F518340838A819B81938382832115FE
:101B6000310509F0B0CFF0931904E09318049ECF2B
:101B7000FD01DC01C0CF13821282D7CF4F925F925A
:101B80006F927F928F929F92AF92BF92CF92DF928D
:101B9000EF92FF920F931F93CF93DF938C010097E7
:101BA00099F4CB01DF91CF911F910F91FF90EF90AE
:101BB000DF90CF90BF90AF909F908F907F906F906D
:101BC0005F904F900C94990CFC01E60FF71F9C015D
:101BD00022503109E217F30708F4AEC0D901CD91C4
:101BE000DC911197C617D70720F1C530D10578F0E1
:101BF000CE0104978617970750F0C61BD70B229784
:101C0000C193D1936D937C93CF010E94350DC80190
:101C1000DF91CF911F910F91FF90EF90DF90CF90C8
:101C2000BF90AF909F908F907F906F905F904F90FC
:101C300008955B01AC1ABD0A4C018C0E9D1EA0914B
:101C40001804B0911904512C412CF12CE12C10975F
:101C500031F580911604909117048815990509F0C3
:101C60005CC04616570608F058C080911602909145
:101C70001702009741F48DB79EB740911A02509118
:101C80001B02841B950BE817F90708F055C0F09369
:101C90001704E0931604F90171836083B8CF8D9126
:101CA0009C91119712966C90129713967C901397B3
:101CB000A815B90559F56C0142E0C40ED11CCA142F
:101CC000DB0420F1AC014A195B09DA011296159781
:101CD00080F06282738251834083D9016D937C933B
:101CE000E114F10471F0D7011396FC93EE9312976F
:101CF0008ECF22968C0F9D1FF90191838083F30173
:101D0000EFCFF0931904E093180481CF48165906D9
:101D100008F42C017D01D3019ACFCB010E94990CCC
:101D20007C01009749F0AE01B8010E949F0EC801E6
:101D30000E94350D87016BCF10E000E068CFFB01FA
:101D4000DC0102C001900D9241505040D8F7089537
:101D5000FB01DC018D91019080190110D9F3990BE1
:101D60000895FB01DC0101900D920020E1F7089538
:101D700011E0C7E4D1E000E006C0802FFE010E9420
:101D8000910C2196011DC834D10780E00807A9F7FE
:041D9000F894FFCFF5
:101D94000300010908070D0C0B0A313233343536C0
:101DA4003738392A302300001A048000000040002C
:101DB400140054000000000057042A046D050004B8
:101DC400230410040104000000005F03630367039D
:101DD40000000000DD056C036D05990331323334D6
:101DE4000034353637003637383900456E7465723D
:101DF40020796F757220496400756E6B6E6F776E13
:101E040000202020202020202020200057656C6303
:101E14006F6D6520757365720041434345535320CC
:101E240044454E49454400417474656D7074732093
:101E34006C6566743A200048454C50203F0043418D
:0A1E44004C4C3A203136353931009C
:00000001FF
